:020000040800F2
:1000000000000320E1200008091D00080F1D000862
:10001000151D00081B1D0008211D000831210008C6
:10002000000000000000000000000000E14A01089C
:10003000271D000800000000814A0108411B01083B
:100040003121000831210008312100083121000848
:100050003121000831210008312100083121000838
:100060003121000831210008312100083121000828
:100070003121000831210008312100083121000818
:100080003121000831210008312100083121000808
:1000900031210008312100083121000831210008F8
:1000A00031210008312100083121000831210008E8
:1000B00031210008351D00083121000831210008D8
:1000C00031210008312100083121000831210008C8
:1000D00031210008312100083121000831210008B8
:1000E0003121000831210008491D00083121000894
:1000F0003121000831210008312100083121000898
:100100003121000831210008312100083121000887
:100110003121000831210008312100085D1D00084F
:10012000711D00083121000831210008312100082B
:1001300031210008851D0008991D000831210008A3
:100140003121000831210008312100083121000847
:100150003121000831210008312100083121000837
:100160003121000831210008312100083121000827
:10017000AD1D000800000000C11D000800000000C7
:100180003121000831210008312100083121000807
:1001900031210008312100083121000831210008F7
:1001A00031210008312100083121000831210008E7
:1001B0003121000800000000312100083121000831
:1001C0003121000800000000312100083121000821
:1001D00031210008312100083121000831210008B7
:1001E00031210008312100083121000831210008A7
:0401F000000000000B
:1002000010B5054C237833B9044B13B10448AFF350
:1002100000800123237010BD10B7012000000000F2
:10022000DC63010808B5034B1BB103490348AFF376
:10023000008008BD0000000014B70120DC63010845
:10024000034613F8012B002AFBD1181A0138704716
:1002500053B94AB9002908BF00281CBF4FF0FF312D
:100260004FF0FF3000F082B9ADF1080C6DE904CE1B
:1002700000F006F8DDF804E0DDE9022304B0704781
:100280002DE9F04F099E0D4604460F46002B46D13E
:100290008A4294465ED9B2FA82F343B102FA03FC71
:1002A000C3F120029F409C4020FA02F217434FEA1C
:1002B0001C4E1FFA8CF5220CB7FBFEF10EFB1177DA
:1002C00001FB05F042EA0742904208D91CEB02020A
:1002D00001F1FF3702D2904200F234813946121AFE
:1002E000A4B2B2FBFEF00EFB102200FB05F544EABF
:1002F0000244A54208D91CEB040400F1FF3202D2EB
:10030000A54200F21981104640EA0140641B002119
:100310001EB1DC400023C6E90043BDE8F08F8B42EC
:1003200008D9002E00F0FC800021C6E9000508462F
:10033000BDE8F08FB3FA83F100294CD1AB42C0F095
:10034000F280824240F2EF800846002EE5D0C6E9F6
:100350000047E2E702B9FFDEB2FA82F3002B40F079
:100360009F808A1A4FEA1C4E1FFA8CF70121B2FBBC
:10037000FEF50EFB1520220C42EA004207FB05F0B9
:1003800090420FD91CEB020205F1FF382CBF4FF051
:1003900001094FF00009904203D9B9F1000F00F0B4
:1003A000CE804546121AA4B2B2FBFEF00EFB10221C
:1003B00000FB07F744EA0244A74208D91CEB0404F7
:1003C00000F1FF3202D2A74200F2B3801046E41BD4
:1003D00040EA05409CE7C1F120048B4005FA01FC8E
:1003E00022FA04F7E5408A401F4320FA04F38840CC
:1003F0004FEA174843EA0C031FFA87FC4FEA1349F8
:10040000B5FBF8FE08FB1E5549EA05450EFB0CF945
:10041000A9450ED97D190EF1FF3A2CBF4FF0010B03
:100420004FF0000BA94503D9BBF1000F00F08D8000
:10043000D646A5EB09051FFA83F9B5FBF8F308FBCF
:10044000135503FB0CFC49EA0545AC4506D97D195B
:1004500003F1FF3801D2AC457ED8434643EA0E4350
:10046000A5EB0C05A3FB02984545CE46C44602D336
:1004700006D1484504D2013BB9EB020E68EB070CEC
:10048000002E6FD0B0EB0E0265EB0C05CA4005FAEA
:1004900004F4CD40184614430021C6E900453CE76A
:1004A00002FA03FCC3F1200299409C40D5404FEA78
:1004B0001C4E20FA02F21FFA8CF7B5FBFEF00A433D
:1004C0000EFB1055110C41EA054100FB07F58D426A
:1004D0000ED91CEB010100F1FF382CBF4FF00109D0
:1004E0004FF000098D4202D9B9F1000F31D04046DA
:1004F000491B92B2B1FBFEF50EFB151142EA014217
:1005000005FB07F1914207D91CEB020205F1FF3808
:1005100001D2914223D84546521A45EA004126E7C6
:1005200031463046F9E6841A65EB0302012017468E
:100530000BE7644402384AE764440238E4E6023DCB
:1005400062442FE702396244C9E6AEF1020E3D442F
:100550006FE702386144CBE7023B3D447EE7023D52
:100560006244D9E718463146D7E600BF704700BF5E
:1005700080B582B000AF786039603B687A6809491D
:10058000094814F0AFFD0848FFF75AFE03469AB237
:1005900064230549054809F099FD00BF0837BD46A9
:1005A00080BD00BFF46301082CB70120FCB9012015
:1005B00080B582B000AF78607A680949094814F0C4
:1005C00091FD0848FFF73CFE03469AB264230549B3
:1005D000054809F07BFD00BF0837BD4680BD00BF60
:1005E000FC6301082CB70120FCB9012080B500AFE5
:1005F00001F09FFD00F054F800F0CCFA00F070FA22
:1006000000F022F900F0D4F900F06AF900F0B2F934
:100610000CF000FC0346002B01D001F011F800F0B3
:1006200093F800F011FA00F0CFF800F019F900F09B
:1006300015FC00F0B7FB1048FFF7BAFF11F09AFA6B
:100640000E4B002201210E4811F0A0FB03460D4A7B
:1006500013600D4A00210D4811F0D6FA03460C4AEA
:1006600013600C4A00210C4811F0CEFA03460B4AE5
:10067000136011F0A3FAFEE724640108A0660108E4
:10068000F5150008FCBB012058660108B90E0008EA
:10069000F4BB01207C660108F90E0008F8BB0120BC
:1006A00080B598B000AF07F1180348220021184622
:1006B00014F07BFD3B1D00221A605A609A60DA60DC
:1006C0001A61002004F06EFB0346002B01D000F0FD
:1006D000B7FF0A23BB614FF480737B6200233B6347
:1006E0004023BB620123FB6202237B640223BB64C1
:1006F0000123FB6415233B6507237B650823BB654A
:100700000423FB6507F11803184604F0DBFB0346DE
:10071000002B01D000F094FF0F237B600323BB600C
:100720000023FB6000233B6100237B613B1D042110
:10073000184605F09DF80346002B01D000F080FF1D
:1007400000BF6037BD4680BD80B500AF1B4B1C4A63
:100750001A601A4B1B4A5A60184B00229A60174BBA
:100760000122DA60154B00221A61144B00225A61F3
:10077000124B00229A61114B0022DA610F4B0022CA
:100780001A620E4802F0B0FA0346002B01D000F0C6
:1007900057FF0021094803F02DFD0346002B01D02F
:1007A00000F04EFF0021054803F06FFD0346002BCB
:1007B00001D000F045FF00BF80BD00BF58B8012048
:1007C000005400404B36A05080B500AF1B4B1C4A74
:1007D0001A601A4B1B4A5A60184B00229A60174B3A
:1007E0000122DA60154B00221A61144B00225A6173
:1007F000124B00229A61114B0022DA610F4B00224A
:100800001A620E4802F070FA0346002B01D000F085
:1008100017FF0021094803F0EDFC0346002B01D02F
:1008200000F00EFF0021054803F02FFD0346002BCA
:1008300001D000F005FF00BF80BD00BFACB80120B3
:1008400000840040A06F902080B500AF03F06AFDE7
:100850000346002B01D000F0F3FE00BF80BD000076
:1008600080B500AF1C4B1D4A1A601B4B01225A6019
:10087000194B00229A60184B4FF00072DA60164B49
:1008800017221A61144B02225A61134B00229A61FB
:10089000114B0022DA61104B00221A620E4B01222A
:1008A0005A620D4B4FF080429A620B4B0022DA6283
:1008B000094B00221A63084B00225A63064B4FF47F
:1008C000F1729A63044803F03DFD0346002B01D00A
:1008D00000F0B6FE00BF80BD00B901200010024448
:1008E00080B586B000AF3B4600221A605A609A601D
:1008F000DA601A615A611D4B1D4A1A601B4B0022B7
:100900005A601A4B7F229A60184BFF22DA60174B0D
:1009100000221A61154B00225A61144B00229A6181
:10092000124B4FF08042DA61104B00221A620F48DE
:1009300007F020F90346002B01D000F081FE0023D0
:100940003B600023FB6000233B6100237B613B464F
:100950001946064807F01EFC0346002B01D000F0A4
:100960006FFE00BF1837BD4680BD00BF58B90120DB
:100970000028004080B400AF0B4B0C4A1A600A4BB1
:1009800000225A60084B00229A60074B4FF48042C5
:10099000DA60054B00221A61034B00225A6100BF46
:1009A000BD465DF8047B704780B9012000800C4291
:1009B00080B500AF224B234A1A60214B4FF4E1323D
:1009C0005A601F4B00229A601D4B0022DA601C4BBC
:1009D00000221A611A4B0C225A61194B00229A61AB
:1009E000174B0022DA61164B00221A62144B0022C8
:1009F0005A62134B00229A62114809F017FB034612
:100A0000002B01D000F01CFE00210D480BF06DFB07
:100A10000346002B01D000F013FE002108480BF024
:100A2000A2FB0346002B01D000F00AFE04480BF0A5
:100A300023FB0346002B01D000F002FE00BF80BD67
:100A4000FCB901200038014080B500AF224B234A99
:100A50001A60214B4FF4E1325A601F4B00229A601A
:100A60001D4B0022DA601C4B00221A611A4B0C222B
:100A70005A61194B00229A61174B0022DA61164B1A
:100A800000221A62144B00225A62134B00229A620F
:100A9000114809F0CBFA0346002B01D000F0D0FD3D
:100AA00000210D480BF021FB0346002B01D000F084
:100AB000C7FD002108480BF056FB0346002B01D070
:100AC00000F0BEFD04480BF0D7FA0346002B01D01E
:100AD00000F0B6FD00BF80BD90BA01200044004088
:100AE00080B582B000AF284B9B6C274A43F00403CB
:100AF0009364254B9B6C03F004037B607B68224B63
:100B00009B6C214A43F0010393641F4B9B6C03F0E1
:100B100001033B603B681D4B1D4A1A601B4B0022C2
:100B20005A601A4B4FF480429A60184B4022DA60A8
:100B3000164B80221A61154B00225A61134B00227A
:100B40009A61124B0022DA61104B00221A620F48A0
:100B500001F02EFC0346002B01D000F071FD1021A6
:100B60000A4801F096FE0346002B01D000F068FD14
:100B7000002205211D2001F0F3FB1D2001F00AFCDD
:100B800000BF0837BD4680BD001002408CBB01206D
:100B90001C00024080B58AB000AF07F114030022A8
:100BA0001A605A609A60DA601A61324BDB6C314A23
:100BB00043F01003D3642F4BDB6C03F010033B6155
:100BC0003B692C4BDB6C2B4A43F00103D364294B6C
:100BD000DB6C03F00103FB60FB68264BDB6C254AF2
:100BE00043F00203D364234BDB6C03F00203BB60CE
:100BF000BB68204BDB6C1F4A43F00803D3641D4BDA
:100C0000DB6C03F008037B607B681A4BDB6C194AD2
:100C100043F00403D364174BDB6C03F004033B6025
:100C20003B6800220821144802F046F808237B6143
:100C30000123BB610023FB6100233B6207F1140326
:100C400019460D4801F0B8FE4FF440637B61022362
:100C5000BB610023FB6100233B6208237B6207F139
:100C600014031946054801F0A7FE00BF2837BD460A
:100C700080BD00BF0010024000100242000402428A
:100C800080B483B000AF7860044B01221A6000BFCB
:100C90000C37BD465DF8047B704700BF281002206A
:100CA00080B483B000AF7860044B01221A6000BFAB
:100CB0000C37BD465DF8047B704700BF241002204E
:100CC00080B582B000AF78607B685B6B19460A48DC
:100CD000FFF74EFC094B1B685B6B19460848FFF792
:100CE00047FC064B1B685B6819460648FFF740FC4B
:100CF00000BF0837BD4680BD3464010880B90120BB
:100D0000386401084064010880B582B000AF7860A3
:100D10007B681E4A934235D11D4B1B780D2B02D1A7
:100D20001B4B00221A701B4B1B68194A11781A4A78
:100D3000D154174B1B78002B0ED1164B00221A6092
:100D4000164B1B68022B03D0144B1B68042B14D1C9
:100D5000124B05221A6010E00E4B1B6801330D4A3E
:100D600013600C4B1A680E4BA3FB02135B09642142
:100D700001FB03F3D31A074A136001220449034815
:100D800009F032FA00BF0837BD4680BD90BA012095
:100D900020100220840A0220200A02201C100220B7
:100DA0001F85EB5180B596B000AF0023FB60032395
:100DB0007B610023BB610023FB614FF440737B62C6
:100DC0004FF40053BB620023FB6200237B634FF0B0
:100DD00040733B640023BB6400237B6500233B62BC
:100DE00001237B640123BB60EB233B610623FB648F
:100DF00007F1080341F288321946174803F09EFCB8
:100E00000346002B01D000F01BFC0223BB603823FB
:100E10003B610023FB644FF000533B6507F108037F
:100E200041F2883219460C4803F088FC0346002B37
:100E300001D000F005FC00233B603B461946064804
:100E400003F009FD0346002B01D000F0F9FB00BFC1
:100E50005837BD4680BD00BF00B9012080B594B0B1
:100E600000AF00233B6000237B603523BB60012380
:100E7000FB6000233B6100237B610023FB610023B7
:100E8000FB620023BB6300237B640023BB6400235D
:100E9000FB643B4641F288321946064803F04EFC9B
:100EA0000346002B01D000F0CBFB00BF5037BD46FE
:100EB00080BD00BF00B9012080B582B000AF78606E
:100EC000094B00221A6001220849094809F08CF9EF
:100ED00064234C220749064809F0F8F84FF47A7069
:100EE00010F024FFF4E700BF840A02202010022043
:100EF00090BA012048B60120F0B59BB00AAFF86067
:100F000000233B63C82010F011FF642306228949A7
:100F1000894809F0DBF812F093FBF8628748FFF785
:100F200047FB874B4FF010421A600023BB6318E069
:100F30000023FB870DE0FA8F814B1B6881498A5C97
:100F40001A707F4B1B6801337D4A1360FB8F01339E
:100F5000FB87FB8F42F20F729342ECD9BB6B0133DC
:100F6000BB63BB6B002BE3DD7748FFF721FB744BC2
:100F70004FF010421A6000237B6329E00023FB87B7
:100F80001EE06F4B1968642301226B4809F09EF83C
:100F90006B4B1B681B78DAB2FB8F6A49CB5C9A42B9
:100FA00006D06A48FFF704FB4FF47A7010F0BEFEDB
:100FB000634B1B680133624A1360FB8F0133FB876D
:100FC000FB8F42F20F729342DBD97B6B01337B6361
:100FD0007B6B002BD2DD12F033FBB862BA6AFB6A7E
:100FE000D31A7B627A6A5A495A4814F07BF85948F6
:100FF000FFF726F903469AB2642356494E4809F092
:1010000065F85548FFF7D4FA4D4B4FF010421A607F
:101010000122524952480FF09FFB03461A46514B9A
:101020001A70504B1B7819464F48FFF7A1FA01225E
:101030004E494F480FF0F4FB03461A46494B1A70CD
:10104000484B1B7819464B48FFF792FA4A4B42F23D
:1010500010724A4946480FF0CDFE03461A46414BEE
:101060001A70434810F093FB03461A463D4B1A7022
:101070003C4B1B7819464248FFF77AFA304B4FF049
:1010800010421A6032223F4939480FF0C9FB03462B
:101090001A46344B1A70334B1B7819463A48FFF7FF
:1010A00067FA3A4B42F210723449314810F049F86D
:1010B00003461A462B4B1A702D4810F068FB294B3B
:1010C0001B7819462E48FFF753FA12F0B9FAB862A6
:1010D000BA6AFB6AD31A7B627A6A2D491D4814F0FA
:1010E00001F81C48FFF7ACF803469AB2642319498B
:1010F000114808F0EBFF642300930223254AD42112
:10110000254801F081FE254B01221A60234B1B6804
:10111000052B00F2338201A252F823F07D1500085E
:10112000871200087D1500085715000835130008C0
:10113000A111000848640108FCB9012050640108AD
:1011400018100220000000205C6401086864010897
:1011500074640108880A022080640108946401080C
:10116000700B02200810022098640108A064010896
:10117000B00D0220B06401081410022000BC012050
:10118000B8640108C0640108D0640108101002208E
:10119000DC6401089CB60120ACB801201C100220C0
:1011A0005648FFF705FA5649544814F007F83862D4
:1011B00000220021386A13F0DBFE0346DAB2514BFD
:1011C0009A704F49002013F0F9FF38620022002185
:1011D000386A13F0CDFE0346DAB24A4B5A704A49D8
:1011E000002013F0EBFF386200220021386A13F070
:1011F000BFFE0346DAB2434BDA704449002013F0D5
:10120000DDFF386200220021386A13F0B1FE034688
:10121000DAB23F4B9A703D49002013F0CFFF38629D
:1012200000220021386A13F0A3FE0346DAB2384BDD
:101230005A703549002013F0C1FF386200220021A6
:10124000386A13F095FE0346DAB2314B1A702E4914
:10125000002013F0B3FF386200220021386A13F037
:1012600087FE0346DAB2274B1A7000222849294824
:1012700006F0F8FC00222349264806F0E5FD264B3F
:1012800002221A607AE100222149224806F080FDFC
:1012900000221C491F4806F05DFE1A4B9B781C4635
:1012A000184B5B781D46174BDB781A46184B1B789A
:1012B0001946174B5B781846154B9B7803930290A1
:1012C000019100922B4622461449154813F00AFF5B
:1012D0003222134913480FF0A3FA134B0622134985
:1012E00010480FF02EFF124B1B686421184610F0B7
:1012F000C9FD094B02221A6040E100BF200A02200A
:10130000E8640108640B0220EC640108F064010841
:10131000500B022058B901201C100220F46401086F
:10132000880A0220B00D0220101002204864010833
:10133000FCBB012000229349934806F029FD0022BE
:101340009249914806F006FE8E4B9A688D4B5B6879
:10135000D31A4FF47A7203FB02F28A4B9B68013373
:10136000B2FBF3F3FB61642300930123884AD42189
:10137000884801F049FD642300930123864AD42163
:10138000844801F035FE642300930123834AD4216D
:10139000804801F039FD824A642300930123D4215F
:1013A0007C4801F025FE6423009301237D4AD4216B
:1013B000784801F029FD7C4A642300930123D4215D
:1013C000744801F015FE642300930123774AD42169
:1013D000704801F019FD764A642300930123D4215B
:1013E0006C4801F005FE642300930123714AD42167
:1013F000684801F009FD704A642300930123D42159
:10140000644801F0F5FD6423009301236B4AD42165
:10141000604801F0F9FC6A4A642300930123D42157
:101420005C4801F0E5FD5C4B5B781B021AB25A4B3D
:101430001B781BB213437B83574BDB781B021AB21A
:10144000554B9B781BB213433B83534B5B791B0279
:101450001AB2514B1B791BB21343FB8264230093D6
:101460000123584A8021584801F0CEFC0F2010F08B
:101470005DFC642300930523474A8021524801F014
:10148000B7FD454B5B781B021AB2434B9B781BB2EE
:1014900013431BB29AB24D4B1A803F4BDB781B02B1
:1014A0001AB23D4B1B791BB213431BB29AB2484B85
:1014B0001A80364B9B789C46344B5B789E46334B68
:1014C000DB7818462F4B1B781C462E4B5B781D464D
:1014D0002C4B9B781E463D4B1B88BB603C4B1B88AE
:1014E0007B60B7F91A30B7F91820B7F916100991CF
:1014F000089207937A680692BB680593FB69049388
:101500000396029501940090734662463149324831
:1015100013F0E8FD3048FEF793FE02462F4B2E49AC
:101520002F480FF00EFE03461A462E4B1A70142059
:1015300010F0FCFB2A480FF0E7FF142010F0F6FB38
:101540002548FFF735F8284B1B68052B15D0264B8F
:1015500002221A6011E0254B1B68184610F0C0FCEF
:101560001F4810F014F9142010F0E0FB2048FFF79A
:101570001FF81D4B00221A6000E000BF012010F090
:10158000D5FBC3E5500B022058B90120640B0220A3
:1015900095B60120ACB80120680B022096B6012058
:1015A000690B022097B601206A0B022098B6012031
:1015B0006B0B022099B601206C0B02209AB6012019
:1015C0006D0B022094B6012058B801200A100220A9
:1015D0000C10022018650108880A02201010022051
:1015E000B00D0220081002201C100220FCBB0120BC
:1015F0004C65010880B483B000AF7860064B1B686F
:10160000022B02D1044B04221A6000BF0C37BD46E6
:101610005DF8047B704700BF1C10022080B582B0CB
:1016200000AF78607B681B68044A934201D100F0E8
:101630009BFD00BF0837BD4680BD00BF002C0140A8
:1016400080B500AF642303220449054808F03EFD3D
:1016500072B600BF0348FEF7ABFFFEE7586501080E
:10166000FCB901205C65010880B582B000AF124B67
:101670001B6E114A43F0010313660F4B1B6E03F000
:1016800001037B607B680C4B9B6D0B4A43F08053DE
:101690009365094B9B6D03F080533B603B680022D0
:1016A00007216FF0010000F05BFE03F0D7FB00BFE5
:1016B0000837BD4680BD00BF0010024080B5B0B005
:1016C00000AF786007F1AC0300221A605A609A609C
:1016D000DA601A6107F1180394220021184613F00A
:1016E00064FD7B681B684A4A93424BD14023BB612F
:1016F00000237B6607F11803184604F0CFFB03466E
:10170000002B01D0FFF79CFF424BDB6C414A43F0BA
:101710000203D3643F4BDB6C03F002037B617B6904
:10172000C023C7F8AC301223C7F8B0300023C7F885
:10173000B4300023C7F8B8300423C7F8BC3007F131
:10174000AC031946344801F037F9324B9B6D314AEE
:1017500043F4001393652F4B9B6D03F400133B611F
:101760003B6900220521372000F0FAFD372000F008
:1017700011FE00220521382000F0F2FD382000F093
:1017800009FE41E07B681B68244A93423CD14FF438
:101790008013BB6100233B6707F11803184604F070
:1017A0007DFB0346002B01D0FFF74AFF194BDB6C92
:1017B000184A43F00803D364164BDB6C03F00803AC
:1017C000FB60FB684FF44053C7F8AC301223C7F8F6
:1017D000B0300023C7F8B4300023C7F8B830042372
:1017E000C7F8BC3007F1AC0319460D4801F0E4F826
:1017F000084BDB6D074A43F00203D365054BDB6DF5
:1018000003F00203BB60BB6800BFC037BD4680BDAC
:1018100000540040001002400004024200840040D6
:10182000000C024280B5AEB000AF786007F1A403AF
:1018300000221A605A609A60DA601A6107F1100398
:1018400094220021184613F0B0FC7B681B68274ADD
:10185000934246D14FF080733B614FF40013C7F8B9
:101860009C3007F11003184604F018FB0346002BC8
:1018700001D0FFF7E5FE1E4B1B6D1D4A43F480733C
:1018800013651B4B1B6D03F48073FB60FB68184BE7
:10189000DB6C174A43F01003D364154BDB6C03F089
:1018A0001003BB60BB684FF47C43C7F8A43002232D
:1018B000C7F8A8300023C7F8AC300323C7F8B0300E
:1018C0000A23C7F8B43007F1A4031946094801F008
:1018D00073F8002205214C2000F042FD4C2000F05E
:1018E00059FD00BFB837BD4680BD00BF001002449F
:1018F000001002400010024280B5A8B000AF78602E
:1019000007F10C0394220021184613F04EFC7B686B
:101910001B68164A934224D14FF40033FB604FF406
:101920000073C7F89C3007F10C03184604F0B6FAB0
:101930000346002B01D0FFF783FE0D4BD3F8903008
:101940000B4A43F40043C2F89030094B9B6D084AA0
:1019500043F480639365064B9B6D03F48063BB6027
:10196000BB6800BFA037BD4680BD00BF0028004057
:101970000010024080B5B0B000AF786007F1AC0352
:1019800000221A605A609A60DA601A6107F118033F
:1019900094220021184613F008FC7B681B68374A24
:1019A000934267D14FF40023BB614FF48043C7F8E3
:1019B000903007F11803184604F070FA0346002B24
:1019C00001D0FFF73DFE2E4BDB6C2D4A43F4800324
:1019D000D3642B4BDB6C03F480037B617B69284B66
:1019E000DB6C274A43F00403D364254BDB6C03F024
:1019F00004033B613B69224BDB6C214A43F0080343
:101A0000D3641F4BDB6C03F00803FB60FB684FF4EF
:101A1000F853C7F8AC300223C7F8B0300023C7F83A
:101A2000B4300323C7F8B8300C23C7F8BC3007F133
:101A3000AC031946134800F0BFFF0423C7F8AC30CD
:101A40000223C7F8B0300023C7F8B4300323C7F827
:101A5000B8300C23C7F8BC3007F1AC0319460A486C
:101A600000F0AAFF002205214E2000F079FC4E2054
:101A700000F090FC00BFC037BD4680BD00800C4226
:101A80000010024000080242000C024280B5B0B0D3
:101A900000AF786007F1AC0300221A605A609A60C8
:101AA000DA601A6107F1180394220021184613F036
:101AB0007CFB7B681B68634A934276D10123BB6140
:101AC0000023FB6407F11803184604F0E7F9034606
:101AD000002B01D0FFF7B4FD5B4B1B6E5A4A43F459
:101AE00080431366584B1B6E03F480437B617B6914
:101AF000554BDB6C544A43F00103D364524BDB6C0F
:101B000003F001033B613B694FF4C063C7F8AC309D
:101B10000223C7F8B0300023C7F8B4300023C7F859
:101B2000B8300723C7F8BC3007F1AC031946474863
:101B300000F042FF464B474A1A60454B1A225A6052
:101B4000434B10229A60424B0022DA60404B8022C5
:101B50001A613F4B00225A613D4B00229A613C4B77
:101B60000022DA613A4B00221A62394800F020FC68
:101B70000346002B01D0FFF763FD1021344800F02D
:101B800088FE0346002B01D0FFF75AFD7B68304AE0
:101B9000DA672F4A7B689362002205213D2000F01E
:101BA000DFFB3D2000F0F6FB47E07B681B682A4A1C
:101BB000934242D10223BB6100233B6507F1180326
:101BC000184604F06BF90346002B01D0FFF738FDEF
:101BD0001D4B9B6D1C4A43F4003393651A4B9B6D60
:101BE00003F40033FB60FB68174BDB6C164A43F0D1
:101BF0000103D364144BDB6C03F00103BB60BB68CF
:101C00000C23C7F8AC300223C7F8B0300023C7F864
:101C1000B4300023C7F8B8300723C7F8BC3007F149
:101C2000AC031946094800F0C7FE002205213E20FA
:101C300000F096FB3E2000F0ADFB00BFC037BD4674
:101C400080BD00BF00380140001002400000024289
:101C500024BB0120080002400044004080B58CB045
:101C600000AF78600023FB620023BB62002279682A
:101C70002A2000F075FB2A2000F08CFB1E4B1B6E07
:101C80001D4A43F4006313661B4B1B6E03F4006391
:101C9000FB60FB6807F1100207F1140311461846B8
:101CA00003F0F8FF03F0E2FFF862FB6A134AA2FBBD
:101CB00003239B0C013BBB62114B124A1A60104B71
:101CC00040F2E732DA600E4ABB6A53600C4B0022E6
:101CD0001A610B4B00229A60094807F0D5FE0346B3
:101CE000002B04D1064807F031FF034600E0012332
:101CF00018463037BD4680BD0010024083DE1B43CE
:101D00002C100220002C014080B400AFFEE780B40C
:101D100000AFFEE780B400AFFEE780B400AFFEE79F
:101D200080B400AFFEE780B400AF00BFBD465DF8F1
:101D3000047B704780B500AF024800F09CFC00BFF8
:101D400080BD00BF24BB012080B500AF024807F072
:101D50006DFF00BF80BD00BF2C10022080B500AF1A
:101D6000024801F03BFA00BF80BD00BF58B8012017
:101D700080B500AF024801F04BFA00BF80BD00BF44
:101D800058B8012080B500AF024808F079FA00BFCA
:101D900080BD00BFFCB9012080B500AF024808F04B
:101DA0006FFA00BF80BD00BF90BA012080B500AFC0
:101DB000024802F081FB00BF80BD00BF00B90120D6
:101DC00080B500AF024806F079FC00BF80BD00BFBF
:101DD00080B9012080B400AF01231846BD465DF8EC
:101DE000047B704780B582B000AF7860396013F033
:101DF000DDFA034616221A604FF0FF331846083703
:101E0000BD4680BD80B582B000AF78604FF0FF3135
:101E10007868FFF7E7FFFEE780B586B000AFF860AF
:101E2000B9607A6000237B610AE0AFF3008001466D
:101E3000BB685A1CBA60CAB21A707B6901337B61F5
:101E40007A697B689A42F0DB7B6818461837BD4692
:101E500080BD80B586B000AFF860B9607A600023BD
:101E60007B6109E0BB685A1CBA601B781846AFF367
:101E700000807B6901337B617A697B689A42F1DB80
:101E80007B6818461837BD4680BD80B483B000AF6C
:101E900078604FF0FF3318460C37BD465DF8047B81
:101EA000704780B483B000AF786039603B684FF40E
:101EB00000525A60002318460C37BD465DF8047B7B
:101EC000704780B483B000AF7860012318460C37A8
:101ED000BD465DF8047B704780B485B000AFF86004
:101EE000B9607A60002318461437BD465DF8047B5C
:101EF0007047000080B586B000AF7860144A154B7B
:101F0000D31A7B617B693B61134B1B68002B02D1A9
:101F1000114B124A1A60104B1A687B6813443A69D5
:101F20009A4207D213F042FA03460C221A604FF08D
:101F3000FF3309E0084B1B68FB60074B1A687B689E
:101F40001344054A1360FB6818461837BD4680BD28
:101F5000000003200010000078100220685E0220BC
:101F600080B400AF064BD3F88830054A43F47003C1
:101F7000C2F8883000BFBD465DF8047B704700BFE3
:101F800000ED00E080B487B000AF4F4B1B6803F05A
:101F90000803002B07D14C4BD3F894301B0A03F0F5
:101FA0000F037B6105E0484B1B681B0903F00F031F
:101FB0007B61464A7B6952F823307B61424B9B68C8
:101FC00003F00C030C2B66D801A252F823F000BFDB
:101FD0000520000897200008972000089720000897
:101FE0000D2000089720000897200008972000087F
:101FF0001520000897200008972000089720000867
:102000001D200008324A7B69136048E0304B314A9A
:102010001A6044E02E4B304A1A6040E02A4BDB68DD
:1020200003F00303FB60284BDB681B0903F00F037D
:102030000133BB60FB68022B03D0FB68032B06D087
:102040000BE0244ABB68B2FBF3F33B610BE0224A8E
:10205000BB68B2FBF3F33B6105E07A69BB68B2FB96
:10206000F3F33B6100BF184BDB681B0A03F07F02F0
:102070003B6902FB03F33B61134BDB685B0E03F030
:10208000030301335B007B603A697B68B2FBF3F3C7
:102090000F4A136003E00E4A7B69136000BF0A4BCE
:1020A0009B681B0903F00F030C4AD35C3B60084B91
:1020B0001A683B6822FA03F3054A136000BF1C3715
:1020C000BD465DF8047B704700100240C8660108F9
:1020D000A0B601200024F40080969800B0660108A4
:1020E000DFF834D0FFF73CFF002103E00B4B5B58D7
:1020F000435004310A480B4B42189A42F6D30A4A1D
:1021000002E0002342F8043B084B9A42F9D313F053
:1021100053F9FEF76BFAFEE700000320786D010823
:10212000000000200CB7012010B70120685E0220DB
:10213000FEE780B582B000AF0023FB71042000F001
:1021400004F9FFF71FFF0720FFF788FD0346002B68
:1021500002D00123FB7101E0FFF786FAFB791846F4
:102160000837BD4680BD000080B400AF064B1B7829
:102170001A46064B1B681344044A136000BFBD4651
:102180005DF8047B704700BFA8B601207C100220D8
:1021900080B400AF034B1B681846BD465DF8047B56
:1021A000704700BF7C10022080B584B000AF78601B
:1021B000FFF7EEFFB8607B68FB60FB68B3F1FF3FA1
:1021C00005D00A4B1B781A46FB681344FB6000BF1E
:1021D000FFF7DEFF0246BB68D31AFA689A42F7D8C7
:1021E00000BF00BF1037BD4680BD00BFA8B60120AC
:1021F00080B485B000AF78607B6803F00703FB60B4
:102200000C4BDB68BB60BA684FF6FF031340BB6042
:10221000FB681A02BB68134343F0BF6343F4003307
:10222000BB60044ABB68D36000BF1437BD465DF88D
:10223000047B704700ED00E080B400AF044BDB6826
:102240001B0A03F007031846BD465DF8047B704780
:1022500000ED00E080B483B000AF0346FB7197F956
:102260000730002B0BDBFB7903F01F02074997F9BE
:1022700007305B09012000FA02F241F8232000BF79
:102280000C37BD465DF8047B704700BF00E100E0FD
:1022900080B483B000AF03463960FB7197F9073013
:1022A000002B0ADB3B68DAB20C4997F90730520180
:1022B000D2B20B4483F800230AE03B68DAB2084943
:1022C000FB7903F00F03043B5201D2B20B441A76A0
:1022D00000BF0C37BD465DF8047B704700E100E0AD
:1022E00000ED00E080B489B000AFF860B9607A60BA
:1022F000FB6803F00703FB61FB69C3F10703032BD2
:1023000028BF0323BB61FB690333062B02D9FB699A
:10231000043B00E000237B614FF0FF32BB6902FA0F
:1023200003F3DA43BB681A407B699A404FF0FF31F0
:102330007B6901FA03F3D9437B680B4013431846CA
:102340002437BD465DF8047B704780B582B000AF8E
:1023500078607868FFF74CFF00BF0837BD4680BD46
:1023600080B586B000AF0346B9607A60FB73FFF7B3
:1023700063FF78617A68B9687869FFF7B3FF02464E
:1023800097F90F3011461846FFF782FF00BF183744
:10239000BD4680BD80B582B000AF0346FB7197F9A2
:1023A00007301846FFF756FF00BF0837BD4680BD0F
:1023B00080B584B000AF78607B68002B01D1012329
:1023C0008DE07B681B681A46474B9A420FD87B68A2
:1023D0001B681A46454B1344454AA2FB03231B09BD
:1023E0009A007B68DA647B68424A9A640EE07B68F4
:1023F0001B681A46404B13443D4AA2FB03231B09AA
:102400009A007B68DA647B683C4A9A647B680222A3
:1024100083F825207B681B681B68FB60FB6823F43E
:10242000FF3323F4F873FB607B689A687B68DB6892
:102430001A437B681B691A437B685B691A437B6894
:102440009B691A437B68DB691A437B681B6A1343E9
:10245000FA681343FB607B681B68FA681A60786847
:1024600000F048FA7B689B68B3F5804F02D17B6827
:1024700000225A607B685A687B681B6DD2B21A6072
:102480007B685B6D7A68926D5A607B685B68002B35
:1024900010D07B685B68042B0CD8786800F068FA71
:1024A0007B68DB6D00221A607B681B6E7A68526E57
:1024B0005A6008E07B680022DA657B6800221A66B1
:1024C0007B6800225A667B6800225A647B6801227E
:1024D00083F825207B68002283F8242000231846F7
:1024E0001037BD4680BD00BF07040240F8FFFDBFA6
:1024F000CDCCCCCC00000240F8FBFDBF0004024074
:1025000080B485B000AF78600023FB737B6893F8DC
:102510002530DBB2022B08D07B6804225A647B682A
:10252000002283F82420012340E07B681B681A689E
:102530007B681B6822F00E021A607B681B6D1A68AC
:102540007B681B6D22F480721A607B681B681A68B6
:102550007B681B6822F001021A607B68DB6C03F069
:102560001C027B689B6C012101FA02F25A607B68B5
:102570005B6D7A68926D5A607B68DB6D002B0CD0C6
:102580007B68DB6D1A687B68DB6D22F480721A60F1
:102590007B681B6E7A68526E5A607B68012283F8F2
:1025A00025207B68002283F82420FB7B1846143703
:1025B000BD465DF8047B704780B584B000AF78609D
:1025C0000023FB737B6893F82530DBB2022B05D028
:1025D0007B6804225A640123FB7347E07B681B6815
:1025E0001A687B681B6822F00E021A607B681B6801
:1025F0001A687B681B6822F001021A607B681B6DF9
:102600001A687B681B6D22F480721A607B68DB6C31
:1026100003F01C027B689B6C012101FA02F25A60F4
:102620007B685B6D7A68926D5A607B68DB6D002B0E
:102630000CD07B68DB6D1A687B68DB6D22F48072DE
:102640001A607B681B6E7A68526E5A607B68012242
:1026500083F825207B68002283F824207B681B6C8C
:10266000002B03D07B681B6C78689847FB7B18466F
:102670001037BD4680BD80B584B000AF78607B6800
:102680009B6C1B68FB607B681B681B68BB607B687E
:10269000DB6C03F01C0304229A40FB681340002B00
:1026A00053D0BB6803F00403002B4ED07B681B683B
:1026B0001B6803F40043002B24D07B68DB6C03F021
:1026C0001C027B689B6C042101FA02F25A607B6851
:1026D0001B681B6803F48033002B09D17B681B6BDC
:1026E000002B00F0C0807B681B6B78689847BAE0CD
:1026F0007B689B6B002B00F0B6807B689B6B7868D7
:102700009847B0E07B681B681B6803F02003002B30
:1027100007D17B681B681A687B681B6822F004027B
:102720001A607B68DB6C03F01C027B689B6C0421E5
:1027300001FA02F25A607B681B6B002B00F0938059
:102740007B681B6B786898478DE07B68DB6C03F0D7
:102750001C0302229A40FB681340002B4ED0BB683A
:1027600003F00203002B49D07B681B681B6803F44D
:102770000043002B18D07B681B681B6803F4803370
:10278000002B08D17B685B6B002B6ED07B685B6B8A
:102790007868984769E07B68DB6A002B65D07B68C6
:1027A000DB6A7868984760E07B681B681B6803F009
:1027B0002003002B0BD17B681B681A687B681B68A1
:1027C00022F00A021A607B68012283F825207B68C8
:1027D000DB6C03F01C027B689B6C022101FA02F2A5
:1027E0005A607B68002283F824207B68DB6A002B18
:1027F0003BD07B68DB6A7868984736E07B68DB6CA7
:1028000003F01C0308229A40FB681340002B2ED0D3
:10281000BB6803F00803002B29D07B681B681A688B
:102820007B681B6822F00E021A607B68DB6C03F089
:102830001C027B689B6C012101FA02F25A607B68E2
:1028400001225A647B68012283F825207B680022DC
:1028500083F824207B68DB6B002B08D07B68DB6B64
:102860007868984702E000BF00E000BF00BF00BFEB
:102870001037BD4680BD80B483B000AF78607B6800
:1028800093F82530DBB218460C37BD465DF8047B63
:10289000704780B485B000AF786039600023FB7268
:1028A0007B68002B03D10123FB72FB7A1BE07B6862
:1028B0001B681B68FB603B6803F01003002B0DD006
:1028C0003B6803F48013002B04D0FB6843F48013AF
:1028D000FB6003E0FB6823F48013FB607B681B68EC
:1028E000FA681A60FB7A18461437BD465DF8047B17
:1028F0007047000080B485B000AF78607B681B68CB
:102900001A46174B9A420AD87B68DB6C9B089B00DF
:1029100003F1804303F502337A68136507E07B68AF
:10292000DB6C9B089A000F4B13447A6813657B6835
:102930001B68DBB2083B0C4AA2FB03231B09FB60AC
:102940007B680A4A5A65FB6803F01F0301229A401C
:102950007B689A6500BF1437BD465DF8047B7047FD
:102960000704024020080240CDCCCCCC80080240B5
:1029700080B485B000AF78607B685B68DBB2FB60D9
:10298000FA680B4B13449B001A467B68DA657B6838
:10299000084A1A66FB68013B03F0030301229A40D0
:1029A0007B685A6600BF1437BD465DF8047B7047EC
:1029B0003F8200104009024080B487B000AF7860C9
:1029C000396000237B6158E13B681A6801217B690B
:1029D00001FA03F31340FB60FB68002B00F04A810F
:1029E0003B685B6803F00303012B05D03B685B6821
:1029F00003F00303022B30D17B689B683B617B694A
:102A00005B00032202FA03F3DB433A6913403B61A4
:102A10003B68DA687B695B0002FA03F33A691343A7
:102A20003B617B683A699A607B685B683B61012225
:102A30007B6902FA03F3DB433A6913403B613B686D
:102A40005B681B0903F001027B6902FA03F33A6930
:102A500013433B617B683A695A603B685B6803F0EB
:102A60000303032B17D07B68DB683B617B695B004A
:102A7000032202FA03F3DB433A6913403B613B68EC
:102A80009A687B695B0002FA03F33A6913433B617E
:102A90007B683A69DA603B685B6803F00303022BEA
:102AA00023D17B69DA087B68083253F822303B6116
:102AB0007B6903F007039B000F2202FA03F3DB4359
:102AC0003A6913403B613B681A697B6903F007036D
:102AD0009B0002FA03F33A6913433B617B69DA080E
:102AE0007B680832396943F822107B681B683B61B8
:102AF0007B695B00032202FA03F3DB433A6913406C
:102B00003B613B685B6803F003027B695B0002FA90
:102B100003F33A6913433B617B683A691A603B6887
:102B20005B6803F44033002B00F0A4805A4A7B69B1
:102B30009B08183352F823303B617B6903F0030391
:102B4000DB000F2202FA03F3DB433A6913403B61D7
:102B50007B68524A934225D07B68514A93421FD0EA
:102B60007B68504A934219D07B684F4A934213D0F6
:102B70007B684E4A93420DD07B684D4A934207D002
:102B80007B684C4A934201D106230CE007230AE0FC
:102B9000052308E0042306E0032304E0022302E007
:102BA000012300E000237A6902F00302D20093407F
:102BB0003A6913433B6138497B699B0818333A698A
:102BC00041F82320344B1B683B61FB68DB433A69C7
:102BD00013403B613B685B6803F48013002B03D018
:102BE0003A69FB6813433B612B4A3B6913602A4BEC
:102BF0005B683B61FB68DB433A6913403B613B68C0
:102C00005B6803F40013002B03D03A69FB6813439D
:102C10003B61214A3B6953601F4BD3F884303B61D1
:102C2000FB68DB433A6913403B613B685B6803F434
:102C30000033002B03D03A69FB6813433B61164A0B
:102C40003B69C2F88430144BD3F880303B61FB6899
:102C5000DB433A6913403B613B685B6803F48033B4
:102C6000002B03D03A69FB6813433B610A4A3B6976
:102C7000C2F880307B6901337B613B681A687B69ED
:102C800022FA03F3002B7FF49FAE00BF00BF1C3776
:102C9000BD465DF8047B704700F40240000002422C
:102CA0000004024200080242000C024200100242EC
:102CB000001402420018024280B483B000AF786072
:102CC0000B467B8013467B707B78002B03D07A8881
:102CD0007B689A6102E07A887B689A6200BF0C3751
:102CE000BD465DF8047B704780B582B000AF786068
:102CF0007B68002B01D1012381E07B6893F8413090
:102D0000DBB2002B06D17B68002283F84020786874
:102D1000FEF7D4FC7B68242283F841207B681B6883
:102D20001A687B681B6822F001021A607B685A6887
:102D30007B681B6822F070621A617B681B689A6866
:102D40007B681B6822F400429A607B68DB68012B79
:102D500007D17B689A687B681B6842F400429A60DE
:102D600006E07B689A687B681B6842F404429A60BC
:102D70007B68DB68022B04D17B681B684FF4006220
:102D80005A607B681B685B687A68126843F000735E
:102D900043F4004353607B681B68DA687B681B68F8
:102DA00022F40042DA607B681A697B685B6942EA58
:102DB00003017B689B691A027B681B680A43DA601F
:102DC0007B68D9697B681A6A7B681B680A431A604A
:102DD0007B681B681A687B681B6842F001021A60F6
:102DE0007B6800225A647B68202283F841207B683C
:102DF00000221A637B68002283F8422000231846D1
:102E00000837BD4680BD000080B588B002AFF860CD
:102E10007A601A460B467B8113463B81FB6893F828
:102E20004130DBB2202B40F0DA80FB6893F8403071
:102E3000012B01D10223D3E0FB68012283F840205B
:102E4000FFF7A6F978617B690093192301224FF4FB
:102E50000041F86800F003FF0346002B01D0012376
:102E6000BEE0FB68212283F84120FB68102283F832
:102E70004220FB6800225A64FB687A685A62FB6849
:102E80003A895A85FB6800225A63FB685B8D9BB2C6
:102E9000FF2B0ED9FB68FF221A85FB681B8DDAB267
:102EA0007989514B00934FF08073F86801F012F963
:102EB0006CE0FB685B8D9AB2FB681A85FB681B8D22
:102EC000DAB27989484B00934FF00073F86801F04B
:102ED00001F95BE07A69396AF86800F00FFF034690
:102EE000002B01D001237BE0FB685B6A1A78FB684A
:102EF0001B689A62FB685B6A5A1CFB685A62FB6833
:102F00005B8D9BB2013B9AB2FB685A85FB681B8DB7
:102F1000013B9AB2FB681A85FB685B8D9BB2002B64
:102F200034D0FB681B8D002B30D17B6900933B6A4A
:102F300000228021F86800F092FE0346002B01D0A9
:102F400001234DE0FB685B8D9BB2FF2B0ED9FB6824
:102F5000FF221A85FB681B8DDAB279890023009362
:102F60004FF08073F86801F0B5F80FE0FB685B8DF7
:102F70009AB2FB681A85FB681B8DDAB27989002347
:102F800000934FF00073F86801F0A4F8FB685B8DC4
:102F90009BB2002B9ED17A69396AF86800F0F5FE81
:102FA0000346002B01D001231AE0FB681B68202296
:102FB000DA61FB681B685968FB681A680B4B0B40A9
:102FC0005360FB68202283F84120FB68002283F8CD
:102FD0004220FB68002283F84020002300E0022307
:102FE00018461837BD4680BD0020008000E800FE6E
:102FF00080B588B002AFF8607A601A460B467B81D4
:1030000013463B81FB6893F84130DBB2202B40F044
:10301000DB80FB6893F84030012B01D10223D4E020
:10302000FB68012283F84020FFF7B2F878617B69E2
:103030000093192301224FF40041F86800F00FFEBD
:103040000346002B01D00123BFE0FB68222283F856
:103050004120FB68102283F84220FB6800225A645A
:10306000FB687A685A62FB683A895A85FB680022D5
:103070005A63FB685B8D9BB2FF2B0ED9FB68FF2266
:103080001A85FB681B8DDAB27989524B00934FF099
:103090008073F86801F01EF86DE0FB685B8D9AB2F2
:1030A000FB681A85FB681B8DDAB27989494B00935E
:1030B0004FF00073F86801F00DF85CE07A69396A46
:1030C000F86800F0A5FE0346002B01D001237CE048
:1030D000FB681B685A6AFB685B6AD2B21A70FB68AD
:1030E0005B6A5A1CFB685A62FB681B8D013B9AB2F3
:1030F000FB681A85FB685B8D9BB2013B9AB2FB684B
:103100005A85FB685B8D9BB2002B34D0FB681B8D0E
:10311000002B30D17B6900933B6A00228021F86844
:1031200000F09DFD0346002B01D001234DE0FB681C
:103130005B8D9BB2FF2B0ED9FB68FF221A85FB68C3
:103140001B8DDAB27989002300934FF08073F86801
:1031500000F0C0FF0FE0FB685B8D9AB2FB681A8538
:10316000FB681B8DDAB27989002300934FF000735E
:10317000F86800F0AFFFFB685B8D9BB2002B9DD120
:103180007A69396AF86800F000FE0346002B01D026
:1031900001231AE0FB681B682022DA61FB681B68C8
:1031A0005968FB681A680C4B0B405360FB6820227F
:1031B00083F84120FB68002283F84220FB6800224C
:1031C00083F84020002300E0022318461837BD464C
:1031D00080BD00BF0024008000E800FE80B584B000
:1031E00000AF78607B681B689B69FB607B681B682D
:1031F0001B68BB607B685B6B002B05D07B685B6BDF
:10320000BA68F9687868984700BF1037BD4680BD36
:1032100080B586B000AF78607B681B689B697B6176
:103220007B681B681B683B617B6903F48073002B20
:103230000FD03B6903F08003002B0AD07B685B6CE6
:1032400043F001027B685A647B681B684FF480720C
:10325000DA617B6903F48063002B0FD03B6903F0D4
:103260008003002B0AD07B685B6C43F008027B680C
:103270005A647B681B684FF48062DA617B6903F4EF
:103280000073002B0FD03B6903F08003002B0AD0A2
:103290007B685B6C43F002027B685A647B681B6846
:1032A0004FF40072DA617B685B6CFB60FB6803F0D3
:1032B0000B03002B03D0F968786800F077FB00BFA0
:1032C0001837BD4680BD80B483B000AF786000BFC2
:1032D0000C37BD465DF8047B704780B483B000AF07
:1032E000786000BF0C37BD465DF8047B704780B442
:1032F00083B000AF78600B46FB7013463B8000BF85
:103300000C37BD465DF8047B704780B483B000AFD6
:10331000786000BF0C37BD465DF8047B704780B411
:1033200083B000AF786000BF0C37BD465DF8047B0A
:10333000704780B483B000AF786000BF0C37BD46E3
:103340005DF8047B704780B586B000AFF860B96067
:103350007A60FB68DB6A7B61BB683B61FB6893F862
:103360004030012B01D10223E1E0FB68012283F808
:1033700040203B6903F02003002B08D07B6803F05A
:103380002003002B03D03969F86800F0B5F93B69D8
:1033900003F01003002B4BD07B6803F01003002BCD
:1033A00046D0FB685B8D9BB2002B28D1FB6893F85D
:1033B0004130DBB2282B08D17B69B3F1007F04D107
:1033C0003969F86800F09EFA31E0FB6893F8413003
:1033D000DBB2292B0ED17B6913F5803F0AD0FB6845
:1033E0001B681022DA61F86800F0F7FBF86800F05B
:1033F00026F91CE0FB681B681022DA618FE0FB688D
:103400001B681022DA61FB685B6C43F00402FB6806
:103410005A647B69002B03D07B69B3F1807F7ED136
:10342000FB685B6C1946F86800F0C0FA77E076E05C
:103430003B6903F00403002B2FD07B6803F00403E7
:10344000002B2AD0FB685B8D9BB2002B18D0FB6849
:103450001B685A6AFB685B6AD2B21A70FB685B6AC7
:103460005A1CFB685A62FB681B8D013B9AB2FB68D1
:103470001A85FB685B8D9BB2013B9AB2FB685A854B
:10348000FB685B8D9BB2002B4BD17B6913F5803FB2
:1034900047D0F86800F0D3F843E03B6903F0080335
:1034A000002B09D07B6803F00803002B04D0396996
:1034B000F86800F040F835E03B6903F00203002BA8
:1034C00030D07B6803F00203002B2BD0FB685B8DB0
:1034D0009BB2002B18D0FB685B6A1A78FB681B68EC
:1034E0009A62FB685B6A5A1CFB685A62FB685B8DD8
:1034F0009BB2013B9AB2FB685A85FB681B8D013B6E
:103500009AB2FB681A850DE07B69B3F1807F02D027
:103510007B69002B06D1F86800F091F802E000BF4B
:1035200000E000BFFB68002283F84020002318461B
:103530001837BD4680BD80B584B000AF7860396073
:103540007B6893F84130DBB203F02803282B6AD163
:103550007B681B689B691B0CDBB203F00103FB73E8
:103560007B681B689B691B0C9BB203F0FE03BB814D
:103570007B681B689B689BB2C3F309037B817B68F4
:103580001B68DB689BB203F0FE033B817B68DB6852
:10359000022B38D17B89DB099AB2BB8953409BB29D
:1035A00003F00603002B1CD17B89BB817B689B6CDD
:1035B0005A1C7B689A647B689B6C022B3BD17B68AE
:1035C00000229A647B681B680822DA617B6800220B
:1035D00083F84020BA89FB7B19467868FFF787FE9D
:1035E00029E03B89BB814FF40041786800F0A4FDDD
:1035F0007B68002283F84020BA89FB7B19467868F3
:10360000FFF775FE17E04FF40041786800F094FD75
:103610007B68002283F84020BA89FB7B19467868D2
:10362000FFF765FE07E07B681B680822DA617B68AC
:10363000002283F8402000BF1037BD4680BD80B512
:1036400084B000AF78607B681B681B68FB607B6898
:10365000002283F84220FB6803F48043002B08D04B
:103660007B681B681A687B681B6822F480421A60BA
:103670000CE0FB6803F40043002B07D07B681B6859
:103680001A687B681B6822F400421A607B6893F812
:103690004130DBB2292B12D17B68282283F84120EC
:1036A0007B6821221A630121786800F045FD7B6860
:1036B000002283F840207868FFF705FE17E07B685A
:1036C00093F84130DBB22A2B11D17B68282283F892
:1036D00041207B6822221A630221786800F02CFDC9
:1036E0007B68002283F840207868FFF7F6FD00BF72
:1036F0001037BD4680BD000080B586B000AF786051
:1037000039607B681B681B683B613B687B617B6839
:1037100093F84130FB737B681B682022DA61FB7BE6
:10372000212B02D0FB7B292B08D148F201017868BC
:1037300000F002FD7B6821221A630DE0FB7B222B47
:1037400002D0FB7B2A2B07D148F20201786800F0F7
:10375000F3FC7B6822221A637B681B685A687B68CB
:103760001B6842F400425A607B681B6859687B689A
:103770001A68624B0B405360786800F02EFA3B6980
:1037800003F48043002B13D07B681B681A687B68A6
:103790001B6822F480421A607B689B6B002B1FD051
:1037A0007B689B6B1B685B689AB27B685A8517E0E5
:1037B0003B6903F40043002B12D07B681B681A6836
:1037C0007B681B6822F400421A607B68DB6B002B6D
:1037D00006D07B68DB6B1B685B689AB27B685A8596
:1037E0007B6903F00403002B20D07B6923F00403E2
:1037F0007B617B681B685A6A7B685B6AD2B21A700D
:103800007B685B6A5A1C7B685A627B681B8D002B45
:103810000CD07B681B8D013B9AB27B681A857B6854
:103820005B8D9BB2013B9AB27B685A857B685B8D4E
:103830009BB2002B05D07B685B6C43F004027B6875
:103840005A647B68002283F842207B6800225A6316
:103850007B685B6C002B10D07B685B6C19467868CA
:1038600000F0A4F87B6893F84130DBB2282B41D1FB
:103870007969786800F046F83CE07B68DB6A13F50C
:10388000803F14D07868FFF7DAFE7B681C4ADA6262
:103890007B68202283F841207B6800221A637B68C2
:1038A000002283F840207868FFF72FFD22E07B6834
:1038B00093F84130DBB2222B0ED17B68202283F8B3
:1038C00041207B6800221A637B68002283F8402035
:1038D0007868FFF702FD0DE07B68202283F8412025
:1038E0007B6800221A637B68002283F84020786896
:1038F000FFF7E9FC00BF1837BD4680BD00E800FEB9
:103900000000FFFF80B582B000AF786039607B684F
:10391000254ADA627B6800221A637B68202283F8DA
:1039200041207B68002283F842207B6800225A6392
:103930003B6803F00403002B22D07B681B685A6AA3
:103940007B685B6AD2B21A707B685B6A5A1C7B68C0
:103950005A627B681B8D002B12D07B681B8D013B4C
:103960009AB27B681A857B685B8D9BB2013B9AB2E9
:103970007B685A857B685B6C43F004027B685A6401
:1039800048F20301786800F0D7FB7B681B681022BF
:10399000DA617B68002283F840207868FFF7B5FC85
:1039A00000BF0837BD4680BD0000FFFF80B584B072
:1039B00000AF786039607B6893F84130FB737B68B7
:1039C000002283F842207B686D4ADA627B6800221D
:1039D0005A857B685A6C3B681A437B685A64FB7B48
:1039E000282B05D0FB7B292B02D0FB7B2A2B0BD16C
:1039F0000321786800F0A0FB7B68282283F841202F
:103A00007B68604A5A6330E048F20301786800F04E
:103A100093FB786800F0E1F87B6893F84130DBB203
:103A2000602B1FD07B68202283F841207B681B68B5
:103A30009B6903F02003202B14D17B681B689B69D2
:103A400003F01003102B09D17B681B681022DA6188
:103A50007B685B6C43F004027B685A647B681B687C
:103A60002022DA617B6800225A637B681B6BBB6093
:103A70007B689B6B002B39D0BB68112B02D0BB68D5
:103A8000212B33D17B681B681B6803F48043B3F59B
:103A9000804F07D17B681B681A687B681B6822F41B
:103AA00080421A607B689B6B1846FEF7E4FE034673
:103AB000012B17D07B689B6B334A1A647B6800220A
:103AC00083F840207B689B6B1846FEF775FD034624
:103AD000002B4DD07B689B6B1B6C7A68926B1046F9
:103AE000984745E0786800F051F841E07B68DB6B6F
:103AF000002B39D0BB68122B02D0BB68222B33D1EC
:103B00007B681B681B6803F40043B3F5004F07D1C3
:103B10007B681B681A687B681B6822F400421A6085
:103B20007B68DB6B1846FEF7A6FE0346012B17D019
:103B30007B68DB6B144A1A647B68002283F84020A0
:103B40007B68DB6B1846FEF737FD0346002B11D070
:103B50007B68DB6B1B6C7A68D26B1046984709E078
:103B6000786800F013F805E0786800F00FF802E0DC
:103B700000BF00E000BF00BF1037BD4680BD00BFE2
:103B80000000FFFF47330008233C000880B582B0E7
:103B900000AF78607B6893F84130DBB2602B0ED1C8
:103BA0007B68202283F841207B6800221A637B68AF
:103BB000002283F840207868FFF7BBFB09E07B68B0
:103BC00000221A637B68002283F840207868FFF7A0
:103BD000A6FB00BF0837BD4680BD80B483B000AFF0
:103BE00078607B681B689B6903F00203022B03D19A
:103BF0007B681B6800229A627B681B689B6903F0E4
:103C00000103012B07D07B681B689A697B681B68DE
:103C100042F001029A6100BF0C37BD465DF8047B9B
:103C2000704780B584B000AF78607B689B6AFB60AA
:103C3000FB689B6B002B03D0FB689B6B00221A6414
:103C4000FB68DB6B002B03D0FB68DB6B00221A6484
:103C5000F868FFF79BFF00BF1037BD4680BD80B5F9
:103C600084B000AFF860B9603B601346FB7131E08F
:103C70003B68B3F1FF3F2DD0FEF78AFA0246BB69DD
:103C8000D31A3A689A4202D33B68002B22D1FB68D0
:103C90001B689A69BB681340BA689A420CBF01233B
:103CA0000023DBB21A46FB799A4213D1FB685B6CA6
:103CB00043F02002FB685A64FB68202283F841200D
:103CC000FB68002283F84220FB68002283F8402032
:103CD00001230FE0FB681B689A69BB681340BA6850
:103CE0009A420CBF01230023DBB21A46FB799A42A9
:103CF000BED0002318461037BD4680BD80B584B0C5
:103D000000AFF860B9607A6033E07A68B968F86843
:103D100000F000F90346002B01D0012331E0BB681D
:103D2000B3F1FF3F25D0FEF733FA02467B68D31A82
:103D3000BA689A4202D3BB68002B1AD1FB681B6891
:103D40009B6903F00203022B13D0FB685B6C43F00A
:103D50002002FB685A64FB68202283F84120FB683C
:103D6000002283F84220FB68002283F840200123D0
:103D700007E0FB681B689B6903F00203022BC4D1B8
:103D8000002318461037BD4680BD80B584B000AF13
:103D9000F860B9607A602FE07A68B968F86800F076
:103DA000B9F80346002B01D001232DE0FEF7F0F90E
:103DB00002467B68D31ABA689A4202D3BB68002BCA
:103DC0001AD1FB681B689B6903F02003202B13D0DA
:103DD000FB685B6C43F02002FB685A64FB6820229E
:103DE00083F84120FB68002283F84220FB68002210
:103DF00083F84020012307E0FB681B689B6903F000
:103E00002003202BC8D1002318461037BD4680BDA3
:103E100080B584B000AFF860B9607A606BE07A6812
:103E2000B968F86800F076F80346002B01D001234A
:103E300069E0FB681B689B6903F02003202B38D1E5
:103E4000FB681B689B6903F00403042B05D1FB6826
:103E50001B8D002B01D0002355E0FB681B689B697C
:103E600003F01003102B07D1FB681B681022DA61E6
:103E7000FB6804225A6402E0FB6800225A64FB6873
:103E80001B682022DA61FB681B685968FB681A68A6
:103E90001F4B0B405360FB68202283F84120FB68D6
:103EA000002283F84220FB68002283F8402001238F
:103EB00029E0FEF76DF902467B68D31ABA689A4288
:103EC00002D3BB68002B16D1FB681B689B6903F00B
:103ED0000403042B0FD0FB685B6C43F02002FB68EB
:103EE0005A64FB68202283F84120FB68002283F893
:103EF0004020012307E0FB681B689B6903F0040373
:103F0000042B8CD1002318461037BD4680BD00BF5E
:103F100000E800FE80B58AB000AFF860B9607A6052
:103F2000002387F82730FB681B689B69BB6100236F
:103F30003B627B68FB61BB6903F01003002B68D018
:103F4000FB681B681022DA6149E0BB68B3F1FF3FF0
:103F500045D0FEF71DF90246FB69D31ABA689A42AA
:103F600002D3BB68002B3AD1FB681B685B6803F483
:103F700080437B61FB6893F84230FB74FB681B68ED
:103F80009B6903F40043B3F5004F21D17B69B3F57E
:103F9000804F1DD0FB7C202B1AD0FB681B685A6811
:103FA000FB681B6842F480425A60FEF7F1F8F86142
:103FB0000EE0FEF7EDF80246FB69D31A192B07D97C
:103FC0003B6A43F020033B62012387F8273006E079
:103FD000FB681B689B6903F02003202BE9D1FB6879
:103FE0001B689B6903F02003202B03D097F8273030
:103FF000002BAAD097F82730002B03D1FB681B6851
:104000002022DA613B6A43F004033B62012387F814
:104010002730FB681B689B69BB61BB6903F4807335
:10402000002B0BD03B6A43F001033B62FB681B682B
:104030004FF48072DA61012387F82730BB6903F4FB
:104040008063002B0BD03B6A43F008033B62FB68A4
:104050001B684FF48062DA61012387F82730BB695F
:1040600003F40073002B0BD03B6A43F002033B6266
:10407000FB681B684FF40072DA61012387F8273070
:1040800097F82730002B1CD0F868FFF7A6FDFB68D7
:104090001B685968FB681A680D4B0B405360FB683E
:1040A0005A6C3B6A1A43FB685A64FB68202283F807
:1040B0004120FB68002283F84220FB68002283F83D
:1040C000402097F8273018462837BD4680BD00BFEE
:1040D00000E800FE80B487B000AFF8607B600B465C
:1040E0007B8113467B727B89C3F309027B7A1B04B5
:1040F00003F47F031A437B681A433B6A134323F09C
:1041000000437B61FB681B685A683B6A5B0D03F4E4
:104110008061084B0B43DB4302EA0301FB681B6829
:104120007A690A435A6000BF1C37BD465DF8047BBC
:10413000704700BFFF63FF0380B485B000AF7860B5
:104140000B467B800023FB607B8803F00103002B80
:104150000FD0FB6843F04203FB607B6893F841306B
:10416000DBB203F02803282B03D0FB6843F0B00335
:10417000FB607B8803F00203002B0FD0FB6843F049
:104180004403FB607B6893F84130DBB203F0280303
:10419000282B03D0FB6843F0B003FB60B7F9023073
:1041A000002B03DAFB6843F0B803FB607B88102B1D
:1041B00003D1FB6843F09003FB607B88202B03D185
:1041C000FB6843F02003FB607B88402B03D1FB6836
:1041D00043F04003FB607B681B681968FB68DA43A7
:1041E0007B681B680A401A6000BF1437BD465DF843
:1041F000047B704780B483B000AF786039607B681F
:1042000093F84130DBB2202B38D17B6893F84030F3
:10421000012B01D1022332E07B68012283F8402088
:104220007B68242283F841207B681B681A687B68BE
:104230001B6822F001021A607B681B681A687B68A1
:104240001B6822F480521A607B681B6819687B68BF
:104250001B683A680A431A607B681B681A687B68A7
:104260001B6842F001021A607B68202283F841201B
:104270007B68002283F84020002300E002231846D8
:104280000C37BD465DF8047B704780B485B000AF45
:10429000786039607B6893F84130DBB2202B39D1EC
:1042A0007B6893F84030012B01D1022333E07B6817
:1042B000012283F840207B68242283F841207B6818
:1042C0001B681A687B681B6822F001021A607B6811
:1042D0001B681B68FB60FB6823F47063FB603B6832
:1042E0001B02FA681343FB607B681B68FA681A605C
:1042F0007B681B681A687B681B6842F001021A60C1
:104300007B68202283F841207B68002283F84020CC
:10431000002300E0022318461437BD465DF8047BF5
:104320007047000080B400AF054B1B68044A43F09F
:104330000103136000231846BD465DF8047B7047F7
:104340000004034080B586B002AF78600023FB73A1
:10435000FDF71EFFB8607B68002B02D10123FB73C1
:10436000A2E07B6800221A657B68DB6C002B40F0C2
:104370009B807868FDF756FA41F28831786800F042
:1043800007FB7B681B689A684A4B13407A68D168C0
:104390007A681269013A120411437A685269013A43
:1043A000120211437A68526B11437A68D269114341
:1043B0007A6812680B4393607B681B68DB6823F4A0
:1043C000E0217B681A6A7B681B680A43DA607B68B5
:1043D0001A6B7B681B6812041A617B681B687A6819
:1043E000926B5A617B681B681B6823F4F8517B68E9
:1043F0005B68013B1A027B681B680A431A607B6892
:104400005B6D0093BB6800222021786800F00BFBF5
:104410000346FB73FB7B002B46D17B681B68DB6884
:1044200023F0FF017B685B6A5A1E7B681B680A43A6
:10443000DA607B681B681B6823F040017B689A6820
:104440007B681B680A431A607B681B68D3F80831D5
:1044500023F0A0417B689A6A7B68DB6A1A437B6819
:104460001B680A43C3F808217B681B681A687B68CD
:104470001B6842F001021A607B689B69022B07D11E
:104480007B681B689A687B681B6842F002029A602E
:104490007B68DB68B3F1806F03D17B680122DA644B
:1044A00002E07B680222DA64FB7B18461037BD46C7
:1044B00080BD00BFF4F8E0F880B586B000AF78604A
:1044C0007B681B6850337B617B681B681B6A3B61A0
:1044D0007B681B681B68FB607B68DB6CBB603B69AF
:1044E00003F00403002B3AD0FB6803F48023002B75
:1044F00035D0BB68182B0FD17B68DB6B1A787B69D2
:104500001A707B68DB6B5A1C7B68DA637B685B6CB8
:104510005A1E7B685A6412E0BB68282B0FD17B6857
:10452000DB6B7A691278D2B21A707B68DB6B5A1C2B
:104530007B68DA637B685B6C5A1E7B685A647B68B5
:104540005B6C002B07D17B681B681A687B681B6853
:1045500022F480221A60786800F0DEF9E7E03B6917
:1045600003F00203002B67D0FB6803F40033002B39
:1045700062D0BB68282B31D17B685B6C002B15D0D7
:104580003B6903F47C53002B10D07B68DB6B7A69AA
:104590001278D2B21A707B68DB6B5A1C7B68DA63C4
:1045A0007B685B6C5A1E7B685A64BDE07B685B6C01
:1045B000002B40F0B9807B681B6802225A627B683E
:1045C0001B681A687B681B6822F4E0221A607B680B
:1045D0000222DA64786800F0B3F9A5E07B681B6812
:1045E00002225A627B681B681A687B681B6822F487
:1045F000E0221A607B680222DA64BB68182B03D1C0
:10460000786800F0A7F98FE0BB68082B03D17868C1
:1046100000F08CF988E0BB68B3F5807F40F08480BF
:104620007B681B6D002B03D1786800F06BF97BE091
:10463000786800F05DF977E03B6903F00803002B30
:104640001ED0FB6803F40023002B19D07B681B6885
:1046500008225A627B681B681B6803F48003002BE6
:104660000AD07B681B681A687B681B6822F41022DA
:104670001A607B680222DA64786800F075F956E007
:104680003B6903F00103002B3CD0FB6803F480334B
:10469000002B37D07B681B6801225A627B681B683D
:1046A0001A687B681B6822F4F8121A607B68022281
:1046B0001A657B681B681B6803F00403002B1AD083
:1046C0007B681B681A687B681B6822F004021A600A
:1046D0007B689B6C184A1A647B689B6C1846FDF7D4
:1046E0006BFF0346002B21D07B680222DA647868D6
:1046F00000F0FEF81AE07B680222DA64786800F0C5
:10470000F7F813E03B6903F01003002B0FD0FB68B0
:1047100003F48013002B0AD07B681B6810225A62B6
:10472000786800F02BF902E000BF00E000BF00BF96
:104730001837BD4680BD00BFAF49000880B58AB0BC
:1047400002AFF860B9607A60FDF722FDB861BB681E
:104750009B6B002BFB68DB6C7B617B69022B04D1BC
:10476000FB68DB68B3F1806F15D17B69142B07D12F
:10477000BB681B68022B0ED0BB681B68032B0AD0DA
:104780007B69242B5BD1BB681B68012B03D0BB6802
:104790001B68032B53D17B680093BB690022202147
:1047A000F86800F040F90346FB77FB7F002B4CD103
:1047B000FB6800221A65B968F86800F06BF90346D7
:1047C000FB77FB7F002B40D1BB689B6B002B0ED18E
:1047D0007B680093BB6901220221F86800F023F98D
:1047E0000346FB77FB681B6802225A622DE0BB6818
:1047F0001B68002B03D1FB680422DA6425E0BB6848
:104800001B68012B0BD1FB68DB6C242B03D1FB68ED
:104810000422DA6419E0FB681422DA6415E0BB684C
:104820001B68022B11D1FB68DB6C142B03D1FB68D6
:104830000422DA6409E0FB682422DA6405E001233B
:10484000FB77FB6810221A6500E000BFFB7F18466B
:104850002037BD4680BD80B586B002AF7860396034
:10486000FDF796FCB8607B68DB6C042B36D17B6867
:104870005B6D0093BB6800222021786800F0D3F8BC
:104880000346FB73FB7B002B2DD17B688822DA6407
:104890003B681B68082B11D17B681B683A6852681B
:1048A000C3F830217B681B6810225A627B681B6842
:1048B0001A687B681B6842F480121A607B681B6868
:1048C0001B6823F0405323F008033A6812681A4328
:1048D0007B681B6842F040521A6004E00123FB73BE
:1048E0007B6810221A65FB7B18461037BD4680BDD9
:1048F00080B483B000AF786000BF0C37BD465DF870
:10490000047B704780B483B000AF786000BF0C3781
:10491000BD465DF8047B704780B483B000AF78601B
:1049200000BF0C37BD465DF8047B704780B483B090
:1049300000AF786000BF0C37BD465DF8047B704760
:1049400080B483B000AF786000BF0C37BD465DF81F
:10495000047B704780B483B000AF786000BF0C3731
:10496000BD465DF8047B704780B483B000AF7860CB
:1049700000BF0C37BD465DF8047B704780B483B040
:1049800000AF786000BF0C37BD465DF8047B704710
:1049900080B483B000AF786039607B683A685A654C
:1049A000002318460C37BD465DF8047B704780B580
:1049B00084B000AF78607B689B6AFB60FB68002274
:1049C0005A64FB68DB6CB3F5807F22D1FB681B68FF
:1049D0001B6A03F02003002B14D0FB681B68022223
:1049E0005A62FB681B681A68FB681B6842F4003255
:1049F0001A60FB681B681A68FB681B6842F00202B9
:104A00001A600CE0FB680222DA64F868FFF77AFFAC
:104A100005E0FB680222DA64F868FFF769FF00BF6F
:104A20001037BD4680BD80B584B000AFF860B96076
:104A30003B601346FB711AE0BB69B3F1FF3F16D030
:104A4000FDF7A6FB02463B68D31ABA699A4202D325
:104A5000BB69002B0BD1FB684FF40072DA64FB6872
:104A60001B6D43F00102FB681A6501230EE0FB6831
:104A70001B681A6ABB681340002B14BF0123002374
:104A8000DBB21A46FB799A42D6D10023184610377A
:104A9000BD4680BD80B489B000AF78603960002326
:104AA000FB777B681B681A687B681B6822F04052A2
:104AB0001A607B689B68002B0AD17B681B681B68A7
:104AC00023F080013B685A687B681B680A431A60C0
:104AD0003B681B68022B14D17B681B6803F5C0730D
:104AE000BB617B681B6803F5C4737B617B681B68D3
:104AF00003F5C8733B617B681B6803F5D073FB60EB
:104B00002CE03B681B68032B14D17B681B6803F502
:104B1000A073BB617B681B6803F5A4737B617B6832
:104B20001B6803F5A8733B617B681B6803F5B073D2
:104B3000FB6013E07B681B6803F58073BB617B68D7
:104B40001B6803F584737B617B681B6803F58873BE
:104B50003B617B681B6803F59073FB603B689A6C54
:104B60003B68DB6C1A43BB691A603B68DB6A002B4D
:104B700012D03B689A6AFB681A60BB691B6823F411
:104B80007C123B68D96A3B685B6B19433B681B6BC3
:104B90000B431A43BB691A607B691B6823F01F0231
:104BA0003B685B6C1A437B691A603B689B6B002B0C
:104BB00009D03B681B68002B05D13B68DA6B7B682A
:104BC0001B68013A1A643B68DB68002B00F099808F
:104BD0003B68DB69002B55D03B689B6B002B1ED0DC
:104BE000BB691A68674B13403A68D1683A685269E2
:104BF00011433A68126911433A68D26911433A681D
:104C0000526A11433A68126A11433A68926B11432F
:104C10003A68126C0A431A43BB691A6028E0BB6900
:104C20001B6823F47C5323F03F033A68D1683A6849
:104C3000526911433A68126911433A68D2691143C3
:104C40003A68526A11433A68126A0A431A43BB69C6
:104C50001A607B68DB6AB3F1805F09D13B685B69EE
:104C6000082B05D1BB691B6843F00062BB691A6061
:104C70003B689A683B691A607B681B683A6892696E
:104C80009A6478E03B689B6B002B17D0BB691B686C
:104C900023F0706323F03F033A68D1683A685269A1
:104CA00011433A68126911433A68926B11433A68AA
:104CB000126C0A431A43BB691A601DE0BB691B688A
:104CC00023F03F023B68D9683B685B6919433B6846
:104CD0001B690B431A43BB691A607B68DB6AB3F13B
:104CE000805F09D13B685B69082B05D1BB691B68F4
:104CF00043F00062BB691A603B689A683B691A60BE
:104D000039E03B68DB69002B30D03B689B6B002BA4
:104D100017D0BB691B6823F0706323F47C533A6897
:104D2000D1693A68526A11433A68126A11433A6883
:104D3000926B11433A68126C0A431A43BB691A60BA
:104D40000EE0BB691B6823F47C523B68D9693B6861
:104D50005B6A19433B681B6A0B431A43BB691A60C1
:104D60007B681B683A6892699A6404E00123FB77C8
:104D70007B6808221A65FB7F18462437BD465DF81C
:104D8000047B7047C0C0FFF080B400AF044B1B68C9
:104D900003F4C0631846BD465DF8047B704700BF4E
:104DA0000070004080B584B000AF7860274B1B686E
:104DB00003F4C063BB6000F061F80346B3F5004F35
:104DC00001D101233EE0214BDB6803F40043B3F53E
:104DD000004F01D1012335E0BA687B689A4201D1C6
:104DE00000232FE0194B1B6823F4C06217497B682E
:104DF00013430B60164B1B685B09164AA2FB032387
:104E0000DB09322202FB03F3134AA2FB0323DB0874
:104E10000133FB6002E0FB68013BFB600B4B5B690D
:104E200003F48063B3F5806F02D1FB68002BF2D1ED
:104E3000064B5B6903F48063B3F5806F01D10323F4
:104E400000E0002318461037BD4680BD00700040CA
:104E5000A0B60120C55A7C0ACDCCCCCC80B400AF22
:104E6000054B9B68044A43F48043936000BFBD46F2
:104E70005DF8047B704700BF0070004080B483B0D1
:104E800000AF0F4B1B693B603B6803F48053002B62
:104E900003D04FF480537B600AE03B6803F4004387
:104EA000002B03D14FF400437B6001E000237B60C3
:104EB0007B6818460C37BD465DF8047B704700BF21
:104EC0000070004080B588B000AF78607B68002B30
:104ED00002D1012300F0C2BC994B9B6803F00C0384
:104EE000BB61974BDB6803F003037B617B681B6846
:104EF00003F01003002B00F0E980BB69002B06D003
:104F0000BB690C2B40F083807B69012B7FD18C4BDC
:104F10001B6803F00203002B06D07B68DB69002BC3
:104F200002D1012300F09ABC7B685A6A844B1B684B
:104F300003F00803002B04D0814B1B6803F0F0033F
:104F400005E07F4BD3F894301B0903F0F003934244
:104F500024D27B685B6A184600F0CEFE0346002B25
:104F600002D0012300F07ABC754B1B68744A43F0F1
:104F700008031360724B1B6823F0F0027B685B6AC6
:104F80006F4913430B606E4B5B6823F47F427B6871
:104F90001B6A1B026A4913434B6026E0684B1B687F
:104FA000674A43F008031360654B1B6823F0F00267
:104FB0007B685B6A624913430B60614B5B6823F457
:104FC0007F427B681B6A1B025D4913434B60BB69D0
:104FD000002B0AD17B685B6A184600F08DFE034601
:104FE000002B02D0012300F039BC00F017FE03466D
:104FF000544A1360544B1B681846FCF72FFE0346B7
:10500000FB73FB7B002B60D0FB7B00F027BC7B6835
:10501000DB69002B39D04A4B1B68494A43F0010336
:105020001360FDF7B5F838610FE0FDF7B1F80246FF
:105030003B69D31A022B08D9414B1B6803F00203CA
:10504000002B02D1032300F009BC3D4B1B6803F089
:105050000203002BE9D03A4B1B68394A43F008039E
:105060001360374B1B6823F0F0027B685B6A34499E
:1050700013430B60324B5B6823F47F427B681B6AEF
:105080001B022F4913434B6020E02D4B1B682C4A19
:1050900023F001031360FDF77BF838610EE0FDF7A4
:1050A00077F802463B69D31A022B07D9244B1B68B9
:1050B00003F00203002B01D00323CFE3204B1B6836
:1050C00003F00203002BEAD100E000BF7B681B68FD
:1050D00003F00103002B7ED0BB69082B05D0BB6910
:1050E0000C2B0ED17B69032B0BD1154B1B6803F4E2
:1050F0000033002B6ED07B685B68002B6AD10123E4
:10510000ACE37B685B68B3F5803F06D10C4B1B6852
:105110000B4A43F48033136024E07B685B68B3F58B
:10512000A02F13D1064B1B68054A43F4802313605C
:10513000034B1B68024A43F48033136012E000BF44
:1051400000100240A0B60120A4B601208B4B1B68C2
:105150008A4A23F480331360884B1B68874A23F400
:10516000802313607B685B68002B19D0FDF710F873
:1051700038610EE0FDF70CF802463B69D31A642B48
:1051800007D97E4B1B6803F40033002B01D10323A6
:1051900064E37A4B1B6803F40033002BEAD01AE077
:1051A000FCF7F6FF38610EE0FCF7F2FF02463B69C0
:1051B000D31A642B07D9714B1B6803F40033002BFF
:1051C00001D003234AE36D4B1B6803F40033002B2B
:1051D000EAD100E000BF7B681B6803F00203002BEC
:1051E0006CD0BB69042B05D0BB690C2B19D17B6932
:1051F000022B16D1614B1B6803F48063002B05D092
:105200007B68DB68002B01D1012327E35B4B5B68E4
:1052100023F0FE427B681B691B06584913434B6011
:105220004CE07B68DB68002B29D0544B1B68534A49
:1052300043F480731360FCF7ABFF38610EE0FCF7BA
:10524000A7FF02463B69D31A022B07D94B4B1B68B9
:1052500003F48063002B01D10323FFE2474B1B685B
:1052600003F48063002BEAD0444B5B6823F0FE42DA
:105270007B681B691B06414913434B601EE03F4B93
:105280001B683E4A23F480731360FCF781FF38618A
:105290000EE0FCF77DFF02463B69D31A022B07D9CB
:1052A000364B1B6803F48063002B01D00323D5E247
:1052B000324B1B6803F48063002BEAD17B681B68C8
:1052C00003F00803002B62D07B685B69002B38D0A9
:1052D0007B689B69002B08D1284BD3F89430274A70
:1052E00023F01003C2F8943007E0244BD3F8943035
:1052F000224A43F01003C2F89430204BD3F8943084
:105300001E4A43F00103C2F89430FCF741FF3861B4
:105310000FE0FCF73DFF02463B69D31A072B08D983
:10532000164BD3F8943003F00203002B01D1032372
:1053300094E2124BD3F8943003F00203002BE8D030
:1053400025E00E4BD3F894300C4A23F00103C2F849
:105350009430FCF71DFF386112E0FCF719FF02469C
:105360003B69D31A072B0BD9044BD3F8943003F0C5
:105370000203002B04D0032370E200BF00100240A0
:10538000A84BD3F8943003F00203002BE5D17B68DF
:105390001B6803F00403002B00F02D810023FB7732
:1053A000A04B9B6D03F08053002B0DD19D4B9B6D4B
:1053B0009C4A43F0805393659A4B9B6D03F0805356
:1053C000BB60BB680123FB77974B1B6803F48073BA
:1053D000002B1ED1944B1B68934A43F480731360D7
:1053E000FCF7D6FE38610EE0FCF7D2FE02463B69C0
:1053F000D31A022B07D98C4B1B6803F48073002B44
:1054000001D103232AE2884B1B6803F48073002B2D
:10541000EAD07B689B6803F00103002B1FD07B68F8
:105420009B6803F00403002B10D07E4BD3F8903020
:105430007C4A43F00403C2F890307A4BD3F89030A2
:10544000784A43F00103C2F8903018E0754BD3F866
:105450009030744A43F00103C2F890300FE0714B72
:10546000D3F890306F4A23F00103C2F890306D4BAF
:10547000D3F890306B4A23F00403C2F890307B6875
:105480009B68002B68D0FCF783FE386111E0FCF7C5
:105490007FFE02463B69D31A41F28832934208D913
:1054A000604BD3F8903003F00203002B01D10323AB
:1054B000D4E15C4BD3F8903003F00203002BE6D02C
:1054C0007B689B6803F08003002B22D0554BD3F8F8
:1054D0009030544A43F08003C2F8903011E0FCF75A
:1054E00057FE02463B69D31A41F28832934208D9EB
:1054F0004C4BD3F8903003F40063002B01D103230D
:10550000ACE1484BD3F8903003F40063002BE6D0B5
:1055100068E0444BD3F89030424A23F08003C2F84D
:10552000903011E0FCF734FE02463B69D31A41F299
:105530008832934208D93B4BD3F8903003F4006390
:10554000002B01D0032389E1364BD3F8903003F4CC
:105550000063002BE6D145E0FCF71AFE386111E04C
:10556000FCF716FE02463B69D31A41F28832934299
:1055700008D92C4BD3F8903003F00203002B01D054
:1055800003236BE1274BD3F8903003F00203002B89
:10559000E6D1244BD3F8903003F08003002B21D0C8
:1055A000204BD3F890301F4A23F08003C2F890308C
:1055B00011E0FCF7EDFD02463B69D31A41F2883257
:1055C000934208D9174BD3F8903003F40063002BB3
:1055D00001D0032342E1134BD3F8903003F400636E
:1055E000002BE6D1FB7F012B05D10E4B9B6D0D4AA5
:1055F00023F0805393657B681B6803F02003002B26
:105600004FD07B689B6A002B28D0064BD3F898308C
:10561000044A43F00103C2F89830FCF7B9FD386141
:1056200014E000BF0010024000700040FCF7B0FD25
:1056300002463B69D31A022B08D98A4BD3F898301B
:1056400003F00203002B01D1032307E1854BD3F8BC
:10565000983003F00203002BE8D022E0814BD3F80E
:105660009830804A23F00103C2F89830FCF790FD8F
:1056700038610FE0FCF78CFD02463B69D31A022B20
:1056800008D9784BD3F8983003F00203002B01D0EF
:105690000323E3E0734BD3F8983003F00203002BAD
:1056A000E8D17B68DB6A002B00F0D7806D4B9B68EC
:1056B00003F00C030C2B00F091807B68DB6A022B5B
:1056C00066D1684B1B68674A23F080731360FCF750
:1056D0005FFD38610EE0FCF75BFD02463B69D31AC3
:1056E000022B07D95F4B1B6803F00073002B01D01E
:1056F0000323B3E05B4B1B6803F00073002BEAD17C
:10570000584BDA68584B13407A68116B7A68526BC1
:10571000013A120111437A68926B120211437A68BE
:10572000126C5208013A520511437A68526C5208C1
:10573000013A520611437A68D26BD2060A434949AC
:105740001343CB60474B1B68464A43F0807313609A
:10575000444BDB68434A43F08073D360FCF718FD89
:1057600038610EE0FCF714FD02463B69D31A022BA8
:1057700007D93C4B1B6803F00073002B01D10323B6
:105780006CE0384B1B6803F00073002BEAD064E038
:10579000344B1B68334A23F080731360FCF7F8FC2A
:1057A00038610EE0FCF7F4FC02463B69D31A022B89
:1057B00007D92C4B1B6803F00073002B01D0032387
:1057C0004CE0284B1B6803F00073002BEAD1254BFB
:1057D000DA682449254B1340CB603EE07B68DB6AE6
:1057E000012B01D1012339E01E4BDB687B617B6912
:1057F00003F003027B681B6B9A422CD17B6903F098
:10580000F0027B685B6B013B1B019A4223D17B69F1
:1058100003F4FE427B689B6B1B029A421BD17B699F
:1058200003F078427B68DB6BDB069A4213D17B691D
:1058300003F4C0027B681B6C5B08013B5B059A426A
:1058400009D17B6903F0C0627B685B6C5B08013B3C
:105850005B069A4201D0012300E00023184620375E
:10586000BD4680BD001002400C809F01FCFFEEFE93
:1058700080B586B000AF7860396000237B617B68BB
:10588000002B01D101231CE1904B1B6803F00F0397
:105890003A689A4210D98D4B1B6823F00F028B494E
:1058A0003B6813430B60894B1B6803F00F033A6896
:1058B0009A4201D0012304E17B681B6803F00203D4
:1058C000002B10D07B689A68814B9B6803F0F00333
:1058D0009A4208D97E4B9B6823F0F0027B689B6854
:1058E0007B4913438B607B681B6803F00103002B2B
:1058F00000F085807B685B68032B1FD1744B1B68AD
:1059000003F00073002B01D10123DAE000F058FA14
:1059100038613B696F4A934247D96D4B9B6803F0EE
:10592000F003002B41D16A4B9B6823F0F003684AD7
:1059300043F08003936080237B6136E07B685B6883
:10594000022B07D1624B1B6803F40033002B15D1E7
:105950000123B6E07B685B68002B07D15C4B1B68BA
:1059600003F00203002B09D10123AAE0584B1B6866
:1059700003F48063002B01D10123A2E000F0B0F812
:1059800038613B69534A93420FD9514B9B6803F0EE
:10599000F003002B09D14E4B9B6823F0F0034C4AD7
:1059A00043F08003936080237B61494B9B6823F025
:1059B00003027B685B68464913438B60FCF7E8FB96
:1059C000F86013E0FCF7E4FB0246FB68D31A41F2EF
:1059D000883293420AD93E4B9B6803F00C027B68E5
:1059E0005B689B009A4201D003236AE0384B9B68B6
:1059F00003F00C027B685B689B009A42E2D17B69F2
:105A0000802B05D1324B9B68314A23F0F003936021
:105A10007B681B6803F00203002B10D07B689A6838
:105A20002B4B9B6803F0F0039A4208D2284B9B68EB
:105A300023F0F0027B689B68254913438B60234B5E
:105A40001B6803F00F033A689A4210D21F4B1B6881
:105A500023F00F021D493B6813430B601B4B1B686F
:105A600003F00F033A689A4201D0012329E07B68D2
:105A70001B6803F00403002B08D0154B9B6823F42C
:105A8000E0627B68DB68124913438B607B681B68AC
:105A900003F00803002B09D00D4B9B6823F46052E0
:105AA0007B681B69DB000A4913438B6000F0B6F882
:105AB0000346094A1360094B1B681846FCF7CEF8E9
:105AC000034618461837BD4680BD00BF002002407F
:105AD0000010024000B4C404A0B60120A4B6012006
