:020000040800F2
:1000000000000320551E00087D1A0008831A00080E
:10001000891A00088F1A0008951A0008A51E000802
:10002000000000000000000000000000E13A0108AC
:100030009B1A000800000000813A0108450B0108E6
:10004000A51E0008A51E0008A51E0008A51E000884
:10005000A51E0008A51E0008A51E0008A51E000874
:10006000A51E0008A51E0008A51E0008A51E000864
:10007000A51E0008A51E0008A51E0008A51E000854
:10008000A51E0008A51E0008A51E0008A51E000844
:10009000A51E0008A51E0008A51E0008A51E000834
:1000A000A51E0008A51E0008A51E0008A51E000824
:1000B000A51E0008A91A0008A51E0008A51E000814
:1000C000A51E0008A51E0008A51E0008A51E000804
:1000D000A51E0008A51E0008A51E0008A51E0008F4
:1000E000A51E0008A51E0008BD1A0008A51E0008D0
:1000F000A51E0008A51E0008A51E0008A51E0008D4
:10010000A51E0008A51E0008A51E0008A51E0008C3
:10011000A51E0008A51E0008A51E0008D11A00088B
:10012000E51A0008A51E0008A51E0008A51E000867
:10013000A51E0008F91A00080D1B0008A51E0008DE
:10014000A51E0008A51E0008211B0008A51E00080A
:10015000A51E0008A51E0008A51E0008A51E000873
:10016000A51E0008A51E0008A51E0008A51E000863
:10017000A51E000800000000351B0008000000005C
:10018000A51E0008A51E0008A51E0008A51E000843
:10019000A51E0008A51E0008A51E0008A51E000833
:1001A000A51E0008A51E0008A51E0008A51E000823
:1001B000A51E000800000000A51E0008A51E0008DE
:1001C000A51E000800000000A51E0008A51E0008CE
:1001D000A51E0008A51E0008A51E0008A51E0008F3
:1001E000A51E0008A51E0008A51E0008A51E0008E3
:0401F000000000000B
:1002000010B5054C237833B9044B13B1044800E012
:1002100000BF0123237010BDD000002000000000AB
:100220003855010808B5034B1BB10349034800E0EA
:1002300000BF08BD00000000D400002038550108B0
:10024000034613F8012B002AFBD1181A0138704716
:1002500053B94AB9002908BF00281CBF4FF0FF312D
:100260004FF0FF3000F082B9ADF1080C6DE904CE1B
:1002700000F006F8DDF804E0DDE9022304B0704781
:100280002DE9F04F099D04460F46002B48D18A42C4
:10029000944661D9B2FA82F343B1C3F120019F4081
:1002A00002FA03FC9C4020FA01F10F434FEA1C4183
:1002B0001FFA8CFE220CB7FBF1F601FB167706FB4A
:1002C0000EF042EA0742904208D91CEB020206F106
:1002D000FF3702D2904200F237813E46121AA4B292
:1002E000B2FBF1F001FB102200FB0EFE44EA0244D7
:1002F000A64508D91CEB040400F1FF3202D2A64542
:1003000000F21C81104640EA0640A4EB0E040026D1
:100310001DB1DC400023C5E900433146BDE8F08F44
:100320008B4209D9002D00F0FD800026C5E90001AF
:1003300030463146BDE8F08FB3FA83F6002E4BD13C
:100340008B42C0F0F280824240F2EF803046002DB6
:10035000E3D0C5E90047E0E702B9FFDEB2FA82F375
:10036000002B40F09D80891A4FEA124E97B2012669
:10037000200CB1FBFEF20EFB121140EA014107FB1B
:1003800002F088420FD91CEB010102F1FF382CBFAB
:100390004FF001094FF00009884203D9B9F1000F6D
:1003A00000F0CF804246091AA4B2B1FBFEF00EFB6A
:1003B000101100FB07F744EA0144A74208D91CEBDF
:1003C000040400F1FF3102D2A74200F2B4800846D3
:1003D000E41B40EA02409BE7C6F12007B34001FA64
:1003E00006F422FA07FCF940B2404CEA030C20FA6A
:1003F00007F34FEA1C491C431FFA8CFE00FA06F370
:10040000200CB1FBF9F809FB181140EA014108FB87
:100410000EF088420FD91CEB010108F1FF3A2CBF06
:100420004FF0010B4FF0000B884203D9BBF1000FD6
:1004300000F08D80D046091AA4B2B1FBF9F009FB97
:10044000101100FB0EFE44EA01418E4507D91CEB5A
:10045000010100F1FF3401D28E457FD8204640EAE9
:100460000840A1EB0E01A0FB029841454C46C64650
:1004700002D306D14B4504D20138B9EB020468EB34
:100480000C0E002D70D01A1B61EB0E0122FA06F340
:1004900001FA07F7F14000261F43C5E900713CE768
:1004A00002FA03FCC3F1200001FA03F221FA00F67C
:1004B0004FEA1C4E24FA00F11FFA8CF79C401143BE
:1004C000B6FBFEF00A0C0EFB106642EA064200FB89
:1004D00007F696420ED91CEB020200F1FF382CBF42
:1004E0004FF001094FF00009964202D9B9F1000F0F
:1004F00031D04046921B89B2B2FBFEF60EFB1622AB
:1005000041EA024106FB07F28A4207D91CEB0101CE
:1005100006F1FF3801D28A4223D84646891A46EAB4
:10052000004625E72E462846F7E6841A61EB0303CA
:1005300001201F460BE76444023849E7644402384F
:10054000E1E6023A61442EE7023E6244C6E6A8F1C3
:10055000020861446FE702386244CBE70238614425
:100560007DE7023E6144D9E72E46D6E6704700BFDC
:1005700080B582B000AF786039603B687A6809491D
:10058000094813F0C9FE0848FFF75AFE03469AB21D
:1005900064230549054808F059FF00BF0837BD46E8
:1005A00080BD00BF50550108EC000020540300201E
:1005B00080B582B000AF78607A680949094813F0C5
:1005C000ABFE0848FFF73CFE03469AB26423054998
:1005D000054808F03BFF00BF0837BD4680BD00BF9F
:1005E00058550108EC0000205403002080B500AFEE
:1005F00001F059FC00F04EF800F0F6FA00F0CAFAEB
:1006000000F024F900F07AF900F05CFA00F0A4FAA6
:100610000BF0C0FD0346002B01D000F097FE00F068
:1006200095F800F01FF900F0B5F900F0CFF800F0F0
:10063000FDF910F0A1FA0E4B002201210D4810F037
:10064000A7FB03460C4A13600C4A00210C4810F02B
:10065000DDFA03460B4A13600B4A00210B4810F0E9
:10066000D5FA03460A4A136010F0AAFAFEE700BF63
:100670001C5701080113000824060020D456010865
:10068000D90D00081C060020F8560108190E0008B4
:100690002006002080B598B000AF07F1180348226B
:1006A0000021184613F022FD3B1D00221A605A60FB
:1006B0009A60DA601A61002003F034FD0346002BD3
:1006C00001D000F043FE03F00FFD1F4BD3F8903034
:1006D0001D4A23F01803C2F890300523BB614FF484
:1006E0008033FB6181233B6202237B640323BB6471
:1006F0000123FB6412233B6507237B650223BB6553
:100700000223FB6507F11803184603F09BFD03461F
:10071000002B01D000F01AFE0F237B600323BB6087
:100720000023FB6000233B6100237B613B1D042110
:10073000184604F05DFA0346002B01D000F006FED7
:1007400000BF6037BD4680BD0010024080B500AFDD
:100750001B4B1C4A1A601A4B1B4A5A60184B00224A
:100760009A60174B0122DA60154B00221A61144B74
:1007700000225A61124B00229A61114B0022DA6169
:100780000F4B00221A620E4802F068F90346002B54
:1007900001D000F0DBFD0021094803F0FDFB03461A
:1007A000002B01D000F0D2FD0021054803F03FFCF2
:1007B0000346002B01D000F0C9FD00BF80BD00BF83
:1007C00018020020005400406046D04080B500AFC1
:1007D0001B4B1C4A1A601A4B1B4A5A60184B0022CA
:1007E0009A60174B0122DA60154B00221A61144BF4
:1007F00000225A61124B00229A61114B0022DA61E9
:100800000F4B00221A620E4802F028F90346002B13
:1008100001D000F09BFD0021094803F0BDFB034619
:10082000002B01D000F092FD0021054803F0FFFBF2
:100830000346002B01D000F089FD00BF80BD00BF42
:100840006C02002000840040FFB6F01080B500AFBD
:1008500003F03AFC0346002B01D000F077FD00BF07
:1008600080BD000080B500AF224B234A1A60214BA7
:100870004FF4E1325A601F4B00229A601D4B002258
:10088000DA601C4B00221A611A4B0C225A61194B78
:1008900000229A61174B00221A62164B00225A62FC
:1008A000144B00229A62134B00225A66114808F03A
:1008B0007DFD0346002B01D000F048FD00210D48CE
:1008C0000AF0D3FD0346002B01D000F03FFD0021CC
:1008D00008480AF008FE0346002B01D000F036FD60
:1008E00004480AF089FD0346002B01D000F02EFDDC
:1008F00000BF80BDC00200200080004080B500AF76
:10090000224B234A1A60214B4FF4E1325A601F4BAD
:1009100000229A601D4B0022DA601C4B00221A61F3
:100920001A4B0C225A61194B00229A61174B002274
:10093000DA61164B00221A62144B00225A62134BE2
:1009400000229A62114808F031FD0346002B01D0C5
:1009500000F0FCFC00210D480AF087FD0346002B47
:1009600001D000F0F3FC002108480AF0BCFD03466A
:10097000002B01D000F0EAFC04480AF03DFD0346DC
:10098000002B01D000F0E2FC00BF80BD540300202A
:100990000038014080B500AF224B234A1A60214B3A
:1009A0004FF4E1325A601F4B00229A601D4B002227
:1009B000DA601C4B00221A611A4B0C225A61194B47
:1009C00000229A61174B0022DA61164B00221A624C
:1009D000144B00225A62134B00229A62114808F00D
:1009E000E5FC0346002B01D000F0B0FC00210D48CF
:1009F0000AF03BFD0346002B01D000F0A7FC0021CC
:100A000008480AF070FD0346002B01D000F09EFC60
:100A100004480AF0F1FC0346002B01D000F096FCDC
:100A200000BF80BDE80300200044004080B500AF57
:100A3000224B234A1A60214B4FF4E1325A601F4B7C
:100A400000229A601D4B0022DA601C4B00221A61C2
:100A50001A4B0C225A61194B00229A61174B002243
:100A6000DA61164B00221A62144B00225A62134BB1
:100A700000229A62114808F099FC0346002B01D02D
:100A800000F064FC00210D480AF0EFFC0346002B47
:100A900001D000F05BFC002108480AF024FD034669
:100AA000002B01D000F052FC04480AF0A5FC0346DC
:100AB000002B01D000F04AFC00BF80BD7C04002068
:100AC0000048004080B586B000AF3B4600221A6067
:100AD0005A609A60DA601A615A611D4B1D4A1A60A9
:100AE0001B4B00225A601A4B7F229A60184BFF2240
:100AF000DA60174B00221A61154B00225A61144B21
:100B000000229A61124B4FF08042DA61104B0022B2
:100B10001A620F4806F0EEF90346002B01D000F0F0
:100B200015FC00233B600023FB6000233B61002396
:100B30007B613B461946064806F0ECFC0346002B59
:100B400001D000F003FC00BF1837BD4680BD00BFD8
:100B5000780500200028004080B400AF0B4B0C4A01
:100B60001A600A4B00225A60084B00229A60074B19
:100B70004FF48042DA60054B00221A61034B0022D9
:100B80005A6100BFBD465DF8047B7047A005002098
:100B900000800C4280B582B000AF124B9B6C114AB2
:100BA00043F0040393640F4B9B6C03F004037B60DE
:100BB0007B680C4B9B6C0B4A43F001039364094B1D
:100BC0009B6C03F001033B603B68002205211D2064
:100BD00001F080FA1D2001F097FA00BF0837BD46EA
:100BE00080BD00BF0010024080B58CB000AF07F19F
:100BF0001C0300221A605A609A60DA601A61384B4E
:100C0000DB6C374A43F01003D364354BDB6C03F0E5
:100C10001003BB61BB69324BDB6C314A43F0040308
:100C2000D3642F4BDB6C03F004037B617B692C4B9B
:100C3000DB6C2B4A43F08003D364294BDB6C03F05D
:100C400080033B613B69264BDB6C254A43F0010383
:100C5000D364234BDB6C03F00103FB60FB68204B88
:100C6000DB6C1F4A43F00203D3641D4BDB6C03F0C3
:100C70000203BB60BB681A4BDB6C194A43F00803E4
:100C8000D364174BDB6C03F008037B607B680022A6
:100C90000821144801F0CAFE0823FB6101233B62CE
:100CA00000237B620023BB6207F11C0319460D4839
:100CB00001F03CFD4FF47C43FB6102233B620023C7
:100CC0007B620323BB620A23FB6207F11C03194604
:100CD000044801F02BFD00BF3037BD4680BD00BF8A
:100CE000001002400010024280B483B000AF786070
:100CF000044B01221A6000BF0C37BD465DF8047B2F
:100D0000704700BF280C002080B483B000AF78602B
:100D1000044B01221A6000BF0C37BD465DF8047B0E
:100D2000704700BF240C002080B483B000AF78600F
:100D300000BF0C37BD465DF8047B704780B582B0BC
:100D400000AF78607B681E4A934235D11D4B1B78FB
:100D50000D2B02D11B4B00221A701B4B1B68194A2A
:100D600011781A4AD154174B1B78002B0ED1164B11
:100D700000221A60164B1B68022B03D0144B1B6811
:100D8000042B14D1124B05221A6010E00E4B1B6885
:100D900001330D4A13600C4B1A680E4BA3FB021370
:100DA0005B09642101FB03F3D31A074A1360012294
:100DB0000449034808F0D8FB00BF0837BD4680BD92
:100DC000E8030020200C00208C06002028060020CC
:100DD0001C0C00201F85EB5180B582B000AF7860FD
:100DE000094B00221A6001220849094808F0BCFB9F
:100DF00064234C220749064808F028FB4FF47A7018
:100E00000FF096FFF4E700BF8C060020200C0020B6
:100E1000E803002000000020F0B593B00AAFF860AE
:100E2000C8200FF085FF642306227049704808F03F
:100E30000DFB01226F4970480EF036FE03461A463C
:100E40006E4B1A706D4B1B7819466D48FFF790FB7F
:100E50006423009302236B4AD4216B4801F08EFE79
:100E60006A4B01221A60694B1B68052B00F20C8249
:100E700001A252F823F000BF89120008770F000882
:100E8000891200086312000841100008910E000842
:100E90005F48FFF78DFB5F495D4813F0A1FAF861E9
:100EA00000220021F86913F069FB0346DAB25A4BBD
:100EB0009A705849002013F093FAF861002200213B
:100EC000F86913F05BFB0346DAB2534B5A7053498F
:100ED000002013F085FAF86100220021F86913F070
:100EE0004DFB0346DAB24C4BDA704D49002013F04B
:100EF00077FAF86100220021F86913F03FFB0346FE
:100F0000DAB2484B9A704649002013F069FAF8614A
:100F100000220021F86913F031FB0346DAB2414B9D
:100F20005A703E49002013F05BFAF861002200215C
:100F3000F86913F023FB0346DAB23A4B1A703749CB
:100F4000002013F04DFAF86100220021F86913F037
:100F500015FB0346DAB2304B1A7000223149324891
:100F600006F040F800222C492F4806F02DF9274BB7
:100F700002221A6088E100222A492B4806F0C8F8AC
:100F800000222549284806F0A5F9234B9B781C46EA
:100F9000214B5B781D46204BDB781A46214B1B7892
:100FA0001946204B5B7818461E4B9B7803930290A2
:100FB000019100922B4622461C491D4813F0ACF9C2
:100FC00032221B491B480EF0D3FD1B4B062207495A
:100FD00018480FF0B7F8194B1B68642118460FF03A
:100FE00053FF0A4B02221A604EE100BF80550108F0
:100FF000540300208855010878070020100C0020B9
:101000008C550108540000206C0200201C0C0020AC
:1010100028060020945501086C0700209855010807
:101020009C5501085807002078050020A0550108AC
:1010300090060020B8090020180C0020240600208B
:1010400000229349934806F063F8002292499148A0
:1010500006F040F98E4B9A688D4B5B68D31A4FF4BB
:101060007A7203FB02F28A4B9B680133B2FBF3F303
:10107000BB61642300930123884AD421884801F08E
:101080007DFD642300930123864AD421844801F026
:1010900069FE642300930123834AD421804801F030
:1010A0006DFD824A642300930123D4217C4801F022
:1010B00059FE6423009301237D4AD421784801F02E
:1010C0005DFD7C4A642300930123D421744801F020
:1010D00049FE642300930123774AD421704801F02C
:1010E0004DFD764A642300930123D4216C4801F01E
:1010F00039FE642300930123714AD421684801F02A
:101100003DFD704A642300930123D421644801F01B
:1011100029FE6423009301236B4AD421604801F027
:101120002DFD6A4A642300930123D4215C4801F019
:1011300019FE5C4B5B781B021AB25A4B1B781BB230
:101140001343FB82574BDB781B021AB2554B9B783B
:101150001BB21343BB82534B5B791B021AB2514B38
:101160001B791BB213437B82642300930123584AEB
:101170008021584801F002FD0F200FF0D9FD6423B3
:1011800000930523474A8021524801F0EBFD454B6F
:101190005B781B021AB2434B9B781BB213431BB202
:1011A0009AB24D4B1A803F4BDB781B021AB23D4B73
:1011B0001B791BB213431BB29AB2484B1A80364BB1
:1011C0009B789C46344B5B789E46334BDB781846C5
:1011D0002F4B1B781C462E4B5B781D462C4B9B7867
:1011E0001E463D4B1B88BB603C4B1B887B60B7F9A0
:1011F0001630B7F91420B7F9121009910892079325
:101200007A680692BB680593BB69049303960295BE
:1012100001940090734662463149324813F07CF8DD
:101220003048FFF70DF802462F4B2E492F480EF09D
:1012300089FF03461A462E4B1A7014200FF078FDD2
:101240002A480FF062F914200FF072FD2548FFF7CD
:10125000AFF9284B1B68052B15D0264B02221A60CC
:1012600011E0254B1B6818460FF03CFE1F480FF09D
:101270008FFA14200FF05CFD2048FFF799F91D4B01
:1012800000221A6000E000BF01200FF051FDEAE5E6
:1012900058070020780500206C0700204D00002032
:1012A0006C020020700700204E0000207107002013
:1012B0004F0000207207002050000020730700201C
:1012C0005100002074070020520000207507002004
:1012D0004C00002018020020120C0020140C0020EA
:1012E000C455010890060020180C0020B809002001
:1012F000100C00201C0C002024060020F8550108CA
:1013000080B483B000AF7860064B1B68022B02D11B
:10131000044B04221A6000BF0C37BD465DF8047B05
:10132000704700BF1C0C002080B582B000AF786011
:101330007B681B68044A934201D100F0CFFD00BFD7
:101340000837BD4680BD00BF002C014080B500AF0E
:10135000642303220349044808F078F872B600BFFA
:10136000FEE700BF045601085403002080B582B098
:1013700000AF124B1B6E114A43F0010313660F4B73
:101380001B6E03F001037B607B680C4B9B6D0B4A6B
:1013900043F080539365094B9B6D03F080533B6092
:1013A0003B68002207216FF0010000F093FE02F07D
:1013B00015FF00BF0837BD4680BD00BF00100240CA
:1013C00080B5B0B000AF786007F1AC0300221A60BE
:1013D0005A609A60DA601A6107F1180394220021BA
:1013E000184612F083FE7B681B684A4A93424BD131
:1013F0004023BB6100237B6607F11803184603F006
:101400000DFF0346002B01D0FFF7A0FF424BDB6C22
:10141000414A43F00203D3643F4BDB6C03F0020309
:101420007B617B69C023C7F8AC301223C7F8B030AA
:101430000023C7F8B4300023C7F8B8300423C7F836
:10144000BC3007F1AC031946344801F06FF9324B58
:101450009B6D314A43F4001393652F4B9B6D03F44E
:1014600000133B613B6900220521372000F032FE6A
:10147000372000F049FE00220521382000F02AFE26
:10148000382000F041FE41E07B681B68244A93420B
:101490003CD14FF48013BB6100233B6707F1180375
:1014A000184603F0BBFE0346002B01D0FFF74EFFAA
:1014B000194BDB6C184A43F00803D364164BDB6C02
:1014C00003F00803FB60FB684FF44053C7F8AC30EF
:1014D0001223C7F8B0300023C7F8B4300023C7F890
:1014E000B8300423C7F8BC3007F1AC0319460D48E7
:1014F00001F01CF9084BDB6D074A43F00203D3658A
:10150000054BDB6D03F00203BB60BB6800BFC03757
:10151000BD4680BD0054004000100240000402425D
:1015200000840040000C024280B5B4B000AF786087
:1015300007F1BC0300221A605A609A60DA601A61EF
:1015400007F1280394220021184612F0CFFD7B6892
:101550001B68A84A934244D12023BB6200233B6707
:1015600007F12803184603F059FE0346002B01D06B
:10157000FFF7ECFEA04BDB6D9F4A43F00103D36500
:101580009D4BDB6D03F001037B627B6A9A4BDB6C46
:10159000994A43F00203D364974BDB6C03F00203D8
:1015A0003B623B6A4FF44063C7F8BC300223C7F884
:1015B000C0300023C7F8C4300023C7F8C830082360
:1015C000C7F8CC3007F1BC0319468C4801F0AEF8DF
:1015D00000220521422000F07DFD422000F094FD14
:1015E00004E17B681B68864A934276D10123BB6283
:1015F0000023FB6507F12803184603F00FFE03469E
:10160000002B01D0FFF7A2FE7B4B1B6E7A4A43F4FE
:1016100080431366784B1B6E03F48043FB61FB69C8
:10162000754BDB6C744A43F00103D364724BDB6C83
:1016300003F00103BB61BB694FF4C063C7F8BC3062
:101640000223C7F8C0300023C7F8C4300023C7F80E
:10165000C8300723C7F8CC3007F1BC0319466948E6
:1016600001F064F8684B694A1A60674B1A225A60A5
:10167000654B10229A60644B0022DA60624B802234
:101680001A61614B00225A615F4B00229A615E4BE6
:101690000022DA615C4B00221A625B4800F042FDD6
:1016A0000346002B01D0FFF751FE1021564800F0F1
:1016B000AAFF0346002B01D0FFF748FE7B68524A81
:1016C000DA67514A7B689362002205213D2000F0D1
:1016D00001FD3D2000F018FD88E07B681B684C4A46
:1016E000934243D10223BB6200233B6607F12803E8
:1016F000184603F093FD0346002B01D0FFF726FEAA
:101700003D4B9B6D3C4A43F4003393653A4B9B6DD4
:1017100003F400337B617B69374BDB6C364A43F063
:101720000103D364344BDB6C03F001033B613B6981
:101730000C23C7F8BC300223C7F8C0300023C7F819
:10174000C4300023C7F8C8300723C7F8CC3007F1EE
:10175000BC0319462B4800F0E9FF002205213E207A
:1017600000F0B8FC3E2000F0CFFC3FE07B681B6837
:10177000284A93423AD10423BB6200237B6607F1D7
:101780002803184603F04AFD0346002B01D0FFF75B
:10179000DDFD194B9B6D184A43F480239365164B6E
:1017A0009B6D03F48023FB60FB68134BDB6C124AD8
:1017B00043F00403D364104BDB6C03F00403BB6001
:1017C000BB683023C7F8BC300223C7F8C030002301
:1017D000C7F8C4300023C7F8C8300723C7F8CC3097
:1017E00007F1BC0319460C4800F0A0FF00BFD0373A
:1017F000BD4680BD0080004000100240000402424F
:10180000003801400000024210050020080002409C
:1018100000440040004800400008024280B5A8B0E3
:1018200000AF786007F10C0394220021184612F0F3
:101830005DFC7B681B68164A934224D14FF4003349
:10184000FB604FF48073C7F89C3007F10C03184617
:1018500003F0E4FC0346002B01D0FFF777FD0D4BAE
:10186000D3F890300B4A43F40043C2F89030094B50
:101870009B6D084A43F480639365064B9B6D03F4AC
:101880008063BB60BB6800BFA037BD4680BD00BFA2
:10189000002800400010024080B5B0B000AF786072
:1018A00007F1AC0300221A605A609A60DA601A618C
:1018B00007F1180394220021184612F017FC7B68E8
:1018C0001B683F4A934276D14FF40023BB614FF02F
:1018D0008063C7F890300323FB6102233B6214232B
:1018E0007B620723BB620823FB6202233B634FF446
:1018F00080137B6307F11803184603F08FFC03463F
:10190000002B01D0FFF722FD2E4BDB6C2D4A43F458
:101910008003D3642B4BDB6C03F480037B617B6916
:10192000284BDB6C274A43F00403D364254BDB6C64
:1019300003F004033B613B69224BDB6C214A43F01B
:101940000803D3641F4BDB6C03F00803FB60FB68E8
:101950004FF4F853C7F8AC300223C7F8B030002377
:10196000C7F8B4300323C7F8B8300C23C7F8BC302D
:1019700007F1AC031946144800F0D8FE0423C7F859
:10198000AC300223C7F8B0300023C7F8B4300323CB
:10199000C7F8B8300C23C7F8BC3007F1AC031946C0
:1019A0000A4800F0C3FE002205214E2000F092FB01
:1019B0004E2000F0A9FB00BFC037BD4680BD00BF70
:1019C00000800C420010024000080242000C02425B
:1019D00080B58CB000AF78600023FB620023BB624F
:1019E000002279682A2000F075FB2A2000F08CFB89
:1019F0001E4B1B6E1D4A43F4006313661B4B1B6E8C
:101A000003F40063FB60FB6807F1100207F11403A5
:101A10001146184603F0FEFA03F0E8FAF862FB6A92
:101A2000134AA2FB03239B0C013BBB62114B124ADE
:101A30001A60104B40F2E732DA600E4ABB6A53601C
:101A40000C4B00221A610B4B00229A60094807F0E8
:101A5000DBF90346002B04D1064807F037FA0346AA
:101A600000E0012318463037BD4680BD001002401B
:101A700083DE1B432C0C0020002C014080B400AFFF
:101A8000FEE780B400AFFEE780B400AFFEE780B4AD
:101A900000AFFEE780B400AFFEE780B400AF00BF48
:101AA000BD465DF8047B704780B500AF024800F08A
:101AB0009CFC00BF80BD00BF1005002080B500AFBA
:101AC000024807F073FA00BF80BD00BF2C0C002055
:101AD00080B500AF024801F03BFA00BF80BD00BFF7
:101AE0001802002080B500AF024801F04BFA00BF99
:101AF00080BD00BF1802002080B500AF024807F08B
:101B00007FFD00BF80BD00BF5403002080B500AF43
:101B1000024807F075FD00BF80BD00BFE80300204C
:101B200080B500AF024807F06BFD00BF80BD00BF6D
:101B3000C002002080B500AF024805F07FFF00BF63
:101B400080BD00BFA005002080B400AF012318466F
:101B5000BD465DF8047B704780B582B000AF786009
:101B6000396012F093F9034616221A604FF0FF33E2
:101B700018460837BD4680BD80B582B000AF78609A
:101B80004FF0FF317868FFF7E7FFFEE780B586B0DA
:101B900000AFF860B9607A6000237B610AE000E082
:101BA00000BF0146BB685A1CBA60CAB21A707B6992
:101BB00001337B617A697B689A42F0DB7B68184667
:101BC0001837BD4680BD80B586B000AFF860B960FB
:101BD0007A6000237B6109E0BB685A1CBA601B78FD
:101BE000184600E000BF7B6901337B617A697B683E
:101BF0009A42F1DB7B6818461837BD4680BD80B439
:101C000083B000AF78604FF0FF3318460C37BD4605
:101C10005DF8047B704780B483B000AF78603960B2
:101C20003B684FF400525A60002318460C37BD46FB
:101C30005DF8047B704780B483B000AF7860012307
:101C400018460C37BD465DF8047B704780B485B0FC
:101C500000AFF860B9607A60002318461437BD46BB
:101C60005DF8047B7047000080B586B000AF7860F7
:101C7000144A154BD31A7B617B693B61134B1B687C
:101C8000002B02D1114B124A1A60104B1A687B6864
:101C900013443A699A4207D212F0F8F803460C222C
:101CA0001A604FF0FF3309E0084B1B68FB60074BDD
:101CB0001A687B681344054A1360FB681846183796
:101CC000BD4680BD0000032000100000780C0020FD
:101CD0005859002080B400AF064BD3F88830054A2D
:101CE00043F47003C2F8883000BFBD465DF8047B42
:101CF000704700BF00ED00E080B487B000AF4F4BED
:101D00001B6803F00803002B07D14C4BD3F8943029
:101D10001B0A03F00F037B6105E0484B1B681B099E
:101D200003F00F037B61464A7B6952F823307B61E5
:101D3000424B9B6803F00C030C2B66D801A252F8AF
:101D400023F000BF791D00080B1E00080B1E0008C1
:101D50000B1E0008811D00080B1E00080B1E00084A
:101D60000B1E0008891D00080B1E00080B1E000832
:101D70000B1E0008911D0008324A7B69136048E081
:101D8000304B314A1A6044E02E4B304A1A6040E032
:101D90002A4BDB6803F00303FB60284BDB681B095D
:101DA00003F00F030133BB60FB68022B03D0FB6819
:101DB000032B06D00BE0244ABB68B2FBF3F33B6174
:101DC0000BE0224ABB68B2FBF3F33B6105E07A69A2
:101DD000BB68B2FBF3F33B6100BF184BDB681B0A27
:101DE00003F07F023B6902FB03F33B61134BDB68AB
:101DF0005B0E03F0030301335B007B603A697B6891
:101E0000B2FBF3F30F4A136003E00E4A7B691360E1
:101E100000BF0A4B9B681B0903F00F030C4AD35CFD
:101E20003B60084B1A683B6822FA03F3054A1360CB
:101E300000BF1C37BD465DF8047B704700100240B0
:101E400044570108580000200024F40080969800B0
:101E50002C570108DFF834D0FFF73CFF002103E0E6
:101E60000B4B5B58435004310A480B4B42189A42C3
:101E7000F6D30A4A02E0002342F8043B084B9A4298
:101E8000F9D312F0FFF8FEF7B1FBFEE700000320E4
:101E9000585E010800000020CC000020D000002087
:101EA00054590020FEE780B582B000AF0023FB71DB
:101EB000042000F004F9FFF71FFF0720FFF788FD5B
:101EC0000346002B02D00123FB7101E0FFF74EFA1D
:101ED000FB7918460837BD4680BD000080B400AFCE
:101EE000064B1B781A46064B1B681344044A1360C2
:101EF00000BFBD465DF8047B704700BF6000002056
:101F00007C0C002080B400AF034B1B681846BD4614
:101F10005DF8047B704700BF7C0C002080B584B066
:101F200000AF7860FFF7EEFFB8607B68FB60FB688E
:101F3000B3F1FF3F05D00A4B1B781A46FB681344E8
:101F4000FB6000BFFFF7DEFF0246BB68D31AFA68EA
:101F50009A42F7D800BF00BF1037BD4680BD00BF12
:101F60006000002080B485B000AF78607B6803F02B
:101F70000703FB600C4BDB68BB60BA684FF6FF03DE
:101F80001340BB60FB681A02BB68134343F0BF6396
:101F900043F40033BB60044ABB68D36000BF14370E
:101FA000BD465DF8047B704700ED00E080B400AFF3
:101FB000044BDB681B0A03F007031846BD465DF8B7
:101FC000047B704700ED00E080B483B000AF0346AF
:101FD000FB7197F90730002B0BDBFB7903F01F0235
:101FE000074997F907305B09012000FA02F241F82E
:101FF000232000BF0C37BD465DF8047B704700BF4F
:1020000000E100E080B483B000AF03463960FB71AB
:1020100097F90730002B0ADB3B68DAB20C4997F9D5
:1020200007305201D2B20B4483F800230AE03B6828
:10203000DAB20849FB7903F00F03043B5201D2B234
:102040000B441A7600BF0C37BD465DF8047B704721
:1020500000E100E000ED00E080B489B000AFF8607E
:10206000B9607A60FB6803F00703FB61FB69C3F1A9
:102070000703032B28BF0323BB61FB690333062B34
:1020800002D9FB69043B00E000237B614FF0FF3283
:10209000BB6902FA03F3DA43BB681A407B699A40D2
:1020A0004FF0FF317B6901FA03F3D9437B680B40A2
:1020B000134318462437BD465DF8047B704780B54E
:1020C00082B000AF78607868FFF74CFF00BF083738
:1020D000BD4680BD80B586B000AF0346B9607A606A
:1020E000FB73FFF763FF78617A68B9687869FFF777
:1020F000B3FF024697F90F3011461846FFF782FFEB
:1021000000BF1837BD4680BD80B582B000AF034622
:10211000FB7197F907301846FFF756FF00BF0837E5
:10212000BD4680BD80B584B000AF78607B68002B71
:1021300001D101238DE07B681B681A46474B9A4208
:102140000FD87B681B681A46454B1344454AA2FBCF
:1021500003231B099A007B68DA647B68424A9A640D
:102160000EE07B681B681A46404B13443D4AA2FBB5
:1021700003231B099A007B68DA647B683C4A9A64F3
:102180007B68022283F825207B681B681B68FB6044
:10219000FB6823F4FF3323F4F873FB607B689A68D1
:1021A0007B68DB681A437B681B691A437B685B6941
:1021B0001A437B689B691A437B68DB691A437B6817
:1021C0001B6A1343FA681343FB607B681B68FA6859
:1021D0001A60786800F048FA7B689B68B3F5804F16
:1021E00002D17B6800225A607B685A687B681B6D4D
:1021F000D2B21A607B685B6D7A68926D5A607B68B8
:102200005B68002B10D07B685B68042B0CD8786867
:1022100000F068FA7B68DB6D00221A607B681B6E39
:102220007A68526E5A6008E07B680022DA657B6843
:1022300000221A667B6800225A667B6800225A6474
:102240007B68012283F825207B68002283F8242004
:10225000002318461037BD4680BD00BF070402406A
:10226000F8FFFDBFCDCCCCCC00000240F8FBFDBF99
:102270000004024080B485B000AF78600023FB7397
:102280007B6893F82530DBB2022B08D07B680422F0
:102290005A647B68002283F82420012340E07B6895
:1022A0001B681A687B681B6822F00E021A607B6844
:1022B0001B6D1A687B681B6D22F480721A607B6844
:1022C0001B681A687B681B6822F001021A607B6831
:1022D000DB6C03F01C027B689B6C012101FA02F2AB
:1022E0005A607B685B6D7A68926D5A607B68DB6DC3
:1022F000002B0CD07B68DB6D1A687B68DB6D22F4E9
:1023000080721A607B681B6E7A68526E5A607B68B6
:10231000012283F825207B68002283F82420FB7BA0
:1023200018461437BD465DF8047B704780B584B00D
:1023300000AF78600023FB737B6893F82530DBB235
:10234000022B05D07B6804225A640123FB7347E00B
:102350007B681B681A687B681B6822F00E021A6093
:102360007B681B681A687B681B6822F001021A6090
:102370007B681B6D1A687B681B6D22F480721A6083
:102380007B68DB6C03F01C027B689B6C012101FA0B
:1023900002F25A607B685B6D7A68926D5A607B6866
:1023A000DB6D002B0CD07B68DB6D1A687B68DB6D06
:1023B00022F480721A607B681B6E7A68526E5A60D3
:1023C0007B68012283F825207B68002283F8242083
:1023D0007B681B6C002B03D07B681B6C786898476C
:1023E000FB7B18461037BD4680BD80B584B000AF7A
:1023F00078607B689B6C1B68FB607B681B681B6854
:10240000BB607B68DB6C03F01C0304229A40FB6812
:102410001340002B53D0BB6803F00403002B4ED0B5
:102420007B681B681B6803F40043002B24D07B6887
:10243000DB6C03F01C027B689B6C042101FA02F246
:102440005A607B681B681B6803F48033002B09D13A
:102450007B681B6B002B00F0C0807B681B6B78686F
:102460009847BAE07B689B6B002B00F0B6807B68D6
:102470009B6B78689847B0E07B681B681B6803F02B
:102480002003002B07D17B681B681A687B681B68D8
:1024900022F004021A607B68DB6C03F01C027B688C
:1024A0009B6C042101FA02F25A607B681B6B002BC3
:1024B00000F093807B681B6B786898478DE07B68A1
:1024C000DB6C03F01C0302229A40FB681340002BD4
:1024D0004ED0BB6803F00203002B49D07B681B6819
:1024E0001B6803F40043002B18D07B681B681B6833
:1024F00003F48033002B08D17B685B6B002B6ED01C
:102500007B685B6B7868984769E07B68DB6A002BC7
:1025100065D07B68DB6A7868984760E07B681B68F9
:102520001B6803F02003002B0BD17B681B681A6823
:102530007B681B6822F00A021A607B68012283F81C
:1025400025207B68DB6C03F01C027B689B6C0221FE
:1025500001FA02F25A607B68002283F824207B682B
:10256000DB6A002B3BD07B68DB6A7868984736E0F3
:102570007B68DB6C03F01C0308229A40FB68134065
:10258000002B2ED0BB6803F00803002B29D07B68FA
:102590001B681A687B681B6822F00E021A607B6851
:1025A000DB6C03F01C027B689B6C012101FA02F2D8
:1025B0005A607B6801225A647B68012283F82520D7
:1025C0007B68002283F824207B68DB6B002B08D01B
:1025D0007B68DB6B7868984702E000BF00E000BFD3
:1025E00000BF00BF1037BD4680BD80B483B000AFD0
:1025F00078607B6893F82530DBB218460C37BD460F
:102600005DF8047B704780B485B000AF78603960B6
:102610000023FB727B68002B03D10123FB72FB7A42
:102620001BE07B681B681B68FB603B6803F01003C2
:10263000002B0DD03B6803F48013002B04D0FB6803
:1026400043F48013FB6003E0FB6823F48013FB601A
:102650007B681B68FA681A60FB7A18461437BD4617
:102660005DF8047B7047000080B485B000AF7860EF
:102670007B681B681A46174B9A420AD87B68DB6C4A
:102680009B089B0003F1804303F502337A681365CE
:1026900007E07B68DB6C9B089A000F4B13447A6859
:1026A00013657B681B68DBB2083B0C4AA2FB032363
:1026B0001B09FB607B680A4A5A65FB6803F01F032D
:1026C00001229A407B689A6500BF1437BD465DF8C9
:1026D000047B70470704024020080240CDCCCCCCDC
:1026E0008008024080B485B000AF78607B685B688A
:1026F000DBB2FB60FA680B4B13449B001A467B6805
:10270000DA657B68084A1A66FB68013B03F003033D
:1027100001229A407B685A6600BF1437BD465DF8B7
:10272000047B70473F8200104009024080B487B0AC
:1027300000AF7860396000237B6158E13B681A681C
:1027400001217B6901FA03F31340FB60FB68002B56
:1027500000F04A813B685B6803F00303012B05D05E
:102760003B685B6803F00303022B30D17B689B68F6
:102770003B617B695B00032202FA03F3DB433A69A6
:1027800013403B613B68DA687B695B0002FA03F344
:102790003A6913433B617B683A699A607B685B687E
:1027A0003B6101227B6902FA03F3DB433A69134080
:1027B0003B613B685B681B0903F001027B6902FA1D
:1027C00003F33A6913433B617B683A695A603B689B
:1027D0005B6803F00303032B17D07B68DB683B6166
:1027E0007B695B00032202FA03F3DB433A6913407F
:1027F0003B613B689A687B695B0002FA03F33A69C4
:1028000013433B617B683A69DA603B685B6803F0BD
:102810000303022B23D17B69DA087B68083253F863
:1028200022303B617B6903F007039B000F2202FA11
:1028300003F3DB433A6913403B613B681A697B69E8
:1028400003F007039B0002FA03F33A6913433B6169
:102850007B69DA087B680832396943F822107B68A3
:102860001B683B617B695B00032202FA03F3DB43D5
:102870003A6913403B613B685B6803F003027B6984
:102880005B0002FA03F33A6913433B617B683A69E0
:102890001A603B685B6803F44033002B00F0A480AF
:1028A0005A4A7B699B08183352F823303B617B6995
:1028B00003F00303DB000F2202FA03F3DB433A6960
:1028C00013403B617B68524A934225D07B68514A52
:1028D00093421FD07B68504A934219D07B684F4A7D
:1028E000934213D07B684E4A93420DD07B684D4A89
:1028F000934207D07B684C4A934201D106230CE0F7
:1029000007230AE0052308E0042306E0032304E08C
:10291000022302E0012300E000237A6902F00302AF
:10292000D20093403A6913433B6138497B699B0865
:1029300018333A6941F82320344B1B683B61FB682C
:10294000DB433A6913403B613B685B6803F48013E7
:10295000002B03D03A69FB6813433B612B4A3B6968
:1029600013602A4B5B683B61FB68DB433A691340A9
:102970003B613B685B6803F40013002B03D03A69AA
:10298000FB6813433B61214A3B6953601F4BD3F8FB
:1029900084303B61FB68DB433A6913403B613B6831
:1029A0005B6803F40033002B03D03A69FB681343E0
:1029B0003B61164A3B69C2F88430144BD3F880302F
:1029C0003B61FB68DB433A6913403B613B685B68F2
:1029D00003F48033002B03D03A69FB6813433B6157
:1029E0000A4A3B69C2F880307B6901337B613B68EE
:1029F0001A687B6922FA03F3002B7FF49FAE00BFB5
:102A000000BF1C37BD465DF8047B704700F40240F0
:102A1000000002420004024200080242000C02428E
:102A200000100242001402420018024280B483B037
:102A300000AF78600B467B8013467B707B78002B61
:102A400003D07A887B689A6102E07A887B689A6210
:102A500000BF0C37BD465DF8047B704780B582B07F
:102A600000AF78607B68002B01D1012381E07B6897
:102A700093F84130DBB2002B06D17B68002283F84B
:102A800040207868FEF79CFC7B68242283F8412074
:102A90007B681B681A687B681B6822F001021A6059
:102AA0007B685A687B681B6822F070621A617B68D9
:102AB0001B689A687B681B6822F400429A607B68F6
:102AC000DB68012B07D17B689A687B681B6842F43E
:102AD00000429A6006E07B689A687B681B6842F453
:102AE00004429A607B68DB68022B04D17B681B6818
:102AF0004FF400625A607B681B685B687A681268F2
:102B000043F0007343F4004353607B681B68DA684A
:102B10007B681B6822F40042DA607B681A697B6874
:102B20005B6942EA03017B689B691A027B681B6848
:102B30000A43DA607B68D9697B681A6A7B681B681C
:102B40000A431A607B681B681A687B681B6842F03E
:102B500001021A607B6800225A647B68202283F895
:102B600041207B6800221A637B68002283F84220A0
:102B7000002318460837BD4680BD000080B588B0E8
:102B800002AFF8607A601A460B467B8113463B81A0
:102B9000FB6893F84130DBB2202B40F0DA80FB6811
:102BA00093F84030012B01D10223D3E0FB680122CE
:102BB00083F84020FFF7A6F978617B690093192319
:102BC00001224FF40041F86800F01BFF0346002B80
:102BD00001D00123BEE0FB68212283F84120FB687D
:102BE000102283F84220FB6800225A64FB687A684E
:102BF0005A62FB683A895A85FB6800225A63FB686F
:102C00005B8D9BB2FF2B0ED9FB68FF221A85FB68F8
:102C10001B8DDAB27989514B00934FF08073F868BD
:102C200001F02AF96CE0FB685B8D9AB2FB681A85AB
:102C3000FB681B8DDAB27989484B00934FF0007323
:102C4000F86801F019F95BE07A69396AF86800F010
:102C500027FF0346002B01D001237BE0FB685B6A62
:102C60001A78FB681B689A62FB685B6A5A1CFB68EF
:102C70005A62FB685B8D9BB2013B9AB2FB685A8536
:102C8000FB681B8D013B9AB2FB681A85FB685B8D64
:102C90009BB2002B34D0FB681B8D002B30D17B699D
:102CA00000933B6A00228021F86800F0AAFE0346E8
:102CB000002B01D001234DE0FB685B8D9BB2FF2B05
:102CC0000ED9FB68FF221A85FB681B8DDAB2798961
:102CD000002300934FF08073F86801F0CDF80FE007
:102CE000FB685B8D9AB2FB681A85FB681B8DDAB2B4
:102CF0007989002300934FF00073F86801F0BCF865
:102D0000FB685B8D9BB2002B9ED17A69396AF868AB
:102D100000F00DFF0346002B01D001231AE0FB68F1
:102D20001B682022DA61FB681B685968FB681A6817
:102D30000B4B0B405360FB68202283F84120FB685B
:102D4000002283F84220FB68002283F84020002301
:102D500000E0022318461837BD4680BD00200080E1
:102D600000E800FE80B588B002AFF8607A601A46CD
:102D70000B467B8113463B81FB6893F84130DBB205
:102D8000202B40F0DB80FB6893F84030012B01D111
:102D90000223D4E0FB68012283F84020FFF7B2F859
:102DA00078617B690093192301224FF40041F86890
:102DB00000F027FE0346002B01D00123BFE0FB6893
:102DC000222283F84120FB68102283F84220FB680E
:102DD00000225A64FB687A685A62FB683A895A850D
:102DE000FB6800225A63FB685B8D9BB2FF2B0ED9F8
:102DF000FB68FF221A85FB681B8DDAB27989524B7A
:102E000000934FF08073F86801F036F86DE0FB68CE
:102E10005B8D9AB2FB681A85FB681B8DDAB27989E3
:102E2000494B00934FF00073F86801F025F85CE01F
:102E30007A69396AF86800F0BDFE0346002B01D0BC
:102E400001237CE0FB681B685A6AFB685B6AD2B2AC
:102E50001A70FB685B6A5A1CFB685A62FB681B8D20
:102E6000013B9AB2FB681A85FB685B8D9BB2013B04
:102E70009AB2FB685A85FB685B8D9BB2002B34D0FD
:102E8000FB681B8D002B30D17B6900933B6A0022CD
:102E90008021F86800F0B5FD0346002B01D0012326
:102EA0004DE0FB685B8D9BB2FF2B0ED9FB68FF22C8
:102EB0001A85FB681B8DDAB27989002300934FF0E5
:102EC0008073F86800F0D8FF0FE0FB685B8D9AB262
:102ED000FB681A85FB681B8DDAB2798900230093A1
:102EE0004FF00073F86800F0C7FFFB685B8D9BB282
:102EF000002B9DD17A69396AF86800F018FE034604
:102F0000002B01D001231AE0FB681B682022DA6144
:102F1000FB681B685968FB681A680C4B0B405360D0
:102F2000FB68202283F84120FB68002283F84220BE
:102F3000FB68002283F84020002300E002231846AB
:102F40001837BD4680BD00BF0024008000E800FEA9
:102F500080B584B000AF78607B681B689B69FB60BC
:102F60007B681B681B68BB607B685B6B002B05D0B4
:102F70007B685B6BBA68F9687868984700BF103760
:102F8000BD4680BD80B586B000AF78607B681B68A9
:102F90009B697B617B681B681B683B617B691B0AC3
:102FA00003F00103002B10D03B69DB0903F00103A0
:102FB000002B0AD07B685B6C43F001027B685A648B
:102FC0007B681B684FF48072DA617B699B0A03F0AF
:102FD0000103002B10D03B69DB0903F00103002B38
:102FE0000AD07B685B6C43F008027B685A647B689C
:102FF0001B684FF48062DA617B695B0A03F00103AE
:10300000002B10D03B69DB0903F00103002B0AD031
:103010007B685B6C43F002027B685A647B681B68C8
:103020004FF40072DA617B685B6CFB60FB6803F055
:103030000B03002B03D0F968786800F089FB00BF10
:103040001837BD4680BD80B483B000AF786000BF44
:103050000C37BD465DF8047B704780B483B000AF89
:10306000786000BF0C37BD465DF8047B704780B4C4
:1030700083B000AF78600B46FB7013463B8000BF07
:103080000C37BD465DF8047B704780B483B000AF59
:10309000786000BF0C37BD465DF8047B704780B494
:1030A00083B000AF786000BF0C37BD465DF8047B8D
:1030B000704780B483B000AF786000BF0C37BD4666
:1030C0005DF8047B704780B586B000AFF860B960EA
:1030D0007A60FB68DB6A7B61BB683B61FB6893F8E5
:1030E0004030012B01D10223ECE0FB68012283F880
:1030F00040203B695B0903F00103002B09D07B688A
:103100005B0903F00103002B03D03969F86800F074
:10311000BFF93B691B0903F00103002B4DD07B680D
:103120001B0903F00103002B47D0FB685B8D9BB2AA
:10313000002B28D1FB6893F84130DBB2282B08D153
:103140007B69B3F1007F04D13969F86800F0AAFA0D
:1031500032E0FB6893F84130DBB2292B0ED17B695A
:1031600013F5803F0AD0FB681B681022DA61F8680B
:1031700000F005FCF86800F02DF91DE0FB681B6805
:103180001022DA6196E0FB681B681022DA61FB68A6
:103190005B6C43F00402FB685A647B69002B04D02B
:1031A0007B69B3F1807F40F08580FB685B6C1946DA
:1031B000F86800F0CDFA7DE07CE03B699B0803F005
:1031C0000103002B30D07B689B0803F00103002B28
:1031D0002AD0FB685B8D9BB2002B18D0FB681B6864
:1031E0005A6AFB685B6AD2B21A70FB685B6A5A1C47
:1031F000FB685A62FB681B8D013B9AB2FB681A851B
:10320000FB685B8D9BB2013B9AB2FB685A85FB68F9
:103210005B8D9BB2002B4FD17B6913F5803F4BD068
:10322000F86800F0D7F847E03B69DB0803F00103DA
:10323000002B0AD07B68DB0803F00103002B04D0CD
:103240003969F86800F042F837E03B695B0803F041
:103250000103002B31D07B685B0803F00103002BD6
:103260002BD0FB685B8D9BB2002B18D0FB685B6A90
:103270001A78FB681B689A62FB685B6A5A1CFB68D9
:103280005A62FB685B8D9BB2013B9AB2FB685A8520
:10329000FB681B8D013B9AB2FB681A850DE07B69C8
:1032A000B3F1807F02D07B69002B06D1F86800F073
:1032B00091F802E000BF00E000BFFB68002283F845
:1032C0004020002318461837BD4680BD80B584B025
:1032D00000AF786039607B6893F84130DBB203F06F
:1032E0002803282B6AD17B681B689B691B0CDBB207
:1032F00003F00103FB737B681B689B691B0C9BB28B
:1033000003F0FE03BB817B681B689B689BB2C3F321
:1033100009037B817B681B68DB689BB203F0FE03BB
:103320003B817B68DB68022B38D17B89DB099AB251
:10333000BB8953409BB203F00603002B1CD17B8951
:10334000BB817B689B6C5A1C7B689A647B689B6C16
:10335000022B3BD17B6800229A647B681B680822A1
:10336000DA617B68002283F84020BA89FB7B19462A
:103370007868FFF77CFE29E03B89BB814FF4004170
:10338000786800F0ABFD7B68002283F84020BA89A2
:10339000FB7B19467868FFF76AFE17E04FF400419F
:1033A000786800F09BFD7B68002283F84020BA8992
:1033B000FB7B19467868FFF75AFE07E07B681B68BD
:1033C0000822DA617B68002283F8402000BF1037B2
:1033D000BD4680BD80B584B000AF78607B681B6857
:1033E0001B68FB607B68002283F84220FB689B0B14
:1033F00003F00103002B08D07B681B681A687B6808
:103400001B6822F480421A600DE0FB68DB0B03F0BE
:103410000103002B07D07B681B681A687B681B6858
:1034200022F400421A607B6893F84130DBB2292B0A
:1034300012D17B68282283F841207B6821221A63FD
:103440000121786800F04AFD7B68002283F8402063
:103450007868FFF7F8FD17E07B6893F84130DBB23E
:103460002A2B11D17B68282283F841207B682222F5
:103470001A630221786800F031FD7B68002283F82E
:1034800040207868FFF7E9FD00BF1037BD4680BDDA
:1034900080B586B000AF786039607B681B681B68B8
:1034A0003B613B687B617B6893F84130FB737B68D1
:1034B0001B682022DA61FB7B212B02D0FB7B292BAE
:1034C00008D148F20101786800F008FD7B682122EC
:1034D0001A630DE0FB7B222B02D0FB7B2A2B07D14A
:1034E00048F20201786800F0F9FC7B6822221A6336
:1034F0007B681B685A687B681B6842F400425A600C
:103500007B681B6859687B681A68644B0B40536082
:10351000786800F034FA3B699B0B03F00103002B41
:1035200013D07B681B681A687B681B6822F4804292
:103530001A607B689B6B002B20D07B689B6B1B68A1
:103540005B689AB27B685A8518E03B69DB0B03F035
:103550000103002B12D07B681B681A687B681B680C
:1035600022F400421A607B68DB6B002B06D07B687C
:10357000DB6B1B685B689AB27B685A857B699B082A
:1035800003F00103002B20D07B6923F004037B614F
:103590007B681B685A6A7B685B6AD2B21A707B6868
:1035A0005B6A5A1C7B685A627B681B8D002B0CD0AF
:1035B0007B681B8D013B9AB27B681A857B685B8DAB
:1035C0009BB2013B9AB27B685A857B685B8D9BB24C
:1035D000002B05D07B685B6C43F004027B685A6467
:1035E0007B68002283F842207B6800225A637B6854
:1035F0005B6C002B10D07B685B6C1946786800F020
:10360000A7F87B6893F84130DBB2282B41D1796968
:10361000786800F047F83CE07B68DB6A13F5803F90
:1036200014D07868FFF7D6FE7B681D4ADA627B68A3
:10363000202283F841207B6800221A637B680022E5
:1036400083F840207868FFF720FD22E07B6893F83C
:103650004130DBB2222B0ED17B68202283F841203F
:103660007B6800221A637B68002283F84020786818
:10367000FFF7F3FC0DE07B68202283F841207B6894
:1036800000221A637B68002283F840207868FFF7E5
:10369000DAFC00BF1837BD4680BD00BF00E800FE61
:1036A0000000FFFF80B582B000AF786039607B68B2
:1036B000264ADA627B6800221A637B68202283F83C
:1036C00041207B68002283F842207B6800225A63F5
:1036D0003B689B0803F00103002B22D07B681B682A
:1036E0005A6A7B685B6AD2B21A707B685B6A5A1C42
:1036F0007B685A627B681B8D002B12D07B681B8D08
:10370000013B9AB27B681A857B685B8D9BB2013B5B
:103710009AB27B685A857B685B6C43F004027B68D5
:103720005A6448F20301786800F0D8FB7B681B6894
:103730001022DA617B68002283F840207868FFF766
:10374000A4FC00BF0837BD4680BD00BF0000FFFFDE
:1037500080B584B000AF786039607B6893F8413001
:10376000FB737B68002283F842207B686D4ADA6233
:103770007B6800225A857B685A6C3B681A437B68D9
:103780005A64FB7B282B05D0FB7B292B02D0FB7BCB
:103790002A2B0BD10321786800F0A0FB7B6828223C
:1037A00083F841207B68604A5A6330E048F20301A5
:1037B000786800F093FB786800F0E1F87B6893F894
:1037C0004130DBB2602B1FD07B68202283F8412080
:1037D0007B681B689B6903F02003202B14D17B6856
:1037E0001B689B6903F01003102B09D17B681B68D1
:1037F0001022DA617B685B6C43F004027B685A64D8
:103800007B681B682022DA617B6800225A637B6830
:103810001B6BBB607B689B6B002B39D0BB68112B8B
:1038200002D0BB68212B33D17B681B681B6803F473
:103830008043B3F5804F07D17B681B681A687B68AB
:103840001B6822F480421A607B689B6B1846FEF767
:10385000CCFE0346012B17D07B689B6B334A1A645E
:103860007B68002283F840207B689B6B1846FEF73C
:103870005DFD0346002B4DD07B689B6B1B6C7A680B
:10388000926B1046984745E0786800F051F841E0A7
:103890007B68DB6B002B39D0BB68122B02D0BB6876
:1038A000222B33D17B681B681B6803F40043B3F5FC
:1038B000004F07D17B681B681A687B681B6822F47D
:1038C00000421A607B68DB6B1846FEF78EFE0346EB
:1038D000012B17D07B68DB6B144A1A647B680022CB
:1038E00083F840207B68DB6B1846FEF71FFD03461C
:1038F000002B11D07B68DB6B1B6C7A68D26B104697
:10390000984709E0786800F013F805E0786800F05F
:103910000FF802E000BF00E000BF00BF1037BD4657
:1039200080BD00BF0000FFFFC7300008C739000896
:1039300080B582B000AF78607B6893F84130DBB22D
:10394000602B0ED17B68202283F841207B68002207
:103950001A637B68002283F840207868FFF7A9FB90
:1039600009E07B6800221A637B68002283F840200C
:103970007868FFF794FB00BF0837BD4680BD80B470
:1039800083B000AF78607B681B689B6903F002031B
:10399000022B03D17B681B6800229A627B681B683C
:1039A0009B6903F00103012B07D07B681B689A69B0
:1039B0007B681B6842F001029A6100BF0C37BD466C
:1039C0005DF8047B704780B584B000AF78607B6899
:1039D0009B6AFB60FB689B6B002B03D0FB689B6BB7
:1039E00000221A64FB68DB6B002B03D0FB68DB6BE7
:1039F00000221A64F868FFF79BFF00BF1037BD462E
:103A000080BD80B584B000AFF860B9603B601346FC
:103A1000FB7131E03B68B3F1FF3F2DD0FEF772FA46
:103A20000246BB69D31A3A689A4202D33B68002B1C
:103A300022D1FB681B689A69BB681340BA689A4236
:103A40000CBF01230023DBB21A46FB799A4213D143
:103A5000FB685B6C43F02002FB685A64FB68202221
:103A600083F84120FB68002283F84220FB68002293
:103A700083F8402001230FE0FB681B689A69BB684C
:103A80001340BA689A420CBF01230023DBB21A46E6
:103A9000FB799A42BED0002318461037BD4680BD40
:103AA00080B584B000AFF860B9607A6033E07A68BE
:103AB000B968F86800F000F90346002B01D0012333
:103AC00031E0BB68B3F1FF3F25D0FEF71BFA024699
:103AD0007B68D31ABA689A4202D3BB68002B1AD10A
:103AE000FB681B689B6903F00203022B13D0FB6881
:103AF0005B6C43F02002FB685A64FB68202283F869
:103B00004120FB68002283F84220FB68002283F8F2
:103B10004020012307E0FB681B689B6903F0020358
:103B2000022BC4D1002318461037BD4680BD80B596
:103B300084B000AFF860B9607A602FE07A68B96845
:103B4000F86800F0B9F80346002B01D001232DE0FE
:103B5000FEF7D8F902467B68D31ABA689A4202D3B4
:103B6000BB68002B1AD1FB681B689B6903F020031C
:103B7000202B13D0FB685B6C43F02002FB685A6477
:103B8000FB68202283F84120FB68002283F8422052
:103B9000FB68002283F84020012307E0FB681B68D4
:103BA0009B6903F02003202BC8D10023184610374F
:103BB000BD4680BD80B584B000AFF860B9607A6062
:103BC0006BE07A68B968F86800F076F80346002B75
:103BD00001D0012369E0FB681B689B6903F02003A7
:103BE000202B38D1FB681B689B6903F00403042B6E
:103BF00005D1FB681B8D002B01D0002355E0FB682D
:103C00001B689B6903F01003102B07D1FB681B682E
:103C10001022DA61FB6804225A6402E0FB68002289
:103C20005A64FB681B682022DA61FB681B685968CC
:103C3000FB681A681F4B0B405360FB68202283F817
:103C40004120FB68002283F84220FB68002283F8B1
:103C50004020012329E0FEF755F902467B68D31A7C
:103C6000BA689A4202D3BB68002B16D1FB681B6866
:103C70009B6903F00403042B0FD0FB685B6C43F0DB
:103C80002002FB685A64FB68202283F84120FB680D
:103C9000002283F84020012307E0FB681B689B6932
:103CA00003F00403042B8CD1002318461037BD46C3
:103CB00080BD00BF00E800FE80B58AB000AFF860AC
:103CC000B9607A60002387F82730FB681B689B691E
:103CD000BB6100233B627B68FB61BB6903F010039F
:103CE000002B68D0FB681B681022DA6149E0BB68D2
:103CF000B3F1FF3F45D0FEF705F90246FB69D31A41
:103D0000BA689A4202D3BB68002B3AD1FB681B68A1
:103D10005B6803F480437B61FB6893F84230FB747B
:103D2000FB681B689B6903F40043B3F5004F21D186
:103D30007B69B3F5804F1DD0FB7C202B1AD0FB682C
:103D40001B685A68FB681B6842F480425A60FEF7A1
:103D5000D9F8F8610EE0FEF7D5F80246FB69D31AF0
:103D6000192B07D93B6A43F020033B62012387F8F4
:103D7000273006E0FB681B689B6903F02003202BBB
:103D8000E9D1FB681B689B6903F02003202B03D05B
:103D900097F82730002BAAD097F82730002B03D1B3
:103DA000FB681B682022DA613B6A43F004033B6234
:103DB000012387F82730FB681B689B69BB61BB69DF
:103DC00003F48073002B0BD03B6A43F001033B628A
:103DD000FB681B684FF48072DA61012387F8273093
:103DE000BB6903F48063002B0BD03B6A43F00803EC
:103DF0003B62FB681B684FF48062DA61012387F83D
:103E00002730BB6903F40073002B0BD03B6A43F0EF
:103E100002033B62FB681B684FF40072DA61012306
:103E200087F8273097F82730002B1CD0F868FFF769
:103E3000A6FDFB681B685968FB681A680D4B0B40B0
:103E40005360FB685A6C3B6A1A43FB685A64FB6810
:103E5000202283F84120FB68002283F84220FB687F
:103E6000002283F8402097F8273018462837BD46AF
:103E700080BD00BF00E800FE80B487B000AFF860EE
:103E80007B600B467B8113467B727B89C3F30902FF
:103E90007B7A1B0403F47F031A437B681A433B6A53
:103EA000134323F000437B61FB681B685A683B6A3D
:103EB0005B0D03F48061084B0B43DB4302EA030113
:103EC000FB681B687A690A435A6000BF1C37BD460D
:103ED0005DF8047B704700BFFF63FF0380B485B0CB
:103EE00000AF78600B467B800023FB607B8803F08B
:103EF0000103002B0FD0FB6843F04203FB607B689B
:103F000093F84130DBB203F02803282B03D0FB6881
:103F100043F0B003FB607B8803F00203002B0FD05B
:103F2000FB6843F04403FB607B6893F84130DBB2ED
:103F300003F02803282B03D0FB6843F0B003FB6099
:103F4000B7F90230002B03DAFB6843F0B803FB60DB
:103F50007B88102B03D1FB6843F09003FB607B88C8
:103F6000202B03D1FB6843F02003FB607B88402BB0
:103F700003D1FB6843F04003FB607B681B68196852
:103F8000FB68DA437B681B680A401A6000BF14377D
:103F9000BD465DF8047B704780B483B000AF7860A5
:103FA00039607B6893F84130DBB2202B38D17B68D5
:103FB00093F84030012B01D1022332E07B680122CB
:103FC00083F840207B68242283F841207B681B68AB
:103FD0001A687B681B6822F001021A607B681B6804
:103FE0001A687B681B6822F480521A607B681B6821
:103FF00019687B681B683A680A431A607B681B680B
:104000001A687B681B6842F001021A607B682022F4
:1040100083F841207B68002283F84020002300E0E1
:10402000022318460C37BD465DF8047B704780B408
:1040300085B000AF786039607B6893F84130DBB2BF
:10404000202B39D17B6893F84030012B01D102231A
:1040500033E07B68012283F840207B68242283F8C8
:1040600041207B681B681A687B681B6822F001028C
:104070001A607B681B681B68FB60FB6823F4706335
:10408000FB603B681B02FA681343FB607B681B689C
:10409000FA681A607B681B681A687B681B6842F0C4
:1040A00001021A607B68202283F841207B6800228D
:1040B00083F84020002300E0022318461437BD4651
:1040C0005DF8047B7047000080B400AF054B1B68AF
:1040D000044A43F00103136000231846BD465DF80F
:1040E000047B70470004034080B400AF054B1B689D
:1040F000044A43F48073136000BFBD465DF8047B3F
:10410000704700BF0070004080B400AF044B1B68D4
:1041100003F4C0631846BD465DF8047B704700BFDA
:104120000070004080B584B000AF7860274B1B68FA
:1041300003F4C063BB6000F061F80346B3F5004FC1
:1041400001D101233EE0214BDB6803F40043B3F5CA
:10415000004F01D1012335E0BA687B689A4201D152
:1041600000232FE0194B1B6823F4C06217497B68BA
:1041700013430B60164B1B685B09164AA2FB032313
:10418000DB09322202FB03F3134AA2FB0323DB0801
:104190000133FB6002E0FB68013BFB600B4B5B699A
:1041A00003F48063B3F5806F02D1FB68002BF2D17A
:1041B000064B5B6903F48063B3F5806F01D1032381
:1041C00000E0002318461037BD4680BD0070004057
:1041D00058000020C55A7C0ACDCCCCCC80B400AFAE
:1041E000054B9B68044A43F48043936000BFBD467F
:1041F0005DF8047B704700BF0070004080B483B05E
:1042000000AF0F4B1B693B603B6803F48053002BEE
:1042100003D04FF480537B600AE03B6803F4004313
:10422000002B03D14FF400437B6001E000237B604F
:104230007B6818460C37BD465DF8047B704700BFAD
:104240000070004080B588B000AF78607B68002BBC
:1042500002D1012300F0C2BC994B9B6803F00C0310
:10426000BB61974BDB6803F003037B617B681B68D2
:1042700003F01003002B00F0E980BB69002B06D08F
:10428000BB690C2B40F083807B69012B7FD18C4B69
:104290001B6803F00203002B06D07B68DB69002B50
:1042A00002D1012300F09ABC7B685A6A844B1B68D8
:1042B00003F00803002B04D0814B1B6803F0F003CC
:1042C00005E07F4BD3F894301B0903F0F0039342D1
:1042D00024D27B685B6A184600F0CEFE0346002BB2
:1042E00002D0012300F07ABC754B1B68744A43F07E
:1042F00008031360724B1B6823F0F0027B685B6A53
:104300006F4913430B606E4B5B6823F47F427B68FD
:104310001B6A1B026A4913434B6026E0684B1B680B
:10432000674A43F008031360654B1B6823F0F002F3
:104330007B685B6A624913430B60614B5B6823F4E3
:104340007F427B681B6A1B025D4913434B60BB695C
:10435000002B0AD17B685B6A184600F08DFE03468D
:10436000002B02D0012300F039BC00F017FE0346F9
:10437000544A1360544B1B681846FDF729FB03464B
:10438000FB73FB7B002B60D0FB7B00F027BC7B68C2
:10439000DB69002B39D04A4B1B68494A43F00103C3
:1043A0001360FDF7AFFD38610FE0FDF7ABFD02468E
:1043B0003B69D31A022B08D9414B1B6803F0020357
:1043C000002B02D1032300F009BC3D4B1B6803F016
:1043D0000203002BE9D03A4B1B68394A43F008032B
:1043E0001360374B1B6823F0F0027B685B6A34492B
:1043F00013430B60324B5B6823F47F427B681B6A7C
:104400001B022F4913434B6020E02D4B1B682C4AA5
:1044100023F001031360FDF775FD38610EE0FDF731
:1044200071FD02463B69D31A022B07D9244B1B6846
:1044300003F00203002B01D00323CFE3204B1B68C2
:1044400003F00203002BEAD100E000BF7B681B6889
:1044500003F00103002B7ED0BB69082B05D0BB699C
:104460000C2B0ED17B69032B0BD1154B1B6803F46E
:104470000033002B6ED07B685B68002B6AD1012370
:10448000ACE37B685B68B3F5803F06D10C4B1B68DF
:104490000B4A43F48033136024E07B685B68B3F518
:1044A000A02F13D1064B1B68054A43F480231360E9
:1044B000034B1B68024A43F48033136012E000BFD1
:1044C00000100240580000205C0000208B4B1B684D
:1044D0008A4A23F480331360884B1B68874A23F48D
:1044E000802313607B685B68002B19D0FDF70AFD01
:1044F00038610EE0FDF706FD02463B69D31A642BD6
:1045000007D97E4B1B6803F40033002B01D1032332
:1045100064E37A4B1B6803F40033002BEAD01AE003
:10452000FDF7F0FC38610EE0FDF7ECFC02463B695C
:10453000D31A642B07D9714B1B6803F40033002B8B
:1045400001D003234AE36D4B1B6803F40033002BB7
:10455000EAD100E000BF7B681B6803F00203002B78
:104560006CD0BB69042B05D0BB690C2B19D17B69BE
:10457000022B16D1614B1B6803F48063002B05D01E
:104580007B68DB68002B01D1012327E35B4B5B6871
:1045900023F0FE427B681B691B06584913434B609E
:1045A0004CE07B68DB68002B29D0544B1B68534AD6
:1045B00043F480731360FDF7A5FC38610EE0FDF74E
:1045C000A1FC02463B69D31A022B07D94B4B1B684F
:1045D00003F48063002B01D10323FFE2474B1B68E8
:1045E00003F48063002BEAD0444B5B6823F0FE4267
:1045F0007B681B691B06414913434B601EE03F4B20
:104600001B683E4A23F480731360FDF77BFC38611E
:104610000EE0FDF777FC02463B69D31A022B07D95F
:10462000364B1B6803F48063002B01D00323D5E2D3
:10463000324B1B6803F48063002BEAD17B681B6854
:1046400003F00803002B62D07B685B69002B38D035
:104650007B689B69002B08D1284BD3F89430274AFC
:1046600023F01003C2F8943007E0244BD3F89430C1
:10467000224A43F01003C2F89430204BD3F8943010
:104680001E4A43F00103C2F89430FDF73BFC386149
:104690000FE0FDF737FC02463B69D31A072B08D918
:1046A000164BD3F8943003F00203002B01D10323FF
:1046B00094E2124BD3F8943003F00203002BE8D0BD
:1046C00025E00E4BD3F894300C4A23F00103C2F8D6
:1046D0009430FDF717FC386112E0FDF713FC024639
:1046E0003B69D31A072B0BD9044BD3F8943003F052
:1046F0000203002B04D0032370E200BF001002402D
:10470000A84BD3F8943003F00203002BE5D17B686B
:104710001B6803F00403002B00F02D810023FB77BE
:10472000A04B9B6D03F08053002B0DD19D4B9B6DD7
:104730009C4A43F0805393659A4B9B6D03F08053E2
:10474000BB60BB680123FB77974B1B6803F4807346
:10475000002B1ED1944B1B68934A43F48073136063
:10476000FDF7D0FB38610EE0FDF7CCFB02463B695C
:10477000D31A022B07D98C4B1B6803F48073002BD0
:1047800001D103232AE2884B1B6803F48073002BBA
:10479000EAD07B689B6803F00103002B1FD07B6885
:1047A0009B6803F00403002B10D07E4BD3F89030AD
:1047B0007C4A43F00403C2F890307A4BD3F890302F
:1047C000784A43F00103C2F8903018E0754BD3F8F3
:1047D0009030744A43F00103C2F890300FE0714BFF
:1047E000D3F890306F4A23F00103C2F890306D4B3C
:1047F000D3F890306B4A23F00403C2F890307B6802
:104800009B68002B68D0FDF77DFB386111E0FDF758
:1048100079FB02463B69D31A41F28832934208D9A8
:10482000604BD3F8903003F00203002B01D1032337
:10483000D4E15C4BD3F8903003F00203002BE6D0B8
:104840007B689B6803F08003002B22D0554BD3F884
:104850009030544A43F08003C2F8903011E0FDF7E5
:1048600051FB02463B69D31A41F28832934208D980
:104870004C4BD3F8903003F40063002B01D1032399
:10488000ACE1484BD3F8903003F40063002BE6D042
:1048900068E0444BD3F89030424A23F08003C2F8DA
:1048A000903011E0FDF72EFB02463B69D31A41F22E
:1048B0008832934208D93B4BD3F8903003F400631D
:1048C000002B01D0032389E1364BD3F8903003F459
:1048D0000063002BE6D145E0FDF714FB386111E0E1
:1048E000FDF710FB02463B69D31A41F2883293422E
:1048F00008D92C4BD3F8903003F00203002B01D0E1
:1049000003236BE1274BD3F8903003F00203002B15
:10491000E6D1244BD3F8903003F08003002B21D054
:10492000204BD3F890301F4A23F08003C2F8903018
:1049300011E0FDF7E7FA02463B69D31A41F28832EB
:10494000934208D9174BD3F8903003F40063002B3F
:1049500001D0032342E1134BD3F8903003F40063FA
:10496000002BE6D1FB7F012B05D10E4B9B6D0D4A31
:1049700023F0805393657B681B6803F02003002BB2
:104980004FD07B689B6A002B28D0064BD3F8983019
:10499000044A43F00103C2F89830FDF7B3FA3861D6
:1049A00014E000BF0010024000700040FDF7AAFABA
:1049B00002463B69D31A022B08D98A4BD3F89830A8
:1049C00003F00203002B01D1032307E1854BD3F849
:1049D000983003F00203002BE8D022E0814BD3F89B
:1049E0009830804A23F00103C2F89830FDF78AFA24
:1049F00038610FE0FDF786FA02463B69D31A022BB5
:104A000008D9784BD3F8983003F00203002B01D07B
:104A10000323E3E0734BD3F8983003F00203002B39
:104A2000E8D17B68DB6A002B00F0D7806D4B9B6878
:104A300003F00C030C2B00F091807B68DB6A022BE7
:104A400066D1684B1B68674A23F080731360FDF7DB
:104A500059FA38610EE0FDF755FA02463B69D31A60
:104A6000022B07D95F4B1B6803F00073002B01D0AA
:104A70000323B3E05B4B1B6803F00073002BEAD108
:104A8000584BDA68584B13407A68116B7A68526B4E
:104A9000013A120111437A68926B120211437A684B
:104AA000126C5208013A520511437A68526C52084E
:104AB000013A520611437A68D26BD2060A43494939
:104AC0001343CB60474B1B68464A43F08073136027
:104AD000444BDB68434A43F08073D360FDF712FA1E
:104AE00038610EE0FDF70EFA02463B69D31A022B3D
:104AF00007D93C4B1B6803F00073002B01D1032343
:104B00006CE0384B1B6803F00073002BEAD064E0C4
:104B1000344B1B68334A23F080731360FDF7F2F9BE
:104B200038610EE0FDF7EEF902463B69D31A022B1D
:104B300007D92C4B1B6803F00073002B01D0032313
:104B40004CE0284B1B6803F00073002BEAD1254B87
:104B5000DA682449254B1340CB603EE07B68DB6A72
:104B6000012B01D1012339E01E4BDB687B617B699E
:104B700003F003027B681B6B9A422CD17B6903F024
:104B8000F0027B685B6B013B1B019A4223D17B697E
:104B900003F4FE427B689B6B1B029A421BD17B692C
:104BA00003F078427B68DB6BDB069A4213D17B69AA
:104BB00003F4C0027B681B6C5B08013B5B059A42F7
:104BC00009D17B6903F0C0627B685B6C5B08013BC9
:104BD0005B069A4201D0012300E0002318462037EB
:104BE000BD4680BD001002400C809F01FCFFEEFE20
:104BF00080B586B000AF7860396000237B617B6848
:104C0000002B01D101231CE1904B1B6803F00F0323
:104C10003A689A4210D98D4B1B6823F00F028B49DA
:104C20003B6813430B60894B1B6803F00F033A6822
:104C30009A4201D0012304E17B681B6803F0020360
:104C4000002B10D07B689A68814B9B6803F0F003BF
:104C50009A4208D97E4B9B6823F0F0027B689B68E0
:104C60007B4913438B607B681B6803F00103002BB7
:104C700000F085807B685B68032B1FD1744B1B6839
:104C800003F00073002B01D10123DAE000F058FAA1
:104C900038613B696F4A934247D96D4B9B6803F07B
:104CA000F003002B41D16A4B9B6823F0F003684A64
:104CB00043F08003936080237B6136E07B685B6810
:104CC000022B07D1624B1B6803F40033002B15D174
:104CD0000123B6E07B685B68002B07D15C4B1B6847
:104CE00003F00203002B09D10123AAE0584B1B68F3
:104CF00003F48063002B01D10123A2E000F0B0F89F
:104D000038613B69534A93420FD9514B9B6803F07A
:104D1000F003002B09D14E4B9B6823F0F0034C4A63
:104D200043F08003936080237B61494B9B6823F0B1
:104D300003027B685B68464913438B60FDF7E2F82A
:104D4000F86013E0FDF7DEF80246FB68D31A41F283
:104D5000883293420AD93E4B9B6803F00C027B6871
:104D60005B689B009A4201D003236AE0384B9B6842
:104D700003F00C027B685B689B009A42E2D17B697E
:104D8000802B05D1324B9B68314A23F0F0039360AE
:104D90007B681B6803F00203002B10D07B689A68C5
:104DA0002B4B9B6803F0F0039A4208D2284B9B6878
:104DB00023F0F0027B689B68254913438B60234BEB
:104DC0001B6803F00F033A689A4210D21F4B1B680E
:104DD00023F00F021D493B6813430B601B4B1B68FC
:104DE00003F00F033A689A4201D0012329E07B685F
:104DF0001B6803F00403002B08D0154B9B6823F4B9
:104E0000E0627B68DB68124913438B607B681B6838
:104E100003F00803002B09D00D4B9B6823F460526C
:104E20007B681B69DB000A4913438B6000F0B6F80E
:104E30000346094A1360094B1B681846FCF7C8FD76
:104E4000034618461837BD4680BD00BF002002400B
:104E50000010024000B4C404580000205C00002090
:104E600080B489B000AF0023FB610023BB61474BD6
:104E70009B6803F00C033B61444BDB6803F00303C6
:104E8000FB603B69002B05D03B690C2B21D1FB68F3
:104E9000012B1ED13D4B1B6803F00803002B07D1EB
:104EA0003A4BD3F894301B0A03F00F03FB6105E083
:104EB000364B1B681B0903F00F03FB61344AFB6987
:104EC00052F82330FB613B69002B0DD1FB69BB61BC
:104ED0000AE03B69042B02D12E4BBB6104E03B6925
:104EE000082B01D12C4BBB613B690C2B46D1274BC6
:104EF000DB6803F00303BB60244BDB681B0903F092
:104F00000F0301337B60BB68022B03D0BB68032B0C
:104F10000DD019E01F4A7B68B2FBF3F31B4AD2683D
:104F2000120A02F07F0202FB03F37B6119E01A4AC6
:104F30007B68B2FBF3F3154AD268120A02F07F02D3
:104F400002FB03F37B610CE0FA697B68B2FBF3F3CD
:104F50000E4AD268120A02F07F0202FB03F37B6161
:104F600000BF0A4BDB685B0E03F0030301335B00F9
:104F70003B607A693B68B2FBF3F3BB61BB691846DF
:104F80002437BD465DF8047B704700BF0010024027
:104F9000445701080024F4008096980080B500AFC3
:104FA000FFF75EFF0246054B9B681B0903F00F03EA
:104FB0000349CB5C22FA03F3184680BD001002407F
:104FC0002C57010880B500AFFFF7E8FF0246054BFC
:104FD0009B681B0A03F007030349CB5C22FA03F327
:104FE000184680BD001002403C57010880B500AF54
:104FF000FFF7D4FF0246054B9B68DB0A03F007036B
:105000000349CB5C22FA03F3184680BD001002402E
:105010003C57010880B483B000AF786039607B688A
:105020000F221A60124B9B6803F003027B685A60E0
:105030000F4B9B6803F0F0027B689A600C4B9B68F7
:1050400003F4E0627B68DA60094B9B68DB0803F4D9
:10505000E0627B681A61074B1B6803F00F023B6834
:105060001A6000BF0C37BD465DF8047B704700BF77
:10507000001002400020024080B586B000AF78608A
:1050800000237B612C4B9B6D03F08053002B03D0DE
:10509000FFF73AF8386114E0274B9B6D264A43F03E
:1050A00080539365244B9B6D03F08053FB60FB683A
:1050B000FFF72AF83861204B9B6D1F4A23F080537D
:1050C00093653B69002B03D03B69B3F5007F0BD19F
:1050D0007B68802B19D97B68A02B02D902237B61C6
:1050E00013E001237B6110E07B68802B02D903234E
:1050F0007B610AE07B68802B02D102237B6104E0A4
:105100007B68702B01D101237B610C4B1B6823F062
:105110000F020A497B6913430B60084B1B6803F0BD
:105120000F037A699A4201D0012300E00023184658
:105130001837BD4680BD00BF00100240002002406D
:1051400080B487B000AF314BDB6803F00303FB6032
:105150002E4BDB681B0903F00F030133BB60FB68B8
:10516000032B15D0FB68032B39D8FB68012B1CD00F
:10517000FB68022B33D1264ABB68B2FBF3F3234A08
:10518000D268120A02F07F0202FB03F33B6129E0BE
:10519000204ABB68B2FBF3F31C4AD268120A02F041
:1051A0007F0202FB03F33B611CE0184B1B6803F01A
:1051B0000803002B07D1154BD3F894301B0A03F0DA
:1051C0000F037B6105E0114B1B681B0903F00F0304
:1051D0007B61114A7B6952F823303B6102E0002376
:1051E0003B6100BF094BDB685B0E03F00303013337
:1051F0005B007B603A697B68B2FBF3F33B603B6822
:1052000018461C37BD465DF8047B7047001002400D
:105210000024F400809698004457010880B588B0B7
:1052200000AF78600023FB770023BB777B681B68A7
:1052300003F40063002B40D07B68DB6E802B2AD008
:10524000802B25D8602B26D0602B21D8402B06D070
:10525000402B1DD8002B09D0202B10D018E08F4BED
:10526000DB688E4A43F48033D36015E07B680433F7
:105270000021184601F0F8FA0346FB770CE07B6842
:1052800020330021184601F0D5FB0346FB7703E0ED
:105290000123FB7700E000BFFB7F002B0BD17F4B8E
:1052A000D3F89C3023F0E0027B68DB6E7B4913432C
:1052B000C1F89C3001E0FB7FBB777B681B6803F47F
:1052C0008053002B47D07B681B6FB3F5806F30D0C5
:1052D000B3F5806F2AD8B3F5407F2AD0B3F5407F6D
:1052E00024D8B3F5007F08D0B3F5007F1ED8002B7B
:1052F0000AD0B3F5807F10D018E0684BDB68674AAE
:1053000043F48033D36015E07B68043300211846F2
:1053100001F0AAFA0346FB770CE07B6820330021FA
:10532000184601F087FB0346FB7703E00123FB7778
:1053300000E000BFFB7F002B0BD1584BD3F89C3013
:1053400023F4E0627B681B6F54491343C1F89C301F
:1053500001E0FB7FBB777B681B6803F40033002B05
:1053600000F0AB800023FB754C4B9B6D03F080532A
:10537000002B0DD1494B9B6D484A43F080539365F8
:10538000464B9B6D03F08053FB60FB680123FB756C
:10539000434B1B68424A43F480731360FCF7B2FD31
:1053A00038610FE0FCF7AEFD02463B69D31A022BD1
:1053B00008D93B4B1B6803F48073002B09D10323EE
:1053C000FB7706E0364B1B6803F48073002BE9D0B3
:1053D00000E000BFFB7F002B64D1304BD3F890304E
:1053E00003F44073BB61BB69002B1FD07B68D3F80B
:1053F0009030BA699A4219D0284BD3F8903023F4F0
:105400004073BB61254BD3F89030244A43F480337A
:10541000C2F89030214BD3F89030204A23F48033E7
:10542000C2F890301D4ABB69C2F89030BB6903F0E6
:105430000103002B1FD0FCF765FD386112E0FCF77B
:1054400061FD02463B69D31A41F28832934209D981
:10545000124BD3F8903003F00203002B0AD1032340
:10546000FB7707E00D4BD3F8903003F00203002BDD
:10547000E5D000E000BFFB7F002B0CD1074BD3F839
:10548000903023F440727B68D3F890300349134383
:10549000C1F8903008E0FB7FBB7705E000100240C8
:1054A00000700040FB7FBB77FB7D012B05D19C4B3F
:1054B0009B6D9B4A23F0805393657B681B6803F0C8
:1054C0000103002B0AD0964BD3F8883023F0030257
:1054D0007B685B6B92491343C1F888307B681B681B
:1054E00003F00203002B0AD08D4BD3F8883023F051
:1054F0000C027B689B6B8A491343C1F888307B6838
:105500001B6803F00403002B0AD0854BD3F88830C6
:1055100023F030027B68DB6B81491343C1F888308C
:105520007B681B6803F00803002B0AD07C4BD3F880
:10553000883023F0C0027B681B6C79491343C1F8A3
:1055400088307B681B6803F01003002B0AD0744B73
:10555000D3F8883023F440727B685B6C7049134346
:10556000C1F888307B681B6803F02003002B0AD049
:105570006B4BD3F8883023F440627B689B6C68499E
:105580001343C1F888307B681B6803F40073002B59
:105590000AD0634BD3F8883023F440227B68DB6D5C
:1055A0005F491343C1F888307B681B6803F480634C
:1055B000002B0AD05A4BD3F8883023F440127B6872
:1055C0001B6E57491343C1F888307B681B6803F48E
:1055D0008003002B0AD0524BD3F8883023F44002CA
:1055E0007B685B6E4E491343C1F888307B681B684B
:1055F00003F00073002B31D07B689B6EB3F1007F0A
:105600000ED0B3F1007F14D8002B15D0B3F1807FFA
:105610000FD1434BDB68424A43F48013D3600CE064
:105620007B6804330021184601F01EF90346FB771E
:1056300003E00123FB7700E000BFFB7F002B0BD1D1
:10564000374BD3F8883023F040727B689B6E344927
:105650001343C1F8883001E0FB7FBB777B681B6890
:1056600003F04003002B0AD02D4BD3F8883023F4ED
:1056700040527B68DB6C2A491343C1F888307B6851
:105680001B6803F08003002B0AD0254BD3F8883029
:1056900023F440427B681B6D21491343C1F88830D5
:1056A0007B681B6803F48073002B0AD01C4BD3F873
:1056B000883023F440327B685B6D19491343C1F88D
:1056C00088307B681B6803F48013002B0AD0144BCE
:1056D000D3F89C3023F003027B689B6D1049134381
:1056E000C1F89C307B681B6803F40053002B2BD05F
:1056F0000B4BD3F8883023F040627B685B6F08491E
:105700001343C1F888307B685B6FB3F1006F09D138
:10571000034BDB68024A43F48013D36014E000BFFC
:10572000001002407B685B6FB3F1806F0CD17B6827
:1057300004330121184601F097F80346FB77FB7FFD
:10574000002B01D0FB7FBB777B681B6803F4002331
:10575000002B4AD07B689B6FB3F5804F08D1704B0C
:10576000D3F89C306E4A43F48043C2F89C3012E078
:105770006B4BD3F8883023F040627B689B6F68499D
:105780001343C1F88830664BD3F89C30644A23F445
:105790008043C2F89C307B689B6FB3F1806F0DD162
:1057A0007B6804330121184601F05EF80346FB775D
:1057B000FB7F002B19D0FB7FBB7716E07B689B6FCC
:1057C000B3F1006F06D1564BDB68554A43F48013A2
:1057D000D3600AE07B689B6FB3F5804F05D1504BD7
:1057E000DB684F4A43F48033D3607B681B6803F463
:1057F0008023002B28D04A4BD3F8883023F0406216
:105800007B68DB6F46491343C1F888307B68DB6FE8
:10581000B3F1006F06D1424BDB68414A43F4801379
:10582000D36011E07B68DB6FB3F1806F0CD17B68D4
:1058300004330121184601F017F80346FB77FB7F7C
:10584000002B01D0FB7FBB777B681B6803F4804390
:10585000002B1ED0324BD3F8883023F040527B68A7
:10586000D3F880302E491343C1F888307B68D3F8D1
:105870008030B3F1805F0CD17B680433022118467D
:1058800000F0F2FF0346FB77FB7F002B01D0FB7F8C
:10589000BB777B681B6803F48033002B0BD0204B55
:1058A000D3F89C3023F004027B68D3F884301C4981
:1058B0001343C1F89C307B681B6803F40013002B72
:1058C0000BD0174BD3F89C3023F018027B68D3F829
:1058D000883013491343C1F89C307B681B6803F080
:1058E0008073002B17D00E4BD3F89C3023F440125A
:1058F0007B68D3F88C300A491343C1F89C307B682D
:10590000D3F88C30B3F5001F05D1054BDB68044A92
:1059100043F48013D360BB7F18462037BD4680BD5B
:105920000010024080B588B000AF78600023FB61B2
:105930007B68B3F5003F3ED1454BD3F8903003F47C
:105940004073FB60FB68B3F5407F28D0FB68B3F57C
:10595000407F00F27387FB68B3F5807F05D0FB685A
:10596000B3F5007F0ED000F069BF394BD3F890300B
:1059700003F00203022B40F063874FF40043FB6106
:1059800000F05EBF324BD3F8943003F00203022BD9
:1059900040F058874FF4FA43FB6100F053BF2C4BA3
:1059A0001B6803F40033B3F5003F40F04D87294BEB
:1059B000FB6100F049BF264BDB6803F003033B614A
:1059C0003B69032B36D03B69032B4BD83B69012B3A
:1059D00003D03B69022B20D044E01D4B1B6803F031
:1059E0000203022B16D11A4B1B6803F00803002B8D
:1059F00005D0174B1B681B0903F00F0305E0144B80
:105A0000D3F894301B0A03F00F03134A52F82330E3
:105A1000BB612AE00023BB6127E00D4B1B6803F448
:105A20008063B3F5806F02D10C4BBB611DE0002396
:105A3000BB611AE0064B1B6803F40033B3F5003F6B
:105A400002D1074BBB6110E00023BB610DE000BF3A
:105A500000100240B4C40400445701080024F400BC
:105A6000809698000023BB6100BF7B68B3F1007F84
:105A700000F059867B68B3F1007F00F2E7867B680F
:105A8000B3F5800F00F005867B68B3F5800F00F258
:105A9000DD867B68B3F5001F00F068847B68B3F592
:105AA000001F00F2D3867B68B3F5801F00F03085BD
:105AB0007B68B3F5801F00F2C9867B68B3F5002FC1
:105AC00000F080817B68B3F5002F00F2BF867B6811
:105AD000B3F5802F00F0C2807B68B3F5802F00F211
