:020000040800F2
:100000000000032065190008711600087716000823
:100010007D1600088316000889160008B519000827
:100020000000000000000000000000008F16000823
:100030009D16000800000000AB160008B916000865
:10004000B5190008B5190008B5190008B519000858
:10005000B5190008B5190008B5190008B519000848
:10006000B5190008B5190008B5190008B519000838
:10007000B5190008B5190008B5190008B519000828
:10008000B5190008B5190008B5190008B519000818
:10009000B5190008B5190008B5190008B519000808
:1000A000B5190008B5190008B5190008B5190008F8
:1000B000B5190008C5160008B5190008B5190008DB
:1000C000B5190008B5190008B5190008B5190008D8
:1000D000B5190008B5190008B5190008B5190008C8
:1000E000B5190008B5190008B5190008B5190008B8
:1000F000B5190008B5190008B5190008B5190008A8
:10010000B5190008B5190008B5190008B519000897
:10011000B5190008B5190008B5190008D916000866
:10012000ED160008B5190008B5190008B519000842
:10013000B51900080117000815170008B5190008BF
:1001400029170008B51900083D170008B51900085F
:10015000B5190008B5190008B5190008B519000847
:10016000B5190008B5190008B5190008B519000837
:10017000511700080000000065170008000000008B
:10018000B5190008B5190008B5190008B519000817
:10019000B5190008B5190008B5190008B519000807
:1001A000B5190008B5190008B5190008B5190008F7
:1001B000B519000800000000B5190008B5190008BD
:1001C000B519000800000000B5190008B5190008AD
:1001D000B5190008B5190008B5190008B5190008C7
:1001E000B5190008B5190008B5190008B5190008B7
:0401F000000000000B
:1001F40010B5054C237833B9044B13B1044800E01F
:1002040000BF0123237010BD482800200000000017
:10021400F8F5000808B5034B1BB10349034800E097
:1002240000BF08BD000000004C280020F8F50008BD
:10023400034613F8012B002AFBD1181A0138704722
:1002440053B94AB9002908BF00281CBF4FF0FF3139
:100254004FF0FF3000F082B9ADF1080C6DE904CE27
:1002640000F006F8DDF804E0DDE9022304B070478D
:100274002DE9F04F099D04460F46002B48D18A42D0
:10028400944661D9B2FA82F343B1C3F120019F408D
:1002940002FA03FC9C4020FA01F10F434FEA1C418F
:1002A4001FFA8CFE220CB7FBF1F601FB167706FB56
:1002B4000EF042EA0742904208D91CEB020206F112
:1002C400FF3702D2904200F237813E46121AA4B29E
:1002D400B2FBF1F001FB102200FB0EFE44EA0244E3
:1002E400A64508D91CEB040400F1FF3202D2A6454E
:1002F40000F21C81104640EA0640A4EB0E040026DE
:100304001DB1DC400023C5E900433146BDE8F08F50
:100314008B4209D9002D00F0FD800026C5E90001BB
:1003240030463146BDE8F08FB3FA83F6002E4BD148
:100334008B42C0F0F280824240F2EF803046002DC2
:10034400E3D0C5E90047E0E702B9FFDEB2FA82F381
:10035400002B40F09D80891A4FEA124E97B2012675
:10036400200CB1FBFEF20EFB121140EA014107FB27
:1003740002F088420FD91CEB010102F1FF382CBFB7
:100384004FF001094FF00009884203D9B9F1000F79
:1003940000F0CF804246091AA4B2B1FBFEF00EFB76
:1003A400101100FB07F744EA0144A74208D91CEBEB
:1003B400040400F1FF3102D2A74200F2B4800846DF
:1003C400E41B40EA02409BE7C6F12007B34001FA70
:1003D40006F422FA07FCF940B2404CEA030C20FA76
:1003E40007F34FEA1C491C431FFA8CFE00FA06F37C
:1003F400200CB1FBF9F809FB181140EA014108FB94
:100404000EF088420FD91CEB010108F1FF3A2CBF12
:100414004FF0010B4FF0000B884203D9BBF1000FE2
:1004240000F08D80D046091AA4B2B1FBF9F009FBA3
:10043400101100FB0EFE44EA01418E4507D91CEB66
:10044400010100F1FF3401D28E457FD8204640EAF5
:100454000840A1EB0E01A0FB029841454C46C6465C
:1004640002D306D14B4504D20138B9EB020468EB40
:100474000C0E002D70D01A1B61EB0E0122FA06F34C
:1004840001FA07F7F14000261F43C5E900713CE774
:1004940002FA03FCC3F1200001FA03F221FA00F688
:1004A4004FEA1C4E24FA00F11FFA8CF79C401143CA
:1004B400B6FBFEF00A0C0EFB106642EA064200FB95
:1004C40007F696420ED91CEB020200F1FF382CBF4E
:1004D4004FF001094FF00009964202D9B9F1000F1B
:1004E40031D04046921B89B2B2FBFEF60EFB1622B7
:1004F40041EA024106FB07F28A4207D91CEB0101DB
:1005040006F1FF3801D28A4223D84646891A46EAC0
:10051400004625E72E462846F7E6841A61EB0303D6
:1005240001201F460BE76444023849E7644402385B
:10053400E1E6023A61442EE7023E6244C6E6A8F1CF
:10054400020861446FE702386244CBE70238614431
:100554007DE7023E6144D9E72E46D6E6704700BFE8
:1005640080B582B000AF786039603B687A68094929
:1005740009480EF0B3FC0848FFF75AFE03469AB246
:1005840064230549054807F089FF00BF0837BD46C5
:1005940080BD00BF10F6000864280020602B0020F6
:1005A40080B582B000AF78607A68094909480EF0D6
:1005B40095FC0848FFF73CFE03469AB264230549BC
:1005C400054807F06BFF00BF0837BD4680BD00BF7C
:1005D40018F6000864280020602B0020F0B5ADF266
:1005E400445D04AF01F0E5F900F0F0F800F0D6FB4B
:1005F40000F0AAFB00F0C6F900F000FB00F066FA78
:1006040000F03AFB00F082FB09F060FF0346002B88
:1006140001D000F081FC00F035F900F0BFF900F0E2
:1006240009FA00F09FFA00F06DF9C82001F038FAD9
:10063400642306225849594807F030FFAC2387F851
:100644002B35282387F82A35292387F8293541F2C1
:100654001003A7F8A0340F2387F8283507F595630E
:10066400002219464E4806F0F3F807F2A44300228C
:1006740019464B4806F048F997F8A6341D4697F8F2
:10068400A5341E4697F8A73497F8A82497F8A91418
:1006940097F8AA04044607F2BC400394029101921D
:1006A400009333462A463F490EF018FC07F2BC4338
:1006B4001846FFF7BDFD03469AB207F2BC41642316
:1006C400364807F0EBFE07F5187301223649184641
:1006D4000DF064FB034687F8273597F8273519464C
:1006E4003248FFF73DFF97F82735002B53D1642399
:1006F40003222F49294807F0D1FE07F108030A22F3
:100704002C4918460DF090FB0346002B43D101F011
:10071400BBF9C7F820050023C7F82C351FE03B1DA3
:1007240007F1080042F2107223490DF05BFE034604
:1007340087F8273597F82735002B0BD0D7F82C35B9
:1007440019461E48FFF70CFF97F8273519461C4831
:10075400FFF706FFD7F82C350133C7F82C35D7F847
:100764002C35002BDBDD01F08FF90246D7F820355C
:10077400D31AC7F82035D7F820151248FFF7F0FE32
:1007840007F1080318460EF013F9642303220E49F7
:10079400024807F083FEFEE71CF60008602B0020E9
:1007A400482D002024F6000848F600084CF60008FE
:1007B40054F6000858F600080000002064F600080B
:1007C40068F600086CF6000870F6000880B598B06A
:1007D40000AF07F118034822002118460EF086FAEC
:1007E4003B1D00221A605A609A60DA601A61002088
:1007F40003F000F90346002B01D000F08DFB03F059
:10080400DBF81F4BD3F890301D4A23F01803C2F8CD
:1008140090300523BB614FF48033FB6181233B623D
:1008240002237B640323BB640123FB6412233B6523
:1008340007237B650223BB650223FB6507F11803CD
:10084400184603F067F90346002B01D000F064FB5F
:100854000F237B600323BB600023FB6000233B6109
:1008640000237B613B1D0421184603F029FE034647
:10087400002B01D000F050FB00BF6037BD4680BDA7
:100884000010024080B500AF1B4B1C4A1A601A4B83
:100894001B4A5A60184B00229A60174B0122DA60F7
:1008A400154B00221A61144B00225A61124B00228C
:1008B4009A61114B0022DA610F4B00221A620E4832
:1008C40001F0BEFE0346002B01D000F025FB002101
:1008D400094802F0FCFC0346002B01D000F01CFB8D
:1008E4000021054802F03EFD0346002B01D000F034
:1008F40013FB00BF80BD00BF9029002000540040BE
:100904006046D04080B500AF1B4B1C4A1A601A4B9E
:100914001B4A5A60184B00229A60174B0122DA6076
:10092400154B00221A61144B00225A61124B00220B
:100934009A61114B0022DA610F4B00221A620E48B1
:1009440001F07EFE0346002B01D000F0E5FA002101
:10095400094802F0BCFC0346002B01D000F0DCFA8D
:100964000021054802F0FEFC0346002B01D000F0F4
:10097400D3FA00BF80BD00BFE429002000840040FA
:10098400FFB6F01080B500AF02F038FD0346002B2F
:1009940001D000F0C1FA00BF80BD000080B500AFF7
:1009A400224B234A1A60214B4FF4E1325A601F4B09
:1009B40000229A601D4B0022DA601C4B00221A614F
:1009C4001A4B0C225A61194B00229A61174B0022D0
:1009D4001A62164B00225A62144B00229A62134B7D
:1009E40000225A66114807F009FD0346002B01D086
:1009F40000F092FA00210D4808F0D3FE0346002BC4
:100A040001D000F089FA0021084808F008FF0346E5
:100A1400002B01D000F080FA044808F089FE034658
:100A2400002B01D000F078FA00BF80BD382A0020E6
:100A34000080004080B500AF224B234A1A60214B4E
:100A44004FF4E1325A601F4B00229A601D4B002282
:100A5400DA601C4B00221A611A4B0C225A61194BA2
:100A640000229A61174B0022DA61164B00221A62A7
:100A7400144B00225A62134B00229A62114807F069
:100A8400BDFC0346002B01D000F046FA00210D48BE
:100A940008F087FE0346002B01D000F03DFA002148
:100AA400084808F0BCFE0346002B01D000F034FADD
:100AB400044808F03DFE0346002B01D000F02CFA58
:100AC40000BF80BDCC2A0020004C004080B500AFA0
:100AD400224B234A1A60214B4FF4E1325A601F4BD8
:100AE40000229A601D4B0022DA601C4B00221A611E
:100AF4001A4B0C225A61194B00229A61174B00229F
:100B0400DA61164B00221A62144B00225A62134B0C
:100B140000229A62114807F071FC0346002B01D0B1
:100B240000F0FAF900210D4808F03BFE0346002BC3
:100B340001D000F0F1F90021084808F070FE0346E6
:100B4400002B01D000F0E8F9044808F0F1FD034659
:100B5400002B01D000F0E0F900BF80BD602B002025
:100B64000038014080B500AF224B234A1A60214B64
:100B74004FF4E1325A601F4B00229A601D4B002251
:100B8400DA601C4B00221A611A4B0C225A61194B71
:100B940000229A61174B0022DA61164B00221A6276
:100BA400144B00225A62134B00229A62114807F038
:100BB40025FC0346002B01D000F0AEF900210D48BE
:100BC40008F0EFFD0346002B01D000F0A5F9002149
:100BD400084808F024FE0346002B01D000F09CF9DD
:100BE400044808F0A5FD0346002B01D000F094F959
:100BF40000BF80BDF42B00200044004080B500AF4E
:100C04001B4B1C4A1A601A4B01225A60184B0022D3
:100C14009A60174B4FF00072DA60154B20221A616C
:100C2400134B01225A61124B00229A61104B01228C
:100C3400DA610F4B00221A620D4B01225A620C4BEF
:100C440000229A620A4B0022DA62094B00221A63DC
:100C5400074B08225A63064B00229A63044802F0A9
:100C6400DDFB0346002B01D000F056F900BF80BD28
:100C7400F02C00200010024480B586B000AF3B4643
:100C840000221A605A609A60DA601A615A611D4B38
:100C94001D4A1A601B4B00225A601A4B7F229A602D
:100CA400184BFF22DA60174B00221A61154B002201
:100CB4005A61144B00229A61124B4FF08042DA6160
:100CC400104B00221A620F4805F04AFD0346002B20
:100CD40001D000F021F900233B600023FB600023D6
:100CE4003B6100237B613B461946064805F00CFF37
:100CF4000346002B01D000F00FF900BF1837BD46A2
:100D040080BD00BF482D00200028004080B400AF03
:100D14000B4B0C4A1A600A4B00225A60084B002203
:100D24009A60074B4FF48042DA60054B00221A6147
:100D3400034B00225A6100BFBD465DF8047B704737
:100D4400702D002000800C4280B582B000AF124BA1
:100D54009B6C114A43F0040393640F4B9B6C03F0A8
:100D640004037B607B680C4B9B6C0B4A43F00103D0
:100D74009364094B9B6C03F001033B603B680022C6
:100D840000211D2000F08BFF1D2000F0A2FF00BFFA
:100D94000837BD4680BD00BF0010024080B58CB04E
:100DA40000AF07F11C0300221A605A609A60DA60EF
:100DB4001A612F4BDB6C2E4A43F01003D3642C4B87
:100DC400DB6C03F01003BB61BB69294BDB6C284A65
:100DD40043F00403D364264BDB6C03F004037B6110
:100DE4007B69234BDB6C224A43F08003D364204BA2
:100DF400DB6C03F080033B613B691D4BDB6C1C4ADD
:100E040043F00103D3641A4BDB6C03F00103FB6072
:100E1400FB68174BDB6C164A43F00203D364144B94
:100E2400DB6C03F00203BB60BB68114BDB6C104A44
:100E340043F00803D3640E4BDB6C03F008037B60C0
:100E44007B68002208210B4801F0E2FB0823FB61C8
:100E540001233B6200237B620023BB6207F11C0376
:100E64001946044801F054FA00BF3037BD4680BD2E
:100E7400001002400010024280B582B000AF7860DA
:100E8400064B01221A607B685B6B19460448FFF726
:100E940067FB00BF0837BD4680BD00BFF02D0020B2
:100EA40074F6000880B582B000AF7860064B01226A
:100EB4001A607B685B6B19460448FFF751FB00BF5F
:100EC4000837BD4680BD00BFEC2D002078F6000831
:100ED40080B582B000AF78607B685B6B19460A48C6
:100EE400FFF73EFB094B1B685B6B19460848FFF78D
:100EF40037FB064B1B685B6819460648FFF730FB57
:100F040000BF0837BD4680BD7CF60008702D002068
:100F140080F6000888F6000880B500AF6423032239
:100F24000349044807F0BAFA72B600BFFEE700BFEF
:100F340090F60008602B002080B582B000AF0F4B04
:100F44001B6E0E4A43F0010313660C4B1B6E03F039
:100F540001037B607B68094B9B6D084A43F0805317
:100F64009365064B9B6D03F080533B603B6802F036
:100F74009DFD00BF0837BD4680BD00BF0010024084
:100F840080B5B0B000AF786007F1AC0300221A60FE
:100F94005A609A60DA601A6107F1180394220021FA
:100FA40018460DF0A3FE7B681B684A4A93424BD156
:100FB4004023BB6100237B6607F11803184603F046
:100FC40063FD0346002B01D0FFF7A6FF424BDB6C09
:100FD400414A43F00203D3643F4BDB6C03F002034A
:100FE4007B617B69C023C7F8AC301223C7F8B030EB
:100FF4000023C7F8B4300023C7F8B8300423C7F877
:10100400BC3007F1AC031946344801F081F9324B86
:101014009B6D314A43F4001393652F4B9B6D03F48E
:1010240000133B613B6900220021372000F037FEAA
:10103400372000F04EFE00220021382000F02FFE61
:10104400382000F046FE41E07B681B68244A934246
:101054003CD14FF48013BB6100233B6707F11803B5
:10106400184603F011FD0346002B01D0FFF754FF8F
:10107400194BDB6C184A43F00803D364164BDB6C42
:1010840003F00803FB60FB684FF44053C7F8AC302F
:101094001223C7F8B0300023C7F8B4300023C7F8D0
:1010A400B8300423C7F8BC3007F1AC0319460D4827
:1010B40001F02EF9084BDB6D074A43F00203D365B8
:1010C400054BDB6D03F00203BB60BB6800BFC03798
:1010D400BD4680BD0054004000100240000402429E
:1010E40000840040000C024280B5B4B000AF7860C8
:1010F40007F1BC0300221A605A609A60DA601A6130
:1011040007F128039422002118460DF0EFFD7B68B7
:101114001B68AC4A934244D12023BB6200233B6743
:1011240007F12803184603F0AFFC0346002B01D057
:10113400FFF7F2FEA44BDB6DA34A43F00103D36532
:10114400A14BDB6D03F001037B627B6A9E4BDB6C7E
:101154009D4A43F00203D3649B4BDB6C03F0020310
:101164003B623B6A4FF44063C7F8BC300223C7F8C4
:10117400C0300023C7F8C4300023C7F8C8300823A0
:10118400C7F8CC3007F1BC031946904801F0C0F809
:1011940000220021422000F082FD422000F099FD4F
:1011A4000CE17B681B688A4A934243D10823BB62E3
:1011B4000023BB6607F12803184603F065FC0346C9
:1011C400002B01D0FFF7A8FE7F4B9B6D7E4A43F4B2
:1011D400002393657C4B9B6D03F40023FB61FB6947
:1011E400794BDB6C784A43F00103D364764BDB6CB8
:1011F40003F00103BB61BB690323C7F8BC300223BE
:10120400C7F8C0300023C7F8C4300023C7F8C8307B
:101214000823C7F8CC3007F1BC0319466D4801F028
:1012240077F800220021402000F039FD402000F032
:1012340050FDC3E07B681B68674A934276D1012363
:10124400BB620023FB6507F12803184603F01CFC6E
:101254000346002B01D0FFF75FFE5B4B1B6E5A4A1F
:1012640043F480431366584B1B6E03F480437B6145
:101274007B69554BDB6C544A43F00103D364524BF6
:10128400DB6C03F001033B613B694FF4C063C7F8B7
:10129400BC300223C7F8C0300023C7F8C430002391
:1012A400C7F8C8300723C7F8CC3007F1BC03194688
:1012B400484801F02DF8494B494A1A60474B1A2215
:1012C4005A60464B10229A60444B0022DA60434B2A
:1012D40080221A61414B00225A61404B00229A61DC
:1012E4003E4B0022DA613D4B00221A623B4800F07B
:1012F4000BFD0346002B01D0FFF70EFE10213748EB
:1013040000F073FF0346002B01D0FFF705FE7B6856
:10131400324ADA67314A7B689362002200213D2019
:1013240000F0BDFC3D2000F0D4FC47E07B681B6866
:101334002C4A934242D10223BB6200233B6607F14D
:101344002803184603F0A0FB0346002B01D0FFF747
:10135400E3FD1D4B9B6D1C4A43F4003393651A4B0C
:101364009B6D03F40033FB60FB68174BDB6C164A80
:1013740043F00103D364144BDB6C03F00103BB6043
:10138400BB680C23C7F8BC300223C7F8C030002365
:10139400C7F8C4300023C7F8C8300723C7F8CC30D7
:1013A40007F1BC0319460B4800F0B2FF00220021EC
:1013B4003E2000F074FC3E2000F08BFC00BFD037D0
:1013C400BD4680BD0080004000100240000402427F
:1013D400004C00400000024200380140882C0020EC
:1013E400080002400044004080B5AEB000AF786011
:1013F40007F1A40300221A605A609A60DA601A6145
:1014040007F110039422002118460DF06FFC7B684D
:101414001B68264A934245D14FF080733B610023F9
:10142400C7F89C3007F11003184603F02DFB034660
:10143400002B01D0FFF770FD1D4B1B6D1C4A43F4BC
:10144400807313651A4B1B6D03F48073FB60FB6898
:10145400174BDB6C164A43F01003D364144BDB6C5C
:1014640003F01003BB60BB684FF47C43C7F8A4309F
:101474000223C7F8A8300023C7F8AC300323C7F809
:10148400B0300A23C7F8B43007F1A4031946094859
:1014940000F03EFF002200214C2000F000FC4C2014
:1014A40000F017FC00BFB837BD4680BD00100244F1
:1014B400001002400010024280B5A8B000AF78606E
:1014C40007F10C039422002118460DF00FFC7B68F1
:1014D4001B68164A934224D14FF40033FB604FF447
:1014E4008073C7F89C3007F10C03184603F0CCFA5C
:1014F4000346002B01D0FFF70FFD0D4BD3F89030BE
:101504000B4A43F40043C2F89030094B9B6D084AE0
:1015140043F480639365064B9B6D03F48063BB6067
:10152400BB6800BFA037BD4680BD00BF0028004097
:101534000010024080B5B0B000AF786007F1AC0392
:1015440000221A605A609A60DA601A6107F118037F
:101554009422002118460DF0C9FB7B681B683F4AA2
:10156400934276D14FF40023BB614FF08063C7F8F8
:1015740090300323FB6102233B6214237B62072325
:10158400BB620423FB6202233B634FF480137B633F
:1015940007F11803184603F077FA0346002B01D02D
:1015A400FFF7BAFC2E4BDB6C2D4A43F48003D36463
:1015B4002B4BDB6C03F480037B617B69284BDB6C76
:1015C400274A43F00403D364254BDB6C03F0040384
:1015D4003B613B69224BDB6C214A43F00803D36433
:1015E4001F4BDB6C03F00803FB60FB684FF4F853FC
:1015F400C7F8AC300223C7F8B0300023C7F8B430C2
:101604000323C7F8B8300C23C7F8BC3007F1AC0388
:101614001946144800F07CFE0423C7F8AC300223BA
:10162400C7F8B0300023C7F8B4300323C7F8B83084
:101634000C23C7F8BC3007F1AC0319460A4800F084
:1016440067FE002200214E2000F029FB4E2000F00E
:1016540040FB00BFC037BD4680BD00BF00800C42C8
:101664000010024000080242000C024280B400AFA5
:10167400FEE780B400AFFEE780B400AFFEE780B4BD
:1016840000AFFEE780B400AFFEE780B400AF00BF58
:10169400BD465DF8047B704780B400AF00BFBD4613
:1016A4005DF8047B704780B400AF00BFBD465DF8B1
:1016B400047B704780B500AF00F0D2F900BF80BD55
:1016C40080B500AF024800F082FC00BF80BD00BFBF
:1016D400882C002080B500AF024801F040F800BF1C
:1016E40080BD00BF9029002080B500AF024801F002
:1016F40050F800BF80BD00BF9029002080B500AF26
:10170400024806F059FF00BF80BD00BF602B0020D7
:1017140080B500AF024806F04FFF00BF80BD00BF98
:10172400F42B002080B500AF024806F045FF00BF4F
:1017340080BD00BFCC2A002080B500AF024806F06F
:101744003BFF00BF80BD00BF382A002080B500AF3A
:10175400024801F01DFF00BF80BD00BFF02C002037
:1017640080B500AF024805F063FC00BF80BD00BF38
:10177400702D002080B586B000AF7860144A154BF8
:10178400D31A7B617B693B61134B1B68002B02D12D
:10179400114B124A1A60104B1A687B6813443A6959
:1017A4009A4207D20DF068FA03460C221A604FF0F1
:1017B400FF3309E0084B1B68FB60074B1A687B6822
:1017C4001344054A1360FB6818461837BD4680BDAC
:1017D4000000032000080000F42D0020482E002003
:1017E40080B400AF064BD3F88830054A43F4700345
:1017F400C2F8883000BFBD465DF8047B704700BF67
:1018040000ED00E080B487B000AF4F4B1B6803F0DD
:101814000803002B07D14C4BD3F894301B0A03F078
:101824000F037B6105E0484B1B681B0903F00F03A2
:101834007B61464A7B6952F823307B61424B9B684B
:1018440003F00C030C2B66D801A252F823F000BF5E
:10185400891800081B1900081B1900081B19000827
:10186400911800081B1900081B1900081B1900080F
:10187400991800081B1900081B1900081B190008F7
:10188400A1180008324A7B69136048E0304B314AA2
:101894001A6044E02E4B304A1A6040E02A4BDB6861
:1018A40003F00303FB60284BDB681B0903F00F0301
:1018B4000133BB60FB68022B03D0FB68032B06D00B
:1018C4000BE0244ABB68B2FBF3F33B610BE0224A12
:1018D400BB68B2FBF3F33B6105E07A69BB68B2FB1A
:1018E400F3F33B6100BF184BDB681B0A03F07F0274
:1018F4003B6902FB03F33B61134BDB685B0E03F0B4
:10190400030301335B007B603A697B68B2FBF3F34A
:101914000F4A136003E00E4A7B69136000BF0A4B51
:101924009B681B0903F00F030C4AD35C3B60084B14
:101934001A683B6822FA03F3054A136000BF1C3798
:10194400BD465DF8047B7047001002409CF7000818
:10195400D82700200024F4008096980084F700081B
:10196400DFF834D0FFF73CFF002103E00B4B5B585A
:10197400435004310A480B4B42189A42F6D30A4AA0
:1019840002E0002342F8043B084B9A42F9D30DF0DD
:1019940079F9FEF723FEFEE7000003209CFC000813
:1019A400000000204828002048280020482E00205D
:1019B400FEE780B582B000AF0023FB71042000F085
:1019C40063F9FFF71FFF072000F00EF80346002B12
:1019D40002D00123FB7101E0FFF7AEFAFB79184650
:1019E4000837BD4680BD000080B584B000AF786084
:1019F4000023FB73174B1B78002B23D0164B1A685C
:101A0400144B1B7819464FF47A73B3FBF1F3B2FB12
:101A1400F3F3184600F06BF90346002B0FD17B68F3
:101A2400072B09D8002279684FF0FF3000F037F90E
:101A34000A4A7B68136007E00123FB7304E0012377
:101A4400FB7301E00123FB73FB7B18461037BD4693
:101A540080BD00BFE0270020D8270020DC2700201D
:101A640080B400AF064B1B781A46064B1B68134420
:101A7400044A136000BFBD465DF8047B704700BF95
:101A8400E0270020F82D002080B400AF034B1B6832
:101A94001846BD465DF8047B704700BFF82D002052
:101AA40080B584B000AF7860FFF7EEFFB8607B6864
:101AB400FB60FB68B3F1FF3F05D00A4B1B781A4665
:101AC400FB681344FB6000BFFFF7DEFF0246BB6800
:101AD400D31AFA689A42F7D800BF00BF1037BD4640
:101AE40080BD00BFE027002080B485B000AF7860DF
:101AF4007B6803F00703FB600C4BDB68BB60BA68D0
:101B04004FF6FF031340BB60FB681A02BB68134324
:101B140043F0BF6343F40033BB60044ABB68D36043
:101B240000BF1437BD465DF8047B704700ED00E04C
:101B340080B400AF044BDB681B0A03F007031846AC
:101B4400BD465DF8047B704700ED00E080B483B0CF
:101B540000AF0346FB7197F90730002B0BDBFB79D1
:101B640003F01F02074997F907305B09012000FAC7
:101B740002F241F8232000BF0C37BD465DF8047B18
:101B8400704700BF00E100E080B483B000AF0346BB
:101B94003960FB7197F90730002B0ADB3B68DAB236
:101BA4000C4997F907305201D2B20B4483F8002351
:101BB4000AE03B68DAB20849FB7903F00F03043BFF
:101BC4005201D2B20B441A7600BF0C37BD465DF801
:101BD400047B704700E100E000ED00E080B489B0D0
:101BE40000AFF860B9607A60FB6803F00703FB613B
:101BF400FB69C3F10703032B28BF0323BB61FB6904
:101C04000333062B02D9FB69043B00E000237B610C
:101C14004FF0FF32BB6902FA03F3DA43BB681A40A0
:101C24007B699A404FF0FF317B6901FA03F3D94392
:101C34007B680B40134318462437BD465DF8047B8C
:101C44007047000080B582B000AF78607B68013BCC
:101C5400B3F1807F01D301230FE00A4A7B68013B83
:101C6400536007214FF0FF30FFF78EFF054B002232
:101C74009A60044B07221A60002318460837BD46B1
:101C840080BD00BF10E000E080B582B000AF786096
:101C94007868FFF729FF00BF0837BD4680BD80B5CF
:101CA40086B000AF0346B9607A60FB73FFF740FF6C
:101CB40078617A68B9687869FFF790FF024697F906
:101CC4000F3011461846FFF75FFF00BF1837BD46B7
:101CD40080BD80B582B000AF0346FB7197F9073031
:101CE4001846FFF733FF00BF0837BD4680BD80B5F7
:101CF40082B000AF78607868FFF7A4FF0346184607
:101D04000837BD4680BD000080B584B000AF786060
:101D14007B68002B01D101238DE07B681B681A4688
:101D2400474B9A420FD87B681B681A46454B1344AD
:101D3400454AA2FB03231B099A007B68DA647B688B
:101D4400424A9A640EE07B681B681A46404B13446F
:101D54003D4AA2FB03231B099A007B68DA647B6873
:101D64003C4A9A647B68022283F825207B681B68BE
:101D74001B68FB60FB6823F4FF3323F4F873FB60F8
:101D84007B689A687B68DB681A437B681B691A4323
:101D94007B685B691A437B689B691A437B68DB69D0
:101DA4001A437B681B6A1343FA681343FB607B681E
:101DB4001B68FA681A60786800F048FA7B689B68C8
:101DC400B3F5804F02D17B6800225A607B685A6861
:101DD4007B681B6DD2B21A607B685B6D7A68926D0A
:101DE4005A607B685B68002B10D07B685B68042BAF
:101DF4000CD8786800F068FA7B68DB6D00221A6002
:101E04007B681B6E7A68526E5A6008E07B68002219
:101E1400DA657B6800221A667B6800225A667B6852
:101E240000225A647B68012283F825207B68002203
:101E340083F82420002318461037BD4680BD00BF18
:101E440007040240F8FFFDBFCDCCCCCC000002401B
:101E5400F8FBFDBF0004024080B485B000AF786099
:101E64000023FB737B6893F82530DBB2022B08D088
:101E74007B6804225A647B68002283F824200123AF
:101E840040E07B681B681A687B681B6822F00E02BE
:101E94001A607B681B6D1A687B681B6D22F4807264
:101EA4001A607B681B681A687B681B6822F0010251
:101EB4001A607B68DB6C03F01C027B689B6C01215D
:101EC40001FA02F25A607B685B6D7A68926D5A601F
:101ED4007B68DB6D002B0CD07B68DB6D1A687B683C
:101EE400DB6D22F480721A607B681B6E7A68526E16
:101EF4005A607B68012283F825207B68002283F8DE
:101F04002420FB7B18461437BD465DF8047B7047DC
:101F140080B584B000AF78600023FB737B6893F8CE
:101F24002530DBB2022B05D07B6804225A640123DE
:101F3400FB7347E07B681B681A687B681B6822F0A8
:101F44000E021A607B681B681A687B681B6822F0A3
:101F540001021A607B681B6D1A687B681B6D22F492
:101F640080721A607B68DB6C03F01C027B689B6CDC
:101F7400012101FA02F25A607B685B6D7A68926D06
:101F84005A607B68DB6D002B0CD07B68DB6D1A68B4
:101F94007B68DB6D22F480721A607B681B6E7A6842
:101FA400526E5A607B68012283F825207B680022E8
:101FB40083F824207B681B6C002B03D07B681B6C8C
:101FC40078689847FB7B18461037BD4680BD80B5BE
:101FD40084B000AF78607B689B6C1B68FB607B6897
:101FE4001B681B68BB607B68DB6C03F01C0304226A
:101FF4009A40FB681340002B53D0BB6803F00403E2
:10200400002B4ED07B681B681B6803F40043002B35
:1020140024D07B68DB6C03F01C027B689B6C04217E
:1020240001FA02F25A607B681B681B6803F4803370
:10203400002B09D17B681B6B002B00F0C0807B68F0
:102044001B6B78689847BAE07B689B6B002B00F0A9
:10205400B6807B689B6B78689847B0E07B681B68A8
:102064001B6803F02003002B07D17B681B681A68E8
:102074007B681B6822F004021A607B68DB6C03F047
:102084001C027B689B6C042101FA02F25A607B6893
:102094001B6B002B00F093807B681B6B7868984760
:1020A4008DE07B68DB6C03F01C0302229A40FB6822
:1020B4001340002B4ED0BB6803F00203002B49D021
:1020C4007B681B681B6803F40043002B18D07B68F3
:1020D4001B681B6803F48033002B08D17B685B6B9F
:1020E400002B6ED07B685B6B7868984769E07B68EF
:1020F400DB6A002B65D07B68DB6A7868984760E010
:102104007B681B681B6803F02003002B0BD17B68E2
:102114001B681A687B681B6822F00A021A607B68D5
:10212400012283F825207B68DB6C03F01C027B68AA
:102134009B6C022101FA02F25A607B68002283F848
:1021440024207B68DB6A002B3BD07B68DB6A7868E1
:10215400984736E07B68DB6C03F01C0308229A4046
:10216400FB681340002B2ED0BB6803F00803002B40
:1021740029D07B681B681A687B681B6822F00E02F2
:102184001A607B68DB6C03F01C027B689B6C01218A
:1021940001FA02F25A607B6801225A647B680122C8
:1021A40083F825207B68002283F824207B68DB6B7E
:1021B400002B08D07B68DB6B7868984702E000BF8F
:1021C40000E000BF00BF00BF1037BD4680BD80B433
:1021D40083B000AF78607B6893F82530DBB2184693
:1021E4000C37BD465DF8047B704780B485B000AF02
:1021F400786039600023FB727B68002B03D10123D4
:10220400FB72FB7A1BE07B681B681B68FB603B6806
:1022140003F01003002B0DD03B6803F48013002B54
:1022240004D0FB6843F48013FB6003E0FB6823F4F1
:102234008013FB607B681B68FA681A60FB7A184697
:102244001437BD465DF8047B7047000080B485B048
:1022540000AF78607B681B681A46174B9A420AD80D
:102264007B68DB6C9B089B0003F1804303F502331E
:102274007A68136507E07B68DB6C9B089A000F4B58
:1022840013447A6813657B681B68DBB2083B0C4A0D
:10229400A2FB03231B09FB607B680A4A5A65FB689F
:1022A40003F01F0301229A407B689A6500BF14372C
:1022B400BD465DF8047B70470704024020080240D5
:1022C400CDCCCCCC8008024080B485B000AF78601F
:1022D4007B685B68DBB2FB60FA680B4B13449B00C2
:1022E4001A467B68DA657B68084A1A66FB68013B14
:1022F40003F0030301229A407B685A6600BF143737
:10230400BD465DF8047B70473F82001040090240DF
:1023140080B487B000AF7860396000237B6158E1F6
:102324003B681A6801217B6901FA03F31340FB60DF
:10233400FB68002B00F04A813B685B6803F00303F1
:10234400012B05D03B685B6803F00303022B30D1FB
:102354007B689B683B617B695B00032202FA03F3A1
:10236400DB433A6913403B613B68DA687B695B0095
:1023740002FA03F33A6913433B617B683A699A6052
:102384007B685B683B6101227B6902FA03F3DB43F0
:102394003A6913403B613B685B681B0903F0010227
:1023A4007B6902FA03F33A6913433B617B683A6938
:1023B4005A603B685B6803F00303032B17D07B6808
:1023C400DB683B617B695B00032202FA03F3DB43B6
:1023D4003A6913403B613B689A687B695B0002FA87
:1023E40003F33A6913433B617B683A69DA603B68FB
:1023F4005B6803F00303022B23D17B69DA087B6853
:10240400083253F822303B617B6903F007039B00D9
:102414000F2202FA03F3DB433A6913403B613B6842
:102424001A697B6903F007039B0002FA03F33A6914
:1024340013433B617B69DA087B680832396943F8E6
:1024440022107B681B683B617B695B00032202FAF4
:1024540003F3DB433A6913403B613B685B6803F079
:1024640003027B695B0002FA03F33A6913433B619D
:102474007B683A691A603B685B6803F44033002B5D
:1024840000F0A4805A4A7B699B08183352F8233021
:102494003B617B6903F00303DB000F2202FA03F3C1
:1024A400DB433A6913403B617B68524A934225D02F
:1024B4007B68514A93421FD07B68504A934219D09B
:1024C4007B684F4A934213D07B684E4A93420DD0A7
:1024D4007B684D4A934207D07B684C4A934201D1B2
:1024E40006230CE007230AE0052308E0042306E0A2
:1024F400032304E0022302E0012300E000237A69BD
:1025040002F00302D20093403A6913433B61384915
:102514007B699B0818333A6941F82320344B1B68C4
:102524003B61FB68DB433A6913403B613B685B6892
:1025340003F48013002B03D03A69FB6813433B6117
:102544002B4A3B6913602A4B5B683B61FB68DB43A6
:102554003A6913403B613B685B6803F40013002B4A
:1025640003D03A69FB6813433B61214A3B695360DA
:102574001F4BD3F884303B61FB68DB433A6913405B
:102584003B613B685B6803F40033002B03D03A697A
:10259400FB6813433B61164A3B69C2F88430144B11
:1025A400D3F880303B61FB68DB433A6913403B61FD
:1025B4003B685B6803F48033002B03D03A69FB6803
:1025C40013433B610A4A3B69C2F880307B6901339B
:1025D4007B613B681A687B6922FA03F3002B7FF462
:1025E4009FAE00BF00BF1C37BD465DF8047B70473B
:1025F40000F40240000002420004024200080242C9
:10260400000C02420010024200140242001802426E
:1026140080B483B000AF78600B467B8013467B7038
:102624007B78002B03D07A887B689A6102E07A88F1
:102634007B689A6200BF0C37BD465DF8047B704727
:1026440080B582B000AF78607B68002B01D1012394
:1026540081E07B6893F84130DBB2002B06D17B68C4
:10266400002283F840207868FEF78AFC7B682422E5
:1026740083F841207B681B681A687B681B6822F01A
:1026840001021A607B685A687B681B6822F07062DA
:102694001A617B681B689A687B681B6822F4004295
:1026A4009A607B68DB68012B07D17B689A687B683A
:1026B4001B6842F400429A6006E07B689A687B6873
:1026C4001B6842F404429A607B68DB68022B04D1E5
:1026D4007B681B684FF400625A607B681B685B6808
:1026E4007A68126843F0007343F4004353607B68D4
:1026F4001B68DA687B681B6822F40042DA607B6836
:102704001A697B685B6942EA03017B689B691A0268
:102714007B681B680A43DA607B68D9697B681A6A3C
:102724007B681B680A431A607B681B681A687B68AD
:102734001B6842F001021A607B6800225A647B68BD
:10274400202283F841207B6800221A637B680022E0
:1027540083F84220002318460837BD4680BD80B563
:1027640084B000AF78607B681B689B69FB607B6802
:102774001B681B68BB607B685B6B002B05D07B68A8
:102784005B6BBA68F9687868984700BF1037BD4634
:1027940080BD80B586B000AF78607B681B689B699C
:1027A4007B617B681B681B683B617B691B0A03F0C8
:1027B4000103002B10D03B69DB0903F00103002B5C
:1027C4000AD07B685B6C43F001027B685A647B68C7
:1027D4001B684FF48072DA617B699B0A03F0010382
:1027E400002B10D03B69DB0903F00103002B0AD056
:1027F4007B685B6C43F008027B685A647B681B68E7
:102804004FF48062DA617B695B0A03F00103002BF9
:1028140010D03B69DB0903F00103002B0AD07B686D
:102824005B6C43F002027B685A647B681B684FF45C
:102834000072DA617B685B6CFB60FB6803F00B037E
:10284400002B03D0F968786800F08AFB00BF1837C2
:10285400BD4680BD80B483B000AF786000BF0C3744
:10286400BD465DF8047B704780B483B000AF7860E8
:1028740000BF0C37BD465DF8047B704780B483B05D
:1028840000AF78600B46FB7013463B8000BF0C37EB
:10289400BD465DF8047B704780B483B000AF7860B8
:1028A40000BF0C37BD465DF8047B704780B483B02D
:1028B40000AF786000BF0C37BD465DF8047B7047FD
:1028C40080B483B000AF786000BF0C37BD465DF8BC
:1028D400047B704780B586B000AFF860B9607A6059
:1028E400FB68DB6A7B61BB683B61FB6893F8403043
:1028F400012B01D10223ECE0FB68012283F8402084
:102904003B695B0903F00103002B09D07B685B0979
:1029140003F00103002B03D03969F86800F0C0F913
:102924003B691B0903F00103002B4DD07B681B0995
:1029340003F00103002B47D0FB685B8D9BB2002B97
:1029440028D1FB6893F84130DBB2282B08D17B698E
:10295400B3F1007F04D13969F86800F0ABFA32E0D2
:10296400FB6893F84130DBB2292B0ED17B6913F558
:10297400803F0AD0FB681B681022DA61F86800F017
:1029840006FCF86800F02DF91DE0FB681B681022B6
:10299400DA6196E0FB681B681022DA61FB685B6C05
:1029A40043F00402FB685A647B69002B04D07B6902
:1029B400B3F1807F40F08580FB685B6C1946F86852
:1029C40000F0CEFA7DE07CE03B699B0803F0010354
:1029D400002B30D07B689B0803F00103002B2AD026
:1029E400FB685B8D9BB2002B18D0FB681B685A6A8E
:1029F400FB685B6AD2B21A70FB685B6A5A1CFB689C
:102A04005A62FB681B8D013B9AB2FB681A85FB680E
:102A14005B8D9BB2013B9AB2FB685A85FB685B8D68
:102A24009BB2002B4FD17B6913F5803F4BD0F868E4
:102A340000F0D7F847E03B69DB0803F00103002B03
:102A44000AD07B68DB0803F00103002B04D039694A
:102A5400F86800F042F837E03B695B0803F00103D3
:102A6400002B31D07B685B0803F00103002B2BD0D3
:102A7400FB685B8D9BB2002B18D0FB685B6A1A78ED
:102A8400FB681B689A62FB685B6A5A1CFB685A62A3
:102A9400FB685B8D9BB2013B9AB2FB685A85FB686D
:102AA4001B8D013B9AB2FB681A850DE07B69B3F17B
:102AB400807F02D07B69002B06D1F86800F091F882
:102AC40002E000BF00E000BFFB68002283F8402062
:102AD400002318461837BD4680BD80B584B000AFCA
:102AE400786039607B6893F84130DBB203F02803E7
:102AF400282B6AD17B681B689B691B0CDBB203F033
:102B04000103FB737B681B689B691B0C9BB203F07E
:102B1400FE03BB817B681B689B689BB2C3F30903FC
:102B24007B817B681B68DB689BB203F0FE033B81FF
:102B34007B68DB68022B38D17B89DB099AB2BB89BD
:102B440053409BB203F00603002B1CD17B89BB814D
:102B54007B689B6C5A1C7B689A647B689B6C022B19
:102B64003BD17B6800229A647B681B680822DA6187
:102B74007B68002283F84020BA89FB7B1946786879
:102B8400FFF77CFE29E03B89BB814FF40041786864
:102B940000F03FFB7B68002283F84020BA89FB7B6E
:102BA40019467868FFF76AFE17E04FF40041786829
:102BB40000F02FFB7B68002283F84020BA89FB7B5E
:102BC40019467868FFF75AFE07E07B681B680822FD
:102BD400DA617B68002283F8402000BF1037BD46CD
:102BE40080BD80B584B000AF78607B681B681B68CB
:102BF400FB607B68002283F84220FB689B0B03F098
:102C04000103002B08D07B681B681A687B681B686B
:102C140022F480421A600DE0FB68DB0B03F0010331
:102C2400002B07D07B681B681A687B681B6822F43A
:102C340000421A607B6893F84130DBB2292B12D131
:102C44007B68282283F841207B6821221A630121B2
:102C5400786800F0DEFA7B68002283F84020786808
:102C6400FFF7F8FD17E07B6893F84130DBB22A2BBD
:102C740011D17B68282283F841207B6822221A63C1
:102C84000221786800F0C5FA7B68002283F84020AE
:102C94007868FFF7E9FD00BF1037BD4680BD00002E
:102CA40080B586B000AF786039607B681B681B68AC
:102CB4003B613B687B617B6893F84130FB737B68C5
:102CC4001B682022DA61FB7B212B02D0FB7B292BA2
:102CD40008D148F20101786800F09BFA7B68212250
:102CE4001A630DE0FB7B222B02D0FB7B2A2B07D13E
:102CF40048F20201786800F08CFA7B6822221A6399
:102D04007B681B685A687B681B6842F400425A60FF
:102D14007B681B6859687B681A68644B0B40536076
:102D2400786800F034FA3B699B0B03F00103002B35
:102D340013D07B681B681A687B681B6822F4804286
:102D44001A607B689B6B002B20D07B689B6B1B6895
:102D54005B689AB27B685A8518E03B69DB0B03F029
:102D64000103002B12D07B681B681A687B681B6800
:102D740022F400421A607B68DB6B002B06D07B6870
:102D8400DB6B1B685B689AB27B685A857B699B081E
:102D940003F00103002B20D07B6923F004037B6143
:102DA4007B681B685A6A7B685B6AD2B21A707B685C
:102DB4005B6A5A1C7B685A627B681B8D002B0CD0A3
:102DC4007B681B8D013B9AB27B681A857B685B8D9F
:102DD4009BB2013B9AB27B685A857B685B8D9BB240
:102DE400002B05D07B685B6C43F004027B685A645B
:102DF4007B68002283F842207B6800225A637B6848
:102E04005B6C002B10D07B685B6C1946786800F013
:102E1400A7F87B6893F84130DBB2282B41D179695C
:102E2400786800F047F83CE07B68DB6A13F5803F84
:102E340014D07868FFF7D5FE7B681D4ADA627B6898
:102E4400202283F841207B6800221A637B680022D9
:102E540083F840207868FFF71FFD22E07B6893F831
:102E64004130DBB2222B0ED17B68202283F8412033
:102E74007B6800221A637B68002283F8402078680C
:102E8400FFF7F2FC0DE07B68202283F841207B6889
:102E940000221A637B68002283F840207868FFF7D9
:102EA400D9FC00BF1837BD4680BD00BF00E800FE56
:102EB4000000FFFF80B582B000AF786039607B68A6
:102EC400264ADA627B6800221A637B68202283F830
:102ED40041207B68002283F842207B6800225A63E9
:102EE4003B689B0803F00103002B22D07B681B681E
:102EF4005A6A7B685B6AD2B21A707B685B6A5A1C36
:102F04007B685A627B681B8D002B12D07B681B8DFB
:102F1400013B9AB27B681A857B685B8D9BB2013B4F
:102F24009AB27B685A857B685B6C43F004027B68C9
:102F34005A6448F20301786800F06BF97B681B68F7
:102F44001022DA617B68002283F840207868FFF75A
:102F5400A3FC00BF0837BD4680BD00BF0000FFFFD3
:102F640080B584B000AF786039607B6893F84130F5
:102F7400FB737B68002283F842207B686D4ADA6227
:102F84007B6800225A857B685A6C3B681A437B68CD
:102F94005A64FB7B282B05D0FB7B292B02D0FB7BBF
:102FA4002A2B0BD10321786800F033F97B6828229F
:102FB40083F841207B68604A5A6330E048F2030199
:102FC400786800F026F9786800F0E1F87B6893F8F7
:102FD4004130DBB2602B1FD07B68202283F8412074
:102FE4007B681B689B6903F02003202B14D17B684A
:102FF4001B689B6903F01003102B09D17B681B68C5
:103004001022DA617B685B6C43F004027B685A64CB
:103014007B681B682022DA617B6800225A637B6824
:103024001B6BBB607B689B6B002B39D0BB68112B7F
:1030340002D0BB68212B33D17B681B681B6803F467
:103044008043B3F5804F07D17B681B681A687B689F
:103054001B6822F480421A607B689B6B1846FFF75A
:10306400B6F80346012B17D07B689B6B334A1A646E
:103074007B68002283F840207B689B6B1846FEF730
:1030840047FF0346002B4DD07B689B6B1B6C7A6813
:10309400926B1046984745E0786800F051F841E09B
:1030A4007B68DB6B002B39D0BB68122B02D0BB686A
:1030B400222B33D17B681B681B6803F40043B3F5F0
:1030C400004F07D17B681B681A687B681B6822F471
:1030D40000421A607B68DB6B1846FFF778F80346FA
:1030E400012B17D07B68DB6B144A1A647B680022BF
:1030F40083F840207B68DB6B1846FEF709FF034624
:10310400002B11D07B68DB6B1B6C7A68D26B10468A
:10311400984709E0786800F013F805E0786800F053
:103124000FF802E000BF00E000BF00BF1037BD464B
:1031340080BD00BF0000FFFFD9280008DB31000874
:1031440080B582B000AF78607B6893F84130DBB221
:10315400602B0ED17B68202283F841207B680022FB
:103164001A637B68002283F840207868FFF7A8FB85
:1031740009E07B6800221A637B68002283F8402000
:103184007868FFF793FB00BF0837BD4680BD80B465
:1031940083B000AF78607B681B689B6903F002030F
:1031A400022B03D17B681B6800229A627B681B6830
:1031B4009B6903F00103012B07D07B681B689A69A4
:1031C4007B681B6842F001029A6100BF0C37BD4660
:1031D4005DF8047B704780B584B000AF78607B688D
:1031E4009B6AFB60FB689B6B002B03D0FB689B6BAB
:1031F40000221A64FB68DB6B002B03D0FB68DB6BDB
:1032040000221A64F868FFF79BFF00BF1037BD4621
:1032140080BD80B485B000AF78600B467B8000230E
:10322400FB607B8803F00103002B0FD0FB6843F0A5
:103234004203FB607B6893F84130DBB203F0280360
:10324400282B03D0FB6843F0B003FB607B8803F0BA
:103254000203002B0FD0FB6843F04403FB607B6840
:1032640093F84130DBB203F02803282B03D0FB682A
:1032740043F0B003FB60B7F90230002B03DAFB68BC
:1032840043F0B803FB607B88102B03D1FB6843F049
:103294009003FB607B88202B03D1FB6843F0200361
:1032A400FB607B88402B03D1FB6843F04003FB6049
:1032B4007B681B681968FB68DA437B681B680A40F3
:1032C4001A6000BF1437BD465DF8047B704780B4B4
:1032D40083B000AF786039607B6893F84130DBB22B
:1032E400202B38D17B6893F84030012B01D1022385
:1032F40032E07B68012283F840207B68242283F833
:1033040041207B681B681A687B681B6822F00102F5
:103314001A607B681B681A687B681B6822F48052F9
:103324001A607B681B6819687B681B683A680A43E3
:103334001A607B681B681A687B681B6842F001028C
:103344001A607B68202283F841207B68002283F87E
:103354004020002300E0022318460C37BD465DF8E8
:10336400047B704780B485B000AF786039607B68B7
:1033740093F84130DBB2202B39D17B6893F840308D
:10338400012B01D1022333E07B68012283F8402022
:103394007B68242283F841207B681B681A687B6859
:1033A4001B6822F001021A607B681B681B68FB60C3
:1033B400FB6823F47063FB603B681B02FA681343E9
:1033C400FB607B681B68FA681A607B681B681A6874
:1033D4007B681B6842F001021A607B68202283F834
:1033E40041207B68002283F84020002300E0022370
:1033F40018461437BD465DF8047B704780B400AFAF
:10340400054B1B68044A43F001031360002318466C
:10341400BD465DF8047B70470004034080B586B068
:1034240002AF78600023FB73FEF72EFBB8607B6865
:10343400002B02D10123FB73A2E07B6800221A65F2
:103444007B68DB6C002B40F09B807868FDF7CCFF39
:1034540041F28831786800F02DFA7B681B689A681D
:103464004A4B13407A68D1687A681269013A1204A7
:1034740011437A685269013A120211437A68526B15
:1034840011437A68D26911437A6812680B439360D6
:103494007B681B68DB6823F4E0217B681A6A7B681D
:1034A4001B680A43DA607B681A6B7B681B6812042A
:1034B4001A617B681B687A68926B5A617B681B6827
:1034C4001B6823F4F8517B685B68013B1A027B6834
:1034D4001B680A431A607B685B6D0093BB6800221B
:1034E4002021786800F031FA0346FB73FB7B002B44
:1034F40046D17B681B68DB6823F0FF017B685B6A4D
:103504005A1E7B681B680A43DA607B681B681B6869
:1035140023F040017B689A687B681B680A431A6041
:103524007B681B68D3F8083123F0A0417B689A6A52
:103534007B68DB6A1A437B681B680A43C3F808216B
:103544007B681B681A687B681B6842F001021A607A
:103554007B689B69022B07D17B681B689A687B6830
:103564001B6842F002029A607B68DB68B3F1806FEB
:1035740003D17B680122DA6402E07B680222DA6408
:10358400FB7B18461037BD4680BD00BFF4F8E0F859
:1035940080B586B000AF78607B681B6850337B6170
:1035A4007B681B681B6A3B617B681B681B68FB604C
:1035B4007B68DB6CBB603B6903F00403002B3AD0EF
:1035C400FB6803F48023002B35D0BB68182B0FD184
:1035D4007B68DB6B1A787B691A707B68DB6B5A1C1F
:1035E4007B68DA637B685B6C5A1E7B685A6412E002
:1035F400BB68282B0FD17B68DB6B7A691278D2B257
:103604001A707B68DB6B5A1C7B68DA637B685B6CC3
:103614005A1E7B685A647B685B6C002B07D17B68FD
:103624001B681A687B681B6822F480221A60786819
:1036340000F004F9E7E03B6903F00203002B67D0D4
:10364400FB6803F40033002B62D0BB68282B31D114
:103654007B685B6C002B15D03B6903F47C53002B17
:1036640010D07B68DB6B7A691278D2B21A707B68EF
:10367400DB6B5A1C7B68DA637B685B6C5A1E7B6865
:103684005A64BDE07B685B6C002B40F0B9807B68BA
:103694001B6802225A627B681B681A687B681B6875
:1036A40022F4E0221A607B680222DA64786800F06F
:1036B400D9F8A5E07B681B6802225A627B681B6804
:1036C4001A687B681B6822F4E0221A607B68022275
:1036D400DA64BB68182B03D1786800F0CDF88FE06A
:1036E400BB68082B03D1786800F0B2F888E0BB68A7
:1036F400B3F5807F40F084807B681B6D002B03D181
:10370400786800F091F87BE0786800F083F877E05F
:103714003B6903F00803002B1ED0FB6803F400236D
:10372400002B19D07B681B6808225A627B681B68CF
:103734001B6803F48003002B0AD07B681B681A689B
:103744007B681B6822F410221A607B680222DA6408
:10375400786800F09BF856E03B6903F00103002B06
:103764003CD0FB6803F48033002B37D07B681B68A4
:1037740001225A627B681B681A687B681B6822F402
:10378400F8121A607B6802221A657B681B681B6842
:1037940003F00403002B1AD07B681B681A687B684B
:1037A4001B6822F004021A607B689B6C184A1A6436
:1037B4007B689B6C1846FEF7ABFB0346002B21D0BD
:1037C4007B680222DA64786800F024F81AE07B68E7
:1037D4000222DA64786800F01DF813E03B6903F014
:1037E4001003002B0FD0FB6803F48013002B0AD0C6
:1037F4007B681B6810225A62786800F051F802E076
:1038040000BF00E000BF00BF1837BD4680BD00BF49
:10381400D738000880B483B000AF786000BF0C379D
:10382400BD465DF8047B704780B483B000AF786018
:1038340000BF0C37BD465DF8047B704780B483B08D
:1038440000AF786000BF0C37BD465DF8047B70475D
:1038540080B483B000AF786000BF0C37BD465DF81C
:10386400047B704780B483B000AF786000BF0C372E
:10387400BD465DF8047B704780B483B000AF7860C8
:1038840000BF0C37BD465DF8047B704780B483B03D
:1038940000AF786000BF0C37BD465DF8047B70470D
:1038A40080B483B000AF786000BF0C37BD465DF8CC
:1038B400047B704780B483B000AF786039607B6864
:1038C4003A685A65002318460C37BD465DF8047BF8
:1038D400704780B584B000AF78607B689B6AFB60FA
:1038E400FB6800225A64FB68DB6CB3F5807F22D14D
:1038F400FB681B681B6A03F02003002B14D0FB68D1
:103904001B6802225A62FB681B681A68FB681B6802
:1039140042F400321A60FB681B681A68FB681B6873
:1039240042F002021A600CE0FB680222DA64F868D2
:10393400FFF77AFF05E0FB680222DA64F868FFF714
:1039440069FF00BF1037BD4680BD80B584B000AFAD
:10395400F860B9603B601346FB711AE0BB69B3F1D0
:10396400FF3F16D0FEF790F802463B68D31ABA69B7
:103974009A4202D3BB69002B0BD1FB684FF400724F
:10398400DA64FB681B6D43F00102FB681A650123CE
:103994000EE0FB681B681A6ABB681340002B14BF57
:1039A40001230023DBB21A46FB799A42D6D10023C5
:1039B40018461037BD4680BD80B400AF054B1B6868
:1039C400044A43F48073136000BFBD465DF8047B72
:1039D400704700BF0070004080B400AF044B1B6808
:1039E40003F4C0631846BD465DF8047B704700BF0E
:1039F4000070004080B584B000AF7860274B1B682E
:103A040003F4C063BB6000F061F80346B3F5004FF4
:103A140001D101233EE0214BDB6803F40043B3F5FD
:103A2400004F01D1012335E0BA687B689A4201D185
:103A340000232FE0194B1B6823F4C06217497B68ED
:103A440013430B60164B1B685B09164AA2FB032346
:103A5400DB09322202FB03F3134AA2FB0323DB0834
:103A64000133FB6002E0FB68013BFB600B4B5B69CD
:103A740003F48063B3F5806F02D1FB68002BF2D1AD
:103A8400064B5B6903F48063B3F5806F01D10323B4
:103A940000E0002318461037BD4680BD007000408A
:103AA400D8270020C55A7C0ACDCCCCCC80B400AF3A
:103AB400054B9B68044A43F48043936000BFBD46B2
:103AC4005DF8047B704700BF0070004080B483B091
:103AD40000AF0F4B1B693B603B6803F48053002B22
:103AE40003D04FF480537B600AE03B6803F4004347
:103AF400002B03D14FF400437B6001E000237B6083
:103B04007B6818460C37BD465DF8047B704700BFE0
:103B14000070004080B588B000AF78607B68002BEF
:103B240002D1012300F0C2BC994B9B6803F00C0343
:103B3400BB61974BDB6803F003037B617B681B6805
:103B440003F01003002B00F0E980BB69002B06D0C2
:103B5400BB690C2B40F083807B69012B7FD18C4B9C
:103B64001B6803F00203002B06D07B68DB69002B83
:103B740002D1012300F09ABC7B685A6A844B1B680B
:103B840003F00803002B04D0814B1B6803F0F003FF
:103B940005E07F4BD3F894301B0903F0F003934204
:103BA40024D27B685B6A184600F09CFE0346002B17
:103BB40002D0012300F07ABC754B1B68744A43F0B1
:103BC40008031360724B1B6823F0F0027B685B6A86
:103BD4006F4913430B606E4B5B6823F47F427B6831
:103BE4001B6A1B026A4913434B6026E0684B1B683F
:103BF400674A43F008031360654B1B6823F0F00227
:103C04007B685B6A624913430B60614B5B6823F416
:103C14007F427B681B6A1B025D4913434B60BB698F
:103C2400002B0AD17B685B6A184600F05BFE0346F2
:103C3400002B02D0012300F039BC00F017FE03462C
:103C4400544A1360544B1B681846FDF7CDFE0346D7
:103C5400FB73FB7B002B60D0FB7B00F027BC7B68F5
:103C6400DB69002B39D04A4B1B68494A43F00103F6
:103C74001360FDF709FF38610FE0FDF705FF024609
:103C84003B69D31A022B08D9414B1B6803F002038A
:103C9400002B02D1032300F009BC3D4B1B6803F049
:103CA4000203002BE9D03A4B1B68394A43F008035E
:103CB4001360374B1B6823F0F0027B685B6A34495E
:103CC40013430B60324B5B6823F47F427B681B6AAF
:103CD4001B022F4913434B6020E02D4B1B682C4AD9
:103CE40023F001031360FDF7CFFE38610EE0FDF70A
:103CF400CBFE02463B69D31A022B07D9244B1B681F
:103D040003F00203002B01D00323CFE3204B1B68F5
:103D140003F00203002BEAD100E000BF7B681B68BC
:103D240003F00103002B7ED0BB69082B05D0BB69CF
:103D34000C2B0ED17B69032B0BD1154B1B6803F4A1
:103D44000033002B6ED07B685B68002B6AD10123A3
:103D5400ACE37B685B68B3F5803F06D10C4B1B6812
:103D64000B4A43F48033136024E07B685B68B3F54B
:103D7400A02F13D1064B1B68054A43F4802313601C
:103D8400034B1B68024A43F48033136012E000BF04
:103D940000100240D8270020DC2700208B4B1B6832
:103DA4008A4A23F480331360884B1B68874A23F4C0
:103DB400802313607B685B68002B19D0FDF764FED9
:103DC40038610EE0FDF760FE02463B69D31A642BAE
:103DD40007D97E4B1B6803F40033002B01D1032366
:103DE40064E37A4B1B6803F40033002BEAD01AE037
:103DF400FDF74AFE38610EE0FDF746FE02463B69D8
:103E0400D31A642B07D9714B1B6803F40033002BBE
:103E140001D003234AE36D4B1B6803F40033002BEA
:103E2400EAD100E000BF7B681B6803F00203002BAB
:103E34006CD0BB69042B05D0BB690C2B19D17B69F1
:103E4400022B16D1614B1B6803F48063002B05D051
:103E54007B68DB68002B01D1012327E35B4B5B68A4
:103E640023F0FE427B681B691B06584913434B60D1
:103E74004CE07B68DB68002B29D0544B1B68534A09
:103E840043F480731360FDF7FFFD38610EE0FDF726
:103E9400FBFD02463B69D31A022B07D94B4B1B6827
:103EA40003F48063002B01D10323FFE2474B1B681B
:103EB40003F48063002BEAD0444B5B6823F0FE429A
:103EC4007B681B691B06414913434B601EE03F4B53
:103ED4001B683E4A23F480731360FDF7D5FD3861F7
:103EE4000EE0FDF7D1FD02463B69D31A022B07D938
:103EF400364B1B6803F48063002B01D00323D5E207
:103F0400324B1B6803F48063002BEAD17B681B6887
:103F140003F00803002B62D07B685B69002B38D068
:103F24007B689B69002B08D1284BD3F89430274A2F
:103F340023F01003C2F8943007E0244BD3F89430F4
:103F4400224A43F01003C2F89430204BD3F8943043
:103F54001E4A43F00103C2F89430FDF795FD386121
:103F64000FE0FDF791FD02463B69D31A072B08D9F0
:103F7400164BD3F8943003F00203002B01D1032332
:103F840094E2124BD3F8943003F00203002BE8D0F0
:103F940025E00E4BD3F894300C4A23F00103C2F809
:103FA4009430FDF771FD386112E0FDF76DFD0246B6
:103FB4003B69D31A072B0BD9044BD3F8943003F085
:103FC4000203002B04D0032370E200BF0010024060
:103FD400A84BD3F8943003F00203002BE5D17B689F
:103FE4001B6803F00403002B00F02D810023FB77F2
:103FF400A04B9B6D03F08053002B0DD19D4B9B6D0B
:104004009C4A43F0805393659A4B9B6D03F0805315
:10401400BB60BB680123FB77974B1B6803F4807379
:10402400002B1ED1944B1B68934A43F48073136096
:10403400FDF72AFD38610EE0FDF726FD02463B69D7
:10404400D31A022B07D98C4B1B6803F48073002B03
:1040540001D103232AE2884B1B6803F48073002BED
:10406400EAD07B689B6803F00103002B1FD07B68B8
:104074009B6803F00403002B10D07E4BD3F89030E0
:104084007C4A43F00403C2F890307A4BD3F8903062
:10409400784A43F00103C2F8903018E0754BD3F826
:1040A4009030744A43F00103C2F890300FE0714B32
:1040B400D3F890306F4A23F00103C2F890306D4B6F
:1040C400D3F890306B4A23F00403C2F890307B6835
:1040D4009B68002B68D0FDF7D7FC386111E0FDF731
:1040E400D3FC02463B69D31A41F28832934208D981
:1040F400604BD3F8903003F00203002B01D103236B
:10410400D4E15C4BD3F8903003F00203002BE6D0EB
:104114007B689B6803F08003002B22D0554BD3F8B7
:104124009030544A43F08003C2F8903011E0FDF718
:10413400ABFC02463B69D31A41F28832934208D958
:104144004C4BD3F8903003F40063002B01D10323CC
:10415400ACE1484BD3F8903003F40063002BE6D075
:1041640068E0444BD3F89030424A23F08003C2F80D
:10417400903011E0FDF788FC02463B69D31A41F206
:104184008832934208D93B4BD3F8903003F4006350
:10419400002B01D0032389E1364BD3F8903003F48C
:1041A4000063002BE6D145E0FDF76EFC386111E0B9
:1041B400FDF76AFC02463B69D31A41F28832934206
:1041C40008D92C4BD3F8903003F00203002B01D014
:1041D40003236BE1274BD3F8903003F00203002B49
:1041E400E6D1244BD3F8903003F08003002B21D088
:1041F400204BD3F890301F4A23F08003C2F890304C
:1042040011E0FDF741FC02463B69D31A41F28832C2
:10421400934208D9174BD3F8903003F40063002B72
:1042240001D0032342E1134BD3F8903003F400632D
:10423400002BE6D1FB7F012B05D10E4B9B6D0D4A64
:1042440023F0805393657B681B6803F02003002BE5
:104254004FD07B689B6A002B28D0064BD3F898304C
:10426400044A43F00103C2F89830FDF70DFC3861AD
:1042740014E000BF0010024000700040FDF704FC91
:1042840002463B69D31A022B08D98A4BD3F89830DB
:1042940003F00203002B01D1032307E1854BD3F87C
:1042A400983003F00203002BE8D022E0814BD3F8CE
:1042B4009830804A23F00103C2F89830FDF7E4FBFC
:1042C40038610FE0FDF7E0FB02463B69D31A022B8D
:1042D40008D9784BD3F8983003F00203002B01D0AF
:1042E4000323E3E0734BD3F8983003F00203002B6D
:1042F400E8D17B68DB6A002B00F0D7806D4B9B68AC
:1043040003F00C030C2B00F091807B68DB6A022B1A
:1043140066D1684B1B68674A23F080731360FDF70E
:10432400B3FB38610EE0FDF7AFFB02463B69D31ADD
:10433400022B07D95F4B1B6803F00073002B01D0DD
:104344000323B3E05B4B1B6803F00073002BEAD13B
:10435400584BDA68584B13407A68116B7A68526B81
:10436400013A120111437A68926B120211437A687E
:10437400126C5208013A520511437A68526C520881
:10438400013A520611437A68D26BD2060A4349496C
:104394001343CB60474B1B68464A43F0807313605A
:1043A400444BDB68434A43F08073D360FDF76CFBF6
:1043B40038610EE0FDF768FB02463B69D31A022B15
:1043C40007D93C4B1B6803F00073002B01D1032376
:1043D4006CE0384B1B6803F00073002BEAD064E0F8
:1043E400344B1B68334A23F080731360FDF74CFB96
:1043F40038610EE0FDF748FB02463B69D31A022BF5
:1044040007D92C4B1B6803F00073002B01D0032346
:104414004CE0284B1B6803F00073002BEAD1254BBA
:10442400DA682449254B1340CB603EE07B68DB6AA5
:10443400012B01D1012339E01E4BDB687B617B69D1
:1044440003F003027B681B6B9A422CD17B6903F057
:10445400F0027B685B6B013B1B019A4223D17B69B1
:1044640003F4FE427B689B6B1B029A421BD17B695F
:1044740003F078427B68DB6BDB069A4213D17B69DD
:1044840003F4C0027B681B6C5B08013B5B059A422A
:1044940009D17B6903F0C0627B685B6C5B08013BFC
:1044A4005B069A4201D0012300E00023184620371E
:1044B400BD4680BD001002400C809F01FCFFEEFE53
:1044C40080B586B000AF7860396000237B617B687B
:1044D400002B01D101231CE1904B1B6803F00F0357
:1044E4003A689A4210D98D4B1B6823F00F028B490E
:1044F4003B6813430B60894B1B6803F00F033A6856
:104504009A4201D0012304E17B681B6803F0020393
:10451400002B10D07B689A68814B9B6803F0F003F2
:104524009A4208D97E4B9B6823F0F0027B689B6813
:104534007B4913438B607B681B6803F00103002BEA
:1045440000F085807B685B68032B1FD1744B1B686C
:1045540003F00073002B01D10123DAE000F026FA06
:1045640038613B696F4A934247D96D4B9B6803F0AE
:10457400F003002B41D16A4B9B6823F0F003684A97
:1045840043F08003936080237B6136E07B685B6843
:10459400022B07D1624B1B6803F40033002B15D1A7
:1045A4000123B6E07B685B68002B07D15C4B1B687A
:1045B40003F00203002B09D10123AAE0584B1B6826
:1045C40003F48063002B01D10123A2E000F0B0F8D2
:1045D40038613B69534A93420FD9514B9B6803F0AE
:1045E400F003002B09D14E4B9B6823F0F0034C4A97
:1045F40043F08003936080237B61494B9B6823F0E5
:1046040003027B685B68464913438B60FDF73CFA01
:10461400F86013E0FDF738FA0246FB68D31A41F25A
:10462400883293420AD93E4B9B6803F00C027B68A4
:104634005B689B009A4201D003236AE0384B9B6875
:1046440003F00C027B685B689B009A42E2D17B69B1
:10465400802B05D1324B9B68314A23F0F0039360E1
:104664007B681B6803F00203002B10D07B689A68F8
:104674002B4B9B6803F0F0039A4208D2284B9B68AB
:1046840023F0F0027B689B68254913438B60234B1E
:104694001B6803F00F033A689A4210D21F4B1B6841
:1046A40023F00F021D493B6813430B601B4B1B682F
:1046B40003F00F033A689A4201D0012329E07B6892
:1046C4001B6803F00403002B08D0154B9B6823F4EC
:1046D400E0627B68DB68124913438B607B681B686C
:1046E40003F00803002B09D00D4B9B6823F46052A0
:1046F4007B681B69DB000A4913438B6000F0B6F842
:104704000346094A1360094B1B681846FDF76CF908
:10471400034618461837BD4680BD00BF002002403E
:104724000010024000B4C404D8270020DC27002075
:1047340080B489B000AF0023FB610023BB61474B09
:104744009B6803F00C033B61444BDB6803F00303F9
:10475400FB603B69002B05D03B690C2B21D1FB6826
:10476400012B1ED13D4B1B6803F00803002B07D11E
:104774003A4BD3F894301B0A03F00F03FB6105E0B6
:10478400364B1B681B0903F00F03FB61344AFB69BA
:1047940052F82330FB613B69002B0DD1FB69BB61EF
:1047A4000AE03B69042B02D12E4BBB6104E03B6958
:1047B400082B01D12C4BBB613B690C2B46D1274BF9
:1047C400DB6803F00303BB60244BDB681B0903F0C5
:1047D4000F0301337B60BB68022B03D0BB68032B40
:1047E4000DD019E01F4A7B68B2FBF3F31B4AD26871
:1047F400120A02F07F0202FB03F37B6119E01A4AFA
:104804007B68B2FBF3F3154AD268120A02F07F0206
:1048140002FB03F37B610CE0FA697B68B2FBF3F300
:104824000E4AD268120A02F07F0202FB03F37B6194
:1048340000BF0A4BDB685B0E03F0030301335B002C
:104844003B607A693B68B2FBF3F3BB61BB69184612
:104854002437BD465DF8047B704700BF001002405A
:104864009CF700080024F4008096980080B500AFFF
:10487400FFF75EFF0246054B9B681B0903F00F031D
:104884000349CB5C22FA03F3184680BD00100240B2
:1048940084F7000880B500AFFFF7E8FF0246054B38
:1048A4009B681B0A03F007030349CB5C22FA03F35A
:1048B400184680BD0010024094F7000880B500AF90
:1048C400FFF7D4FF0246054B9B68DB0A03F007039E
:1048D4000349CB5C22FA03F3184680BD0010024062
:1048E40094F7000880B586B000AF786000237B6140
:1048F4002C4B9B6D03F08053002B03D0FFF76CF817
:10490400386114E0274B9B6D264A43F0805393652E
:10491400244B9B6D03F08053FB60FB68FFF75CF84E
:104924003861204B9B6D1F4A23F0805393653B698C
:10493400002B03D03B69B3F5007F0BD17B68802B40
:1049440019D97B68A02B02D902237B6113E00123D0
:104954007B6110E07B68802B02D903237B610AE032
:104964007B68802B02D102237B6104E07B68702B7F
:1049740001D101237B610C4B1B6823F00F020A4910
:104984007B6913430B60084B1B6803F00F037A69C0
:104994009A4201D0012300E0002318461837BD468F
:1049A40080BD00BF001002400020024080B487B0E8
:1049B40000AF314BDB6803F00303FB602E4BDB6875
:1049C4001B0903F00F030133BB60FB68032B15D0F5
:1049D400FB68032B39D8FB68012B1CD0FB68022B26
:1049E40033D1264ABB68B2FBF3F3234AD268120AD6
:1049F40002F07F0202FB03F33B6129E0204ABB681B
:104A0400B2FBF3F31C4AD268120A02F07F0202FBE3
:104A140003F33B611CE0184B1B6803F00803002BF5
:104A240007D1154BD3F894301B0A03F00F037B61B5
:104A340005E0114B1B681B0903F00F037B61114A4E
:104A44007B6952F823303B6102E000233B6100BFE5
:104A5400094BDB685B0E03F0030301335B007B60EF
:104A64003A697B68B2FBF3F33B603B6818461C373A
:104A7400BD465DF8047B7047001002400024F4003A
:104A8400809698009CF7000880B588B000AF7860E5
:104A94000023FB770023BB777B681B6803F4006368
:104AA400002B40D07B68DB6E802B2AD0802B25D84E
:104AB400602B26D0602B21D8402B06D0402B1DD84C
:104AC400002B09D0202B10D018E08F4BDB688E4AC6
:104AD40043F48033D36015E07B6804330021184627
:104AE40001F0F8FA0346FB770CE07B6820330021E1
:104AF400184601F0D5FB0346FB7703E00123FB775F
:104B040000E000BFFB7F002B0BD17F4BD3F89C3020
:104B140023F0E0027B68DB6E7B491343C1F89C30D1
:104B240001E0FB7FBB777B681B6803F48053002B99
:104B340047D07B681B6FB3F5806F30D0B3F5806FBF
:104B44002AD8B3F5407F2AD0B3F5407F24D8B3F5F3
:104B5400007F08D0B3F5007F1ED8002B0AD0B3F530
:104B6400807F10D018E0684BDB68674A43F48033D9
:104B7400D36015E07B6804330021184601F0AAFADB
:104B84000346FB770CE07B6820330021184601F0D4
:104B940087FB0346FB7703E00123FB7700E000BFBC
:104BA400FB7F002B0BD1584BD3F89C3023F4E062ED
:104BB4007B681B6F54491343C1F89C3001E0FB7FB1
:104BC400BB777B681B6803F40033002B00F0AB80D9
:104BD4000023FB754C4B9B6D03F08053002B0DD1D0
:104BE400494B9B6D484A43F080539365464B9B6DFC
:104BF40003F08053FB60FB680123FB75434B1B6888
:104C0400424A43F480731360FCF73EFF38610FE0BF
:104C1400FCF73AFF02463B69D31A022B08D93B4BF7
:104C24001B6803F48073002B09D10323FB7706E090
:104C3400364B1B6803F48073002BE9D000E000BFFF
:104C4400FB7F002B64D1304BD3F8903003F44073D6
:104C5400BB61BB69002B1FD07B68D3F89030BA6965
:104C64009A4219D0284BD3F8903023F44073BB6197
:104C7400254BD3F89030244A43F48033C2F8903063
:104C8400214BD3F89030204A23F48033C2F890307B
:104C94001D4ABB69C2F89030BB6903F00103002BC5
:104CA4001FD0FCF7F1FE386112E0FCF7EDFE02467E
:104CB4003B69D31A41F28832934209D9124BD3F893
:104CC400903003F00203002B0AD10323FB7707E0A3
:104CD4000D4BD3F8903003F00203002BE5D000E035
:104CE40000BFFB7F002B0CD1074BD3F8903023F48B
:104CF40040727B68D3F8903003491343C1F8903075
:104D040008E0FB7FBB7705E0001002400070004024
:104D1400FB7FBB77FB7D012B05D19C4B9B6D9B4A95
:104D240023F0805393657B681B6803F00103002B19
:104D34000AD0964BD3F8883023F003027B685B6B70
:104D440092491343C1F888307B681B6803F002035F
:104D5400002B0AD08D4BD3F8883023F00C027B68EB
:104D64009B6B8A491343C1F888307B681B6803F046
:104D74000403002B0AD0854BD3F8883023F030028B
:104D84007B68DB6B81491343C1F888307B681B68FF
:104D940003F00803002B0AD07C4BD3F8883023F0AF
:104DA400C0027B681B6C79491343C1F888307B6867
:104DB4001B6803F01003002B0AD0744BD3F888301F
:104DC40023F440727B685B6C70491343C1F88830EC
:104DD4007B681B6803F02003002B0AD06B4BD3F8CD
:104DE400883023F440627B689B6C68491343C1F8A4
:104DF40088307B681B6803F40073002B0AD0634B74
:104E0400D3F8883023F440227B68DB6D5F49134379
:104E1400C1F888307B681B6803F48063002B0AD0D8
:104E24005A4BD3F8883023F440127B681B6E5749E1
:104E34001343C1F888307B681B6803F48003002B9C
:104E44000AD0524BD3F8883023F440027B685B6E5F
:104E54004E491343C1F888307B681B6803F0007324
:104E6400002B31D07B689B6EB3F1007F0ED0B3F181
:104E7400007F14D8002B15D0B3F1807F0FD1434BA2
:104E8400DB68424A43F48013D3600CE07B6804334C
:104E94000021184601F01EF90346FB7703E00123C5
:104EA400FB7700E000BFFB7F002B0BD1374BD3F81F
:104EB400883023F040727B689B6E34491343C1F8F9
:104EC400883001E0FB7FBB777B681B6803F04003FD
:104ED400002B0AD02D4BD3F8883023F440527B6842
:104EE400DB6C2A491343C1F888307B681B6803F0E4
:104EF4008003002B0AD0254BD3F8883023F440429A
:104F04007B681B6D21491343C1F888307B681B689B
:104F140003F48073002B0AD01C4BD3F8883023F49D
:104F240040327B685B6D19491343C1F888307B6854
:104F34001B6803F48013002B0AD0144BD3F89C3065
:104F440023F003027B689B6D10491343C1F89C3026
:104F54007B681B6803F40053002B2BD00B4BD3F856
:104F6400883023F040627B685B6F08491343C1F8C3
:104F740088307B685B6FB3F1006F09D1034BDB684A
:104F8400024A43F48013D36014E000BF00100240CF
:104F94007B685B6FB3F1806F0CD17B6804330121B4
:104FA400184601F097F80346FB77FB7F002B01D0EE
:104FB400FB7FBB777B681B6803F40023002B4AD07C
:104FC4007B689B6FB3F5804F08D1704BD3F89C304E
:104FD4006E4A43F48043C2F89C3012E06B4BD3F822
:104FE400883023F040627B689B6F68491343C1F8A3
:104FF4008830664BD3F89C30644A23F48043C2F86B
:105004009C307B689B6FB3F1806F0DD17B68043358
:105014000121184601F05EF80346FB77FB7F002B65
:1050240019D0FB7FBB7716E07B689B6FB3F1006FF1
:1050340006D1564BDB68554A43F48013D3600AE02B
:105044007B689B6FB3F5804F05D1504BDB684F4AAB
:1050540043F48033D3607B681B6803F48023002B04
:1050640028D04A4BD3F8883023F040627B68DB6F4A
:1050740046491343C1F888307B68DB6FB3F1006F96
:1050840006D1424BDB68414A43F48013D36011E0FC
:105094007B68DB6FB3F1806F0CD17B680433012133
:1050A400184601F017F80346FB77FB7F002B01D06D
:1050B400FB7FBB777B681B6803F48043002B1ED007
:1050C400324BD3F8883023F040527B68D3F88030D9
:1050D4002E491343C1F888307B68D3F88030B3F18C
:1050E400805F0CD17B6804330221184600F0F2FF84
:1050F4000346FB77FB7F002B01D0FB7FBB777B68EC
:105104001B6803F48033002B0BD0204BD3F89C3066
:1051140023F004027B68D3F884301C491343C1F89C
:105124009C307B681B6803F40013002B0BD0174BD7
:10513400D3F89C3023F018027B68D3F888301349E5
:105144001343C1F89C307B681B6803F08073002B09
:1051540017D00E4BD3F89C3023F440127B68D3F85D
:105164008C300A491343C1F89C307B68D3F88C30E7
:10517400B3F5001F05D1054BDB68044A43F48013E3
:10518400D360BB7F18462037BD4680BD0010024067
:1051940080B588B000AF78600023FB617B68B3F50D
:1051A400003F3ED1454BD3F8903003F44073FB608D
:1051B400FB68B3F5407F28D0FB68B3F5407F00F26D
:1051C4007387FB68B3F5807F05D0FB68B3F5007F78
:1051D4000ED000F069BF394BD3F8903003F00203CE
:1051E400022B40F063874FF40043FB6100F05EBF85
:1051F400324BD3F8943003F00203022B40F058876B
:105204004FF4FA43FB6100F053BF2C4B1B6803F4CB
:105214000033B3F5003F40F04D87294BFB6100F0AC
:1052240049BF264BDB6803F003033B613B69032B57
:1052340036D03B69032B4BD83B69012B03D03B6928
:10524400022B20D044E01D4B1B6803F00203022B09
:1052540016D11A4B1B6803F00803002B05D0174B1B
:105264001B681B0903F00F0305E0144BD3F89430BB
:105274001B0A03F00F03134A52F82330BB612AE0E0
:105284000023BB6127E00D4B1B6803F48063B3F577
:10529400806F02D10C4BBB611DE00023BB611AE09F
:1052A400064B1B6803F40033B3F5003F02D1074BF0
:1052B400BB6110E00023BB610DE000BF00100240A1
:1052C400B4C404009CF700080024F40080969800FD
:1052D4000023BB6100BF7B68B3F1007F00F05986F7
:1052E4007B68B3F1007F00F2E7867B68B3F5800F3B
:1052F40000F005867B68B3F5800F00F2DD867B68DD
:10530400B3F5001F00F068847B68B3F5001F00F25A
:10531400D3867B68B3F5801F00F030857B68B3F5D6
:10532400801F00F2C9867B68B3F5002F00F08081EE
:105334007B68B3F5002F00F2BF867B68B3F5802F3E
:1053440000F0C2807B68B3F5802F00F2B5867B68DD
:10535400B3F5803F00F02F847B68B3F5803F00F203
:10536400AB867B68B3F5804F00F0E7837B68B3F5C9
:10537400804F00F2A1867B68B3F5005F00F0A48043
:105384007B68B3F5005F00F297867B68B3F5805FB6
:1053940000F092807B68B3F5805F00F28D867B68B5
:1053A400B3F5006F00F080807B68B3F5006F00F206
:1053B40083867B68B3F5806F00F053857B68B3F513
:1053C400806F00F279867B68B3F5007F00F0FF847C
:1053D4007B68B3F5007F00F26F867B68B3F5807F4E
:1053E40000F0A0847B68B3F5807F00F265867B685B
:1053F400802B00F06B847B68802B00F25D867B68D9
:10540400202B4BD87B68002B00F056867B68013B31
:105414001F2B00F2518601A252F823F039580008DC
:10542400AD580008BD6000083F590008BD60000881
:10543400BD600008BD600008B7590008BD600008E1
:10544400BD600008BD600008BD600008BD600008C4
:10545400BD600008BD6000083B5A0008BD6000083C
:10546400BD600008BD600008BD600008BD600008A4
:10547400BD600008BD600008BD600008BD60000894
:10548400BD600008BD600008BD600008BD60000884
:10549400BD600008BD600008BD5A00087B68402B51
:1054A40000F0E88300F008BEB9694FF4006001F031
:1054B40057F8F86100F003BEB9694FF4805001F069
:1054C4004FF8F86100F0FBBD9C4BD3F8883003F033
:1054D4004063FB60FB68B3F1406F15D0FB68B3F128
:1054E400406F00F29680FB68B3F1006F2AD0FB682E
:1054F400B3F1006F00F28D80FB68002B7FD0FB6856
:10550400B3F1806F4BD084E08C4B1B6803F0020333
:10551400022B40F08180894B1B6803F00803002BA9
:1055240005D0864B1B681B0903F00F0305E0834B72
:10553400D3F894301B0A03F00F03814A52F8233046
:10554400FB6169E07D4B1B6803F00073B3F1007FDE
:1055540065D17A4BDB6803F48013B3F5801F5ED109
:10556400764BDB681B0903F00F030133BA69B2FB06
:10557400F3F3BB61714BDB681B0A03F07F03BB6071
:10558400BB69BA6803FB02F26C4BDB685B0D03F08A
:10559400030301335B00B2FBF3F3FB613FE0674BB2
:1055A4001B6803F00063B3F1006F3BD1634B1B69CD
:1055B40003F48013B3F5801F34D100F01DFFB861EC
:1055C4005E4B1B691B0903F00F030133BA69B2FB7D
:1055D400F3F3BB61594B1B691B0A03F07F03BB60E8
:1055E400BB69BA6803FB02F2544B1B695B0D03F001
:1055F400030301335B00B2FBF3F3FB6112E04F4B97
:10560400D3F8983003F00203022B0ED14D4BFB610B
:105614000BE000BF00F053BD00BF00F050BD00BF61
:1056240000F04DBD00BF00F04ABD00BF00F047BD13
:10563400424BD3F89C3003F48043B3F5804F3DD103
:105644003E4B1B6803F00073B3F1007F40F03685D6
:105654003A4BDB6803F48033B3F5803F40F02E858A
:10566400364BDB681B0903F00F030133BA69B2FB45
:10567400F3F3BB61314BDB681B0A03F07F03BB60B0
:105684002E4BDB68DB0E03F01F037B617B69002B71
:105694000AD12A4BDB6803F40033002B02D0112318
:1056A4007B6101E007237B61BB69BA6803FB02F2FB
:1056B4007B69B2FBF3F3FB6100F000BD1F4BD3F831
:1056C400883003F04063FB60FB68B3F1406F16D091
:1056D400FB68B3F1406F00F29E80FB68B3F1006F8A
:1056E40032D0FB68B3F1006F00F29580FB68002BA9
:1056F40000F08780FB68B3F1806F52D08BE00F4BD2
:105704001B6803F00203022B40F088800B4B1B68DC
:1057140003F00803002B05D0084B1B681B0903F09A
:105724000F0305E0054BD3F894301B0A03F00F0375
:10573400034A52F82330FB6170E000BF00100240BE
:105744009CF70008006CDC02AA4B1B6803F0007392
:10575400B3F1007F65D1A74BDB6803F48013B3F585
:10576400801F5ED1A34BDB681B0903F00F030133D9
:10577400BA69B2FBF3F3BB619E4BDB681B0A03F00F
:105784007F03BB60BB69BA6803FB02F2994BDB6819
:105794005B0D03F0030301335B00B2FBF3F3FB6126
:1057A4003FE0944B1B6803F00063B3F1006F3BD1FF
:1057B400904B1B6903F48013B3F5801F34D100F0C0
:1057C4001BFEB8618B4B1B691B0903F00F030133EC
:1057D400BA69B2FBF3F3BB61864B1B691B0A03F086
:1057E4007F03BB60BB69BA6803FB02F2814B1B6990
:1057F4005B0D03F0030301335B00B2FBF3F3FB61C6
:1058040012E07C4BD3F8983003F00203022B0ED144
:10581400794BFB610BE000BF00F050BC00BF00F00F
:105824004DBC00BF00F04ABC00BF00F047BC00BF45
:1058340000F044BC6F4BD3F8883003F00303FB60E3
:10584400FB68032B27D801A252F823F06158000803
:10585400695800087158000885580008FFF72EF8A9
:10586400F8611FE0FEF764FFF8611BE0614B1B6801
:1058740003F48063B3F5806F10D1604BFB610DE0DE
:105884005C4BD3F8903003F00203022B09D14FF4A0
:105894000043FB6105E000BF00F011BC00BF00F055
:1058A4000EBC00BF00F00BBC524BD3F8883003F0A1
:1058B4000C03FB60FB680C2B39D801A252F823F0CF
:1058C400F9580008335900083359000833590008BF
:1058D40001590008335900083359000833590008A6
:1058E400095900083359000833590008335900088E
:1058F4001D590008FEF7CEFFF8611DE0FEF718FF02
:10590400F86119E03B4B1B6803F48063B3F5806FC7
:105914000FD13A4BFB610CE0364BD3F8903003F0D7
:105924000203022B07D14FF40043FB6103E000BFE5
:10593400C5E300BFC3E300BFC1E32E4BD3F88830F7
:1059440003F03003FB60FB68302B21D0FB68302B65
:1059540029D8FB68202B11D0FB68202B23D8FB68A7
:10596400002B03D0FB68102B04D01CE0FEF792FF41
:10597400F8611DE0FEF7DCFEF86119E01D4B1B68C1
:1059840003F48063B3F5806F0FD11C4BFB610CE013
:10599400184BD3F8903003F00203022B07D14FF4D5
:1059A4000043FB6103E000BF89E300BF87E300BF5E
:1059B40085E3104BD3F8883003F0C003FB60FB6829
:1059C400C02B27D0FB68C02B2FD8FB68802B17D0A7
:1059D400FB68802B29D8FB68002B03D0FB68402B85
:1059E40004D022E0FEF756FFF86123E0FEF7A0FEA4
:1059F400F8611FE000100240006CDC020024F40097
:105A0400994B1B6803F48063B3F5806F0FD1974BF8
:105A1400FB610CE0944BD3F8903003F00203022BAB
:105A240007D14FF40043FB6103E000BF47E300BF2D
:105A340045E300BF43E38C4BD3F8883003F4407351
:105A4400FB60FB68B3F5407F25D0FB68B3F5407F6E
:105A54002CD8FB68B3F5007F13D0FB68B3F5007F47
:105A640024D8FB68002B04D0FB68B3F5807F04D0F6
:105A74001CE0FEF70FFFF8611DE0FEF759FEF86128
:105A840019E0794B1B6803F48063B3F5806F0FD181
:105A9400764BFB610CE0744BD3F8903003F00203B7
:105AA400022B07D14FF40043FB6103E000BF06E380
:105AB40000BF04E300BF02E36B4BD3F8883003F468
:105AC4004063FB60FB68B3F5406F25D0FB68B3F51A
