:020000040800F2
:1000000000000320B9120008291000082F10000872
:10001000351000083B1000084110000809130008C3
:100020000000000000000000000000004710000871
:10003000551000080000000063100008711000084F
:100040000913000809130008091300080913000820
:100050000913000809130008091300080913000810
:100060000913000809130008091300080913000800
:1000700009130008091300080913000809130008F0
:1000800009130008091300080913000809130008E0
:1000900009130008091300080913000809130008D0
:1000A00009130008091300080913000809130008C0
:1000B000091300087D10000809130008091300083F
:1000C00009130008091300080913000809130008A0
:1000D0000913000809130008091300080913000890
:1000E0000913000809130008091300080913000880
:1000F0000913000809130008091300080913000870
:10010000091300080913000809130008091300085F
:10011000091300080913000809130008091300084F
:10012000091300080913000809130008091300083F
:1001300009130008911000080913000809130008AA
:10014000091300080913000809130008091300081F
:10015000091300080913000809130008091300080F
:1001600009130008091300080913000809130008FF
:10017000A510000800000000B910000800000000F1
:1001800009130008091300080913000809130008DF
:1001900009130008091300080913000809130008CF
:1001A00009130008091300080913000809130008BF
:1001B00009130008000000000913000809130008D3
:1001C00009130008000000000913000809130008C3
:1001D000091300080913000809130008091300088F
:1001E000091300080913000809130008091300087F
:0401F000000000000B
:1001F40010B5054C237833B9044B13B1044800E01F
:1002040000BF0123237010BD700000200000000017
:10021400A4E7000808B5034B1BB10349034800E0F9
:1002240000BF08BD0000000074000020A4E700081F
:10023400034613F8012B002AFBD1181A0138704722
:1002440053B94AB9002908BF00281CBF4FF0FF3139
:100254004FF0FF3000F082B9ADF1080C6DE904CE27
:1002640000F006F8DDF804E0DDE9022304B070478D
:100274002DE9F04F099D04460F46002B48D18A42D0
:10028400944661D9B2FA82F343B1C3F120019F408D
:1002940002FA03FC9C4020FA01F10F434FEA1C418F
:1002A4001FFA8CFE220CB7FBF1F601FB167706FB56
:1002B4000EF042EA0742904208D91CEB020206F112
:1002C400FF3702D2904200F237813E46121AA4B29E
:1002D400B2FBF1F001FB102200FB0EFE44EA0244E3
:1002E400A64508D91CEB040400F1FF3202D2A6454E
:1002F40000F21C81104640EA0640A4EB0E040026DE
:100304001DB1DC400023C5E900433146BDE8F08F50
:100314008B4209D9002D00F0FD800026C5E90001BB
:1003240030463146BDE8F08FB3FA83F6002E4BD148
:100334008B42C0F0F280824240F2EF803046002DC2
:10034400E3D0C5E90047E0E702B9FFDEB2FA82F381
:10035400002B40F09D80891A4FEA124E97B2012675
:10036400200CB1FBFEF20EFB121140EA014107FB27
:1003740002F088420FD91CEB010102F1FF382CBFB7
:100384004FF001094FF00009884203D9B9F1000F79
:1003940000F0CF804246091AA4B2B1FBFEF00EFB76
:1003A400101100FB07F744EA0144A74208D91CEBEB
:1003B400040400F1FF3102D2A74200F2B4800846DF
:1003C400E41B40EA02409BE7C6F12007B34001FA70
:1003D40006F422FA07FCF940B2404CEA030C20FA76
:1003E40007F34FEA1C491C431FFA8CFE00FA06F37C
:1003F400200CB1FBF9F809FB181140EA014108FB94
:100404000EF088420FD91CEB010108F1FF3A2CBF12
:100414004FF0010B4FF0000B884203D9BBF1000FE2
:1004240000F08D80D046091AA4B2B1FBF9F009FBA3
:10043400101100FB0EFE44EA01418E4507D91CEB66
:10044400010100F1FF3401D28E457FD8204640EAF5
:100454000840A1EB0E01A0FB029841454C46C6465C
:1004640002D306D14B4504D20138B9EB020468EB40
:100474000C0E002D70D01A1B61EB0E0122FA06F34C
:1004840001FA07F7F14000261F43C5E900713CE774
:1004940002FA03FCC3F1200001FA03F221FA00F688
:1004A4004FEA1C4E24FA00F11FFA8CF79C401143CA
:1004B400B6FBFEF00A0C0EFB106642EA064200FB95
:1004C40007F696420ED91CEB020200F1FF382CBF4E
:1004D4004FF001094FF00009964202D9B9F1000F1B
:1004E40031D04046921B89B2B2FBFEF60EFB1622B7
:1004F40041EA024106FB07F28A4207D91CEB0101DB
:1005040006F1FF3801D28A4223D84646891A46EAC0
:10051400004625E72E462846F7E6841A61EB0303D6
:1005240001201F460BE76444023849E7644402385B
:10053400E1E6023A61442EE7023E6244C6E6A8F1CF
:10054400020861446FE702386244CBE70238614431
:100554007DE7023E6144D9E72E46D6E6704700BFE8
:1005640080B582B000AF786039603B687A68094929
:1005740009480DF089FD0848FFF75AFE03469AB270
:1005840064230549054806F02DFF00BF0837BD4622
:1005940080BD00BFBCE700088C000020B40200202E
:1005A400B0B5ADF5AA6D02AF00F0ADFE00F01AF9DA
:1005B40000F0CEFA00F0A2FA00F070F900F07AF937
:1005C40000F050FA00F0B4F900F02EFA09F088F8BF
:1005D4000346002B01D000F023FBC82000F00AFFE3
:1005E400642306226E496F4806F0FCFE6E4B07F545
:1005F400A3641D460FCD0FC40FCD0FC495E80700AB
:1006040003C4227007F51F730122684918460CF0D1
:100614009BFC034687F8433597F8433519466448ED
:10062400FFF79EFF97F84335002B72D16423032212
:1006340060495C4806F0D6FE07F120030A225E49B1
:1006440018460CF0C7FC0346002B62D100F0C6FE2E
:10065400024607F2B443594918460DF015FD07F256
:10066400B4431846FFF7E4FD024607F11C0307F202
:10067400B44107F120000CF08BFF0023C7F8443588
:1006840020E007F11C0307F5A36107F120002822ED
:100694000CF07EFF034687F8433597F84335002B6B
:1006A4000BD0D7F8443519464548FFF759FF97F85A
:1006B400433519464348FFF753FFD7F84435013310
:1006C400C7F84435D7F844353F4A9342D9DD00F0A2
:1006D40085FE024607F2B4433C4918460DF0D4FCAB
:1006E40007F2B4431846FFF7A3FD024607F11C03C3
:1006F40007F2B44107F120000CF04AFF07F1200390
:1007040018460DF02BFA642303223149254806F0DC
:1007140069FE64230A222F49224806F063FE06225A
:100724002D49204806F0ECFE4FF47A7000F062FE8A
:1007340007F1080300221946284804F07DFF3B1DF9
:1007440000221946254805F059F807F5A963A3F5D1
:10075400A8631B781A4607F5A963A3F5A8635B7819
:10076400194607F5A963A3F5A8639B7807F2B4407B
:1007740000930B461A490DF087FC07F2B443184660
:10078400FFF756FD03469AB207F2B44319460548EB
:1007940006F0B6FE4FF47A7000F02CFEBFE700BFFF
:1007A400C4E70008B40200202CE80008CCE70008E5
:1007B400D0E70008D8E70008DCE70008E8E700080D
:1007C400F4E70008F8E700089F860100FCE700084A
:1007D40008E800080CE8000818E8000810020020E7
:1007E40020E8000880B598B000AF07F1180348224C
:1007F400002118460DF050FB3B1D00221A605A6080
:100804009A60DA601A61002001F052FF0346002B5F
:1008140001D000F005FA01F02DFF1F4BD3F8903002
:100824001D4A23F01803C2F890300523BB614FF42E
:100834008033FB6181233B6202237B640323BB641B
:100844000123FB6411233B6511237B650223BB65F4
:100854000223FB6507F11803184601F0B9FF0346AC
:10086400002B01D000F0DCF90F237B600323BB6075
:100874000023FB6000233B6100237B613B1D0421BB
:10088400184602F07BFC0346002B01D000F0C8F9A7
:1008940000BF6037BD4680BD0010024080B500AF88
:1008A40001F00AFC0346002B01D000F0B9F900BFA7
:1008B40080BD000080B500AF1B4B1C4A1A601A4B68
:1008C40001225A60184B00229A60174B4FF00072B5
:1008D400DA60154B20221A61134B01225A61124B24
:1008E40000229A61104B0122DA610F4B00221A6236
:1008F4000D4B01225A620C4B00229A620A4B0022D1
:10090400DA62094B00221A63074B08225A63064B2A
:1009140000229A63044801F0DFFB0346002B01D058
:1009240000F07EF900BF80BDB80100200010024431
:1009340080B58CB000AF07F1180300221A605A602A
:100944009A60DA601A615A613B1D00221A605A608B
:100954009A60DA601A6100233B60314B314A1A60B5
:100964002F4B00225A602E4B7F229A602C4BFF2281
:10097400DA602B4B00221A61294B00225A61284B62
:1009840000229A61264B4FF08042DA61244B002208
:100994001A62234804F042FD0346002B01D000F004
:1009A4003FF90023BB6100237B620023BB62002369
:1009B400FB6207F118031946194805F03FF803468E
:1009C400002B01D000F02CF900233B7100237B7134
:1009D4000023BB7100233B6100237B613B1D00228C
:1009E40019460F4804F092FD0346002B01D000F095
:1009F40017F901233B7001237B700123BB70002393
:100A0400FB703B4600221946054804F071FE03467C
:100A1400002B01D000F004F900BF3037BD4680BD83
:100A2400100200200028004080B400AF0B4B0C4A99
:100A34001A600A4B00225A60084B00229A60074B46
:100A44004FF48042DA60054B00221A61034B002206
:100A54005A6100BFBD465DF8047B70473802002030
:100A640000800C4280B500AF224B234A1A60214B10
:100A74004FF4E1325A601F4B00229A601D4B002252
:100A8400DA601C4B00221A611A4B0C225A61194B72
:100A940000229A61174B0022DA61164B00221A6277
:100AA400144B00225A62134B00229A62114806F03A
:100AB40049FC0346002B01D000F0B2F800210D4898
:100AC40007F079FF0346002B01D000F0A9F80021BC
:100AD400084807F0AEFF0346002B01D000F0A0F851
:100AE400044807F02FFF0346002B01D000F098F8CC
:100AF40000BF80BDB40200200038014080B582B040
:100B040000AF124B9B6C114A43F0040393640F4BE8
:100B14009B6C03F004037B607B680C4B9B6C0B4A5F
:100B240043F001039364094B9B6C03F001033B60A6
:100B34003B68002200211D2000F05BFD1D2000F019
:100B440072FD00BF0837BD4680BD00BF00100240E3
:100B540080B487B000AF214BDB6C204A43F0040320
:100B6400D3641E4BDB6C03F004037B617B691B4B7A
:100B7400DB6C1A4A43F08003D364184BDB6C03F03C
:100B840080033B613B69154BDB6C144A43F0100353
:100B9400D364124BDB6C03F01003FB60FB680F4B58
:100BA400DB6C0E4A43F00103D3640C4BDB6C03F0A3
:100BB4000103BB60BB68094BDB6C084A43F00803C4
:100BC400D364064BDB6C03F008037B607B6800BFD7
:100BD4001C37BD465DF8047B704700BF001002401F
:100BE40080B483B000AF7860044B01221A6000BF68
:100BF4000C37BD465DF8047B704700BFB40300208A
:100C040080B483B000AF7860044B01221A6000BF47
:100C14000C37BD465DF8047B704700BFB00300206D
:100C240080B500AF642303220349044806F0DAFBCD
:100C340072B600BFFEE700BF58E80008B402002007
:100C440080B582B000AF0F4B1B6E0E4A43F0010318
:100C540013660C4B1B6E03F001037B607B68094B2E
:100C64009B6D084A43F080539365064B9B6D03F0DC
:100C740080533B603B6801F077FD00BF0837BD46F9
:100C840080BD00BF0010024080B5AEB000AF7860F8
:100C940007F1A40300221A605A609A60DA601A61AC
:100CA40007F110039422002118460DF0F5F87B6833
:100CB4001B68264A934245D14FF080733B61002361
:100CC400C7F89C3007F11003184602F03BFD0346B9
:100CD400002B01D0FFF7A4FF1D4B1B6D1C4A43F4EE
:100CE400807313651A4B1B6D03F48073FB60FB6800
:100CF400174BDB6C164A43F01003D364144BDB6CC4
:100D040003F01003BB60BB684FF47C43C7F8A43006
:100D14000223C7F8A8300023C7F8AC300323C7F870
:100D2400B0300A23C7F8B43007F1A40319460948C0
:100D340001F042F8002200214C2000F05AFC4C2023
:100D440000F071FC00BFB837BD4680BD00100244FE
:100D5400001002400010024280B5A8B000AF7860D5
:100D640007F10C039422002118460DF095F87B68D6
:100D74001B68164A934224D14FF40033FB604FF4AE
:100D84008073C7F89C3007F10C03184602F0DAFCB4
:100D94000346002B01D0FFF743FF0D4BD3F89030EF
:100DA4000B4A43F40043C2F89030094B9B6D084A48
:100DB40043F480639365064B9B6D03F48063BB60CF
:100DC400BB6800BFA037BD4680BD00BF00280040FF
:100DD4000010024080B5B0B000AF786007F1AC03FA
:100DE40000221A605A609A60DA601A6107F11803E7
:100DF4009422002118460DF04FF87B681B68374A8F
:100E0400934267D14FF40023BB614FF48043C7F88A
:100E1400903007F11803184602F094FC0346002BA7
:100E240001D0FFF7FDFE2E4BDB6C2D4A43F480030B
:100E3400D3642B4BDB6C03F480037B617B69284B0D
:100E4400DB6C274A43F00403D364254BDB6C03F0CB
:100E540004033B613B69224BDB6C214A43F00803EA
:100E6400D3641F4BDB6C03F00803FB60FB684FF497
:100E7400F853C7F8AC300223C7F8B0300023C7F8E2
:100E8400B4300323C7F8B8300C23C7F8BC3007F1DB
:100E9400AC031946134800F08FFF0423C7F8AC30A5
:100EA4000223C7F8B0300023C7F8B4300323C7F8CF
:100EB400B8300C23C7F8BC3007F1AC0319460A4814
:100EC40000F07AFF002200214E2000F092FB4E2019
:100ED40000F0A9FB00BFC037BD4680BD00800C42B6
:100EE4000010024000080242000C024280B5AEB07D
:100EF40000AF786007F1A40300221A605A609A6078
:100F0400DA601A6107F110039422002118460CF0EC
:100F1400C3FF7B681B683E4A934275D101233B6142
:100F240000237B6407F11003184602F00BFC034610
:100F3400002B01D0FFF774FE364B1B6E354A43F489
:100F440080431366334B1B6E03F48043FB60FB68E2
:100F5400304BDB6C2F4A43F00103D3642D4BDB6C25
:100F640003F00103BB60BB684FF4C063C7F8A4304F
:100F74000223C7F8A8300023C7F8AC300023C7F811
:100F8400B0300723C7F8B43007F1A4031946224848
:100F940000F012FF214B224A1A60204B1A225A6099
:100FA4001E4B10229A601D4B0022DA601B4B8022DC
:100FB4001A611A4B00225A61184B00229A61174B8E
:100FC4000022DA61154B00221A62144800F046FB35
:100FD4000346002B01D0FFF723FE10210F4800F039
:100FE4001BFE0346002B01D0FFF71AFE7B680B4A59
:100FF400DA670A4A7B689362002200213D2000F0F0
:10100400F8FA3D2000F00FFB00BFB837BD4680BDA5
:101014000038014000100240000002424803002052
:101024000800024080B400AFFEE780B400AFFEE7E2
:1010340080B400AFFEE780B400AFFEE780B400AF39
:10104400FEE780B400AF00BFBD465DF8047B704787
:1010540080B400AF00BFBD465DF8047B704780B428
:1010640000AF00BFBD465DF8047B704780B500AF9C
:1010740000F0A0F900BF80BD80B500AF024800F0C9
:10108400CBFC00BF80BD00BF4803002080B500AF8B
:10109400024806F0B5FA00BF80BD00BFB4020020CC
:1010A40080B500AF024801F0D1F800BF80BD00BF99
:1010B400B801002080B500AF024804F053FF00BF20
:1010C40080BD00BF3802002080B586B000AF7860D4
:1010D400144A154BD31A7B617B693B61134B1B6824
:1010E400002B02D1114B124A1A60104B1A687B680C
:1010F40013443A699A4207D20CF094FE03460C2238
:101104001A604FF0FF3309E0084B1B68FB60074B84
:101114001A687B681344054A1360FB68184618373D
:10112400BD4680BD0000032000080000B803002075
:101134001004002080B400AF064BD3F88830054A71
:1011440043F47003C2F8883000BFBD465DF8047BE9
:10115400704700BF00ED00E080B487B000AF4F4B94
:101164001B6803F00803002B07D14C4BD3F89430D1
:101174001B0A03F00F037B6105E0484B1B681B0946
:1011840003F00F037B61464A7B6952F823307B618D
:10119400424B9B6803F00C030C2B66D801A252F857
:1011A40023F000BFDD1100086F1200086F12000861
:1011B4006F120008E51100086F1200086F12000892
:1011C4006F120008ED1100086F1200086F1200087A
:1011D4006F120008F5110008324A7B69136048E079
:1011E400304B314A1A6044E02E4B304A1A6040E0DA
:1011F4002A4BDB6803F00303FB60284BDB681B0905
:1012040003F00F030133BB60FB68022B03D0FB68C0
:10121400032B06D00BE0244ABB68B2FBF3F33B611B
:101224000BE0224ABB68B2FBF3F33B6105E07A6949
:10123400BB68B2FBF3F33B6100BF184BDB681B0ACE
:1012440003F07F023B6902FB03F33B61134BDB6852
:101254005B0E03F0030301335B007B603A697B6838
:10126400B2FBF3F30F4A136003E00E4A7B69136089
:1012740000BF0A4B9B681B0903F00F030C4AD35CA5
:101284003B60084B1A683B6822FA03F3054A136073
:1012940000BF1C37BD465DF8047B70470010024058
:1012A40004E90008000000200024F400809698005F
:1012B400ECE80008DFF834D0FFF73CFF002103E03E
:1012C4000B4B5B58435004310A480B4B42189A426B
:1012D400F6D30A4A02E0002342F8043B084B9A4240
:1012E400F9D30CF0A5FDFFF75BF9FEE7000003203E
:1012F40004EE0008000000207000002070000020B0
:101304000C040020FEE780B582B000AF0023FB711F
:10131400042000F063F9FFF71FFF072000F00EF828
:101324000346002B02D00123FB7101E0FFF788FC88
:10133400FB7918460837BD4680BD000080B584B0EF
:1013440000AF78600023FB73174B1B78002B23D06E
:10135400164B1A68144B1B7819464FF47A73B3FB77
:10136400F1F3B2FBF3F3184600F06BF90346002BDC
:101374000FD17B68072B09D8002279684FF0FF3022
:1013840000F037F90A4A7B68136007E00123FB7316
:1013940004E00123FB7301E00123FB73FB7B18468C
:1013A4001037BD4680BD00BF0800002000000020AB
:1013B4000400002080B400AF064B1B781A46064B8D
:1013C4001B681344044A136000BFBD465DF8047BE8
:1013D400704700BF08000020BC03002080B400AFA9
:1013E400034B1B681846BD465DF8047B704700BF7D
:1013F400BC03002080B584B000AF7860FFF7EEFF37
:10140400B8607B68FB60FB68B3F1FF3F05D00A4B13
:101414001B781A46FB681344FB6000BFFFF7DEFF2E
:101424000246BB68D31AFA689A42F7D800BF00BFD5
:101434001037BD4680BD00BF0800002080B485B0D1
:1014440000AF78607B6803F00703FB600C4BDB683C
:10145400BB60BA684FF6FF031340BB60FB681A0217
:10146400BB68134343F0BF6343F40033BB60044AD7
:10147400BB68D36000BF1437BD465DF8047B70477A
:1014840000ED00E080B400AF044BDB681B0A03F0FE
:1014940007031846BD465DF8047B704700ED00E085
:1014A40080B483B000AF0346FB7197F90730002B7B
:1014B4000BDBFB7903F01F02074997F907305B093F
:1014C400012000FA02F241F8232000BF0C37BD4688
:1014D4005DF8047B704700BF00E100E080B483B096
:1014E40000AF03463960FB7197F90730002B0ADB24
:1014F4003B68DAB20C4997F907305201D2B20B4477
:1015040083F800230AE03B68DAB20849FB7903F068
:101514000F03043B5201D2B20B441A7600BF0C37BE
:10152400BD465DF8047B704700E100E000ED00E09B
:1015340080B489B000AFF860B9607A60FB6803F0EA
:101544000703FB61FB69C3F10703032B28BF0323D4
:10155400BB61FB690333062B02D9FB69043B00E042
:1015640000237B614FF0FF32BB6902FA03F3DA43D5
:10157400BB681A407B699A404FF0FF317B6901FADE
:1015840003F3D9437B680B40134318462437BD4605
:101594005DF8047B7047000080B582B000AF7860CE
:1015A4007B68013BB3F1807F01D301230FE00A4A3A
:1015B4007B68013B536007214FF0FF30FFF78EFF3C
:1015C400054B00229A60044B07221A600023184638
:1015D4000837BD4680BD00BF10E000E080B582B092
:1015E40000AF78607868FFF729FF00BF0837BD4671
:1015F40080BD80B586B000AF0346B9607A60FB73E6
:10160400FFF740FF78617A68B9687869FFF790FF5F
:10161400024697F90F3011461846FFF75FFF00BFE7
:101624001837BD4680BD80B582B000AF0346FB715C
:1016340097F907301846FFF733FF00BF0837BD4658
:1016440080BD80B582B000AF78607868FFF7A4FFF2
:10165400034618460837BD4680BD000080B584B0F7
:1016640000AF78607B68002B01D101238DE07B689B
:101674001B681A46474B9A420FD87B681B681A4668
:10168400454B1344454AA2FB03231B099A007B687C
:10169400DA647B68424A9A640EE07B681B681A46E7
:1016A400404B13443D4AA2FB03231B099A007B6869
:1016B400DA647B683C4A9A647B68022283F82520BA
:1016C4007B681B681B68FB60FB6823F4FF3323F40F
:1016D400F873FB607B689A687B68DB681A437B68F5
:1016E4001B691A437B685B691A437B689B691A43CD
:1016F4007B68DB691A437B681B6A1343FA681343EC
:10170400FB607B681B68FA681A60786800F0F2FA7C
:101714007B689B68B3F5804F02D17B6800225A60D6
:101724007B685A687B681B6DD2B21A607B685B6DFC
:101734007A68926D5A607B685B68002B10D07B6876
:101744005B68042B0CD8786800F012FB7B68DB6DB7
:1017540000221A607B681B6E7A68526E5A6008E039
:101764007B680022DA657B6800221A667B680022A7
:101774005A667B6800225A647B68012283F825201C
:101784007B68002283F82420002318461037BD46C6
:1017940080BD00BF07040240F8FFFDBFCDCCCCCC18
:1017A40000000240F8FBFDBF0004024080B586B093
:1017B40000AFF860B9607A603B600023FB75FB689A
:1017C40093F82430012B01D1022366E0FB68012247
:1017D40083F82420FB6893F82530DBB2012B55D124
:1017E400FB68022283F82520FB6800225A64FB6808
:1017F4001B681A68FB681B6822F001021A603B68C8
:101804007A68B968F86800F037FAFB681B6B002B3C
:1018140008D0FB681B681A68FB681B6842F00E025C
:101824001A600FE0FB681B681A68FB681B6822F0EB
:1018340004021A60FB681B681A68FB681B6842F0A4
:101844000A021A60FB681B6D1B6803F48033002BCB
:1018540007D0FB681B6D1A68FB681B6D42F480722D
:101864001A60FB68DB6D002B07D0FB68DB6D1A6820
:10187400FB68DB6D42F480721A60FB681B681A68AF
:10188400FB681B6842F001021A6005E0FB68002255
:1018940083F824200223FB75FB7D18461837BD46C8
:1018A40080BD80B485B000AF78600023FB737B6893
:1018B40093F82530DBB2022B08D07B6804225A64EB
:1018C4007B68002283F82420012340E07B681B68A6
:1018D4001A687B681B6822F00E021A607B681B6D15
:1018E4001A687B681B6D22F480721A607B681B681F
:1018F4001A687B681B6822F001021A607B68DB6C43
:1019040003F01C027B689B6C012101FA02F25A600D
:101914007B685B6D7A68926D5A607B68DB6D002B27
:101924000CD07B68DB6D1A687B68DB6D22F48072F7
:101934001A607B681B6E7A68526E5A607B6801225B
:1019440083F825207B68002283F82420FB7B18463B
:101954001437BD465DF8047B704780B584B000AF92
:1019640078600023FB737B6893F82530DBB2022B8D
:1019740005D07B6804225A640123FB7347E07B682B
:101984001B681A687B681B6822F00E021A607B6869
:101994001B681A687B681B6822F001021A607B6866
:1019A4001B6D1A687B681B6D22F480721A607B6859
:1019B400DB6C03F01C027B689B6C012101FA02F2D0
:1019C4005A607B685B6D7A68926D5A607B68DB6DE8
:1019D400002B0CD07B68DB6D1A687B68DB6D22F40E
:1019E40080721A607B681B6E7A68526E5A607B68DC
:1019F400012283F825207B68002283F824207B6859
:101A04001B6C002B03D07B681B6C78689847FB7BAE
:101A140018461037BD4680BD80B584B000AF7860ED
:101A24007B689B6C1B68FB607B681B681B68BB60E6
:101A34007B68DB6C03F01C0304229A40FB681340B0
:101A4400002B53D0BB6803F00403002B4ED07B68FB
:101A54001B681B6803F40043002B24D07B68DB6CF9
:101A640003F01C027B689B6C042101FA02F25A60A9
:101A74007B681B681B6803F48033002B09D17B68E7
:101A84001B6B002B00F0C0807B681B6B7868984749
:101A9400BAE07B689B6B002B00F0B6807B689B6B85
:101AA40078689847B0E07B681B681B6803F02003E4
:101AB400002B07D17B681B681A687B681B6822F0BF
:101AC40004021A607B68DB6C03F01C027B689B6C6D
:101AD400042101FA02F25A607B681B6B002B00F0B0
:101AE40093807B681B6B786898478DE07B68DB6C20
:101AF40003F01C0302229A40FB681340002B4ED0D3
:101B0400BB6803F00203002B49D07B681B681B6889
:101B140003F40043002B18D07B681B681B6803F494
:101B24008033002B08D17B685B6B002B6ED07B6805
:101B34005B6B7868984769E07B68DB6A002B65D04B
:101B44007B68DB6A7868984760E07B681B681B6881
:101B540003F02003002B0BD17B681B681A687B6899
:101B64001B6822F00A021A607B68012283F8252090
:101B74007B68DB6C03F01C027B689B6C022101FA1E
:101B840002F25A607B68002283F824207B68DB6AB7
:101B9400002B3BD07B68DB6A7868984736E07B682B
:101BA400DB6C03F01C0308229A40FB681340002BF3
:101BB4002ED0BB6803F00803002B29D07B681B6878
:101BC4001A687B681B6822F00E021A607B68DB6C63
:101BD40003F01C027B689B6C012101FA02F25A603B
:101BE4007B6801225A647B68012283F825207B6884
:101BF400002283F824207B68DB6B002B08D07B68F1
:101C0400DB6B7868984702E000BF00E000BF00BFCC
:101C140000BF1037BD4680BD80B485B000AF78608A
:101C240039600023FB727B68002B03D10123FB7214
:101C3400FB7A1BE07B681B681B68FB603B6803F056
:101C44001003002B0DD03B6803F48013002B04D049
:101C5400FB6843F48013FB6003E0FB6823F4801308
:101C6400FB607B681B68FA681A60FB7A18461437B5
:101C7400BD465DF8047B704780B485B000AFF86062
:101C8400B9607A603B60FB685B6DFA68926D5A607C
:101C9400FB68DB6D002B04D0FB681B6EFA68526E88
:101CA4005A60FB68DB6C03F01C02FB689B6C01212F
:101CB40001FA02F25A60FB681B683A685A60FB68D2
:101CC4009B68102B08D1FB681B687A689A60FB68D4
:101CD4001B68BA68DA6007E0FB681B68BA689A6038
:101CE400FB681B687A68DA6000BF1437BD465DF88C
:101CF400047B704780B485B000AF78607B681B6854
:101D04001A46174B9A420AD87B68DB6C9B089B00E7
:101D140003F1804303F502337A68136507E07B68B7
:101D2400DB6C9B089A000F4B13447A6813657B683D
:101D34001B68DBB2083B0C4AA2FB03231B09FB60B4
:101D44007B680A4A5A65FB6803F01F0301229A4024
:101D54007B689A6500BF1437BD465DF8047B704705
:101D64000704024020080240CDCCCCCC80080240BD
:101D740080B485B000AF78607B685B68DBB2FB60E1
:101D8400FA680B4B13449B001A467B68DA657B6840
:101D9400084A1A66FB68013B03F0030301229A40D8
:101DA4007B685A6600BF1437BD465DF8047B7047F4
:101DB4003F8200104009024080B487B000AF7860D1
:101DC400396000237B6158E13B681A6801217B6913
:101DD40001FA03F31340FB60FB68002B00F04A8117
:101DE4003B685B6803F00303012B05D03B685B6829
:101DF40003F00303022B30D17B689B683B617B6952
:101E04005B00032202FA03F3DB433A6913403B61AC
:101E14003B68DA687B695B0002FA03F33A691343AF
:101E24003B617B683A699A607B685B683B6101222D
:101E34007B6902FA03F3DB433A6913403B613B6875
:101E44005B681B0903F001027B6902FA03F33A6938
:101E540013433B617B683A695A603B685B6803F0F3
:101E64000303032B17D07B68DB683B617B695B0052
:101E7400032202FA03F3DB433A6913403B613B68F4
:101E84009A687B695B0002FA03F33A6913433B6186
:101E94007B683A69DA603B685B6803F00303022BF2
:101EA40023D17B69DA087B68083253F822303B611E
:101EB4007B6903F007039B000F2202FA03F3DB4361
:101EC4003A6913403B613B681A697B6903F0070375
:101ED4009B0002FA03F33A6913433B617B69DA0816
:101EE4007B680832396943F822107B681B683B61C0
:101EF4007B695B00032202FA03F3DB433A69134074
:101F04003B613B685B6803F003027B695B0002FA98
:101F140003F33A6913433B617B683A691A603B688F
:101F24005B6803F44033002B00F0A4805A4A7B69B9
:101F34009B08183352F823303B617B6903F0030399
:101F4400DB000F2202FA03F3DB433A6913403B61DF
:101F54007B68524A934225D07B68514A93421FD0F2
:101F64007B68504A934219D07B684F4A934213D0FE
:101F74007B684E4A93420DD07B684D4A934207D00A
:101F84007B684C4A934201D106230CE007230AE004
:101F9400052308E0042306E0032304E0022302E00F
:101FA400012300E000237A6902F00302D200934087
:101FB4003A6913433B6138497B699B0818333A6992
:101FC40041F82320344B1B683B61FB68DB433A69CF
:101FD40013403B613B685B6803F48013002B03D020
:101FE4003A69FB6813433B612B4A3B6913602A4BF4
:101FF4005B683B61FB68DB433A6913403B613B68C8
:102004005B6803F40013002B03D03A69FB681343A5
:102014003B61214A3B6953601F4BD3F884303B61D9
:10202400FB68DB433A6913403B613B685B6803F43C
:102034000033002B03D03A69FB6813433B61164A13
:102044003B69C2F88430144BD3F880303B61FB68A1
:10205400DB433A6913403B613B685B6803F48033BC
:10206400002B03D03A69FB6813433B610A4A3B697E
:10207400C2F880307B6901337B613B681A687B69F5
:1020840022FA03F3002B7FF49FAE00BF00BF1C377E
:10209400BD465DF8047B704700F402400000024234
:1020A4000004024200080242000C024200100242F4
:1020B400001402420018024280B400AF054B1B68B2
:1020C400044A43F00103136000231846BD465DF83B
:1020D400047B70470004034080B586B002AF78608B
:1020E4000023FB73FFF77AF9B8607B68002B02D1F9
:1020F4000123FB73A2E07B6800221A657B68DB6C1A
:10210400002B40F09B807868FEF7BEFD41F28831D9
:10211400786800F02DFA7B681B689A684A4B134074
:102124007A68D1687A681269013A120411437A68AC
:102134005269013A120211437A68526B11437A6868
:10214400D26911437A6812680B4393607B681B68F9
:10215400DB6823F4E0217B681A6A7B681B680A4306
:10216400DA607B681A6B7B681B6812041A617B68EF
:102174001B687A68926B5A617B681B681B6823F43E
:10218400F8517B685B68013B1A027B681B680A4351
:102194001A607B685B6D0093BB680022202178681D
:1021A40000F031FA0346FB73FB7B002B46D17B68BE
:1021B4001B68DB6823F0FF017B685B6A5A1E7B683F
:1021C4001B680A43DA607B681B681B6823F04001C4
:1021D4007B689A687B681B680A431A607B681B6883
:1021E400D3F8083123F0A0417B689A6A7B68DB6AE4
:1021F4001A437B681B680A43C3F808217B681B6881
:102204001A687B681B6842F001021A607B689B694C
:10221400022B07D17B681B689A687B681B6842F0B5
:1022240002029A607B68DB68B3F1806F03D17B683C
:102234000122DA6402E07B680222DA64FB7B18463E
:102244001037BD4680BD00BFF4F8E0F880B586B015
:1022540000AF78607B681B6850337B617B681B68C8
:102264001B6A3B617B681B681B68FB607B68DB6CDB
:10227400BB603B6903F00403002B3AD0FB6803F412
:102284008023002B35D0BB68182B0FD17B68DB6B08
:102294001A787B691A707B68DB6B5A1C7B68DA637B
:1022A4007B685B6C5A1E7B685A6412E0BB68282BFF
:1022B4000FD17B68DB6B7A691278D2B21A707B68B3
:1022C400DB6B5A1C7B68DA637B685B6C5A1E7B6829
:1022D4005A647B685B6C002B07D17B681B681A68A7
:1022E4007B681B6822F480221A60786800F004F985
:1022F400E7E03B6903F00203002B67D0FB6803F4BB
:102304000033002B62D0BB68282B31D17B685B6C17
:10231400002B15D03B6903F47C53002B10D07B6851
:10232400DB6B7A691278D2B21A707B68DB6B5A1C49
:102334007B68DA637B685B6C5A1E7B685A64BDE019
:102344007B685B6C002B40F0B9807B681B680222C1
:102354005A627B681B681A687B681B6822F4E02257
:102364001A607B680222DA64786800F0D9F8A5E084
:102374007B681B6802225A627B681B681A687B6848
:102384001B6822F4E0221A607B680222DA64BB68CC
:10239400182B03D1786800F0CDF88FE0BB68082BC8
:1023A40003D1786800F0B2F888E0BB68B3F5807FA9
:1023B40040F084807B681B6D002B03D1786800F0AB
:1023C40091F87BE0786800F083F877E03B6903F0EC
:1023D4000803002B1ED0FB6803F40023002B19D044
:1023E4007B681B6808225A627B681B681B6803F4BD
:1023F4008003002B0AD07B681B681A687B681B6803
:1024040022F410221A607B680222DA64786800F0F1
:102414009BF856E03B6903F00103002B3CD0FB68BA
:1024240003F48033002B37D07B681B6801225A6287
:102434007B681B681A687B681B6822F4F8121A60B0
:102444007B6802221A657B681B681B6803F004031F
:10245400002B1AD07B681B681A687B681B6822F003
:1024640004021A607B689B6C184A1A647B689B6C34
:102474001846FFF772FA0346002B21D07B6802222C
:10248400DA64786800F024F81AE07B680222DA64DF
:10249400786800F01DF813E03B6903F01003002B8B
:1024A4000FD0FB6803F48013002B0AD07B681B68F1
:1024B40010225A62786800F051F802E000BF00E090
:1024C40000BF00BF1837BD4680BD00BF932500087C
:1024D40080B483B000AF786000BF0C37BD465DF8B0
:1024E400047B704780B483B000AF786000BF0C37C2
:1024F400BD465DF8047B704780B483B000AF78605C
:1025040000BF0C37BD465DF8047B704780B483B0D0
:1025140000AF786000BF0C37BD465DF8047B7047A0
:1025240080B483B000AF786000BF0C37BD465DF85F
:10253400047B704780B483B000AF786000BF0C3771
:10254400BD465DF8047B704780B483B000AF78600B
:1025540000BF0C37BD465DF8047B704780B483B080
:1025640000AF786000BF0C37BD465DF8047B704750
:1025740080B483B000AF786039607B683A685A658C
:10258400002318460C37BD465DF8047B704780B5C0
:1025940084B000AF78607B689B6AFB60FB680022B4
:1025A4005A64FB68DB6CB3F5807F22D1FB681B683F
:1025B4001B6A03F02003002B14D0FB681B68022263
:1025C4005A62FB681B681A68FB681B6842F4003295
:1025D4001A60FB681B681A68FB681B6842F00202F9
:1025E4001A600CE0FB680222DA64F868FFF77AFFED
:1025F40005E0FB680222DA64F868FFF769FF00BFB0
:102604001037BD4680BD80B584B000AFF860B960B6
:102614003B601346FB711AE0BB69B3F1FF3F16D070
:10262400FEF7DCFE02463B68D31ABA699A4202D32B
:10263400BB69002B0BD1FB684FF40072DA64FB68B2
:102644001B6D43F00102FB681A6501230EE0FB6871
:102654001B681A6ABB681340002B14BF01230023B4
:10266400DBB21A46FB799A42D6D1002318461037BA
:10267400BD4680BD80B400AF054B1B68044A43F4DB
:102684008073136000BFBD465DF8047B704700BFD4
:102694000070004080B400AF044B1B6803F4C063B7
:1026A4001846BD465DF8047B704700BF00700040CB
:1026B40080B584B000AF7860274B1B6803F4C06317
:1026C400BB6000F061F80346B3F5004F01D101236C
:1026D4003EE0214BDB6803F40043B3F5004F01D126
:1026E400012335E0BA687B689A4201D100232FE0C8
:1026F400194B1B6823F4C06217497B6813430B60B2
:10270400164B1B685B09164AA2FB0323DB09322222
:1027140002FB03F3134AA2FB0323DB080133FB6030
:1027240002E0FB68013BFB600B4B5B6903F48063D5
:10273400B3F5806F02D1FB68002BF2D1064B5B69C5
:1027440003F48063B3F5806F01D1032300E0002319
:1027540018461037BD4680BD0070004000000020C0
:10276400C55A7C0ACDCCCCCC80B400AF054B9B6859
:10277400044A43F48043936000BFBD465DF8047B84
:10278400704700BF0070004080B483B000AF0F4BAF
:102794001B693B603B6803F48053002B03D04FF468
:1027A40080537B600AE03B6803F40043002B03D1B1
:1027B4004FF400437B6001E000237B607B68184694
:1027C4000C37BD465DF8047B704700BF00700040C5
:1027D40080B588B000AF78607B68002B02D10123FC
:1027E40000F0C2BC994B9B6803F00C03BB61974B90
:1027F400DB6803F003037B617B681B6803F0100351
:10280400002B00F0E980BB69002B06D0BB690C2BC0
:1028140040F083807B69012B7FD18C4B1B6803F0D4
:102824000203002B06D07B68DB69002B02D1012355
:1028340000F09ABC7B685A6A844B1B6803F0080357
:10284400002B04D0814B1B6803F0F00305E07F4BA1
:10285400D3F894301B0903F0F003934224D27B682D
:102864005B6A184600F09CFE0346002B02D001234D
:1028740000F07ABC754B1B68744A43F0080313607C
:10288400724B1B6823F0F0027B685B6A6F49134349
:102894000B606E4B5B6823F47F427B681B6A1B02F0
:1028A4006A4913434B6026E0684B1B68674A43F050
:1028B40008031360654B1B6823F0F0027B685B6AB6
:1028C400624913430B60614B5B6823F47F427B686E
:1028D4001B6A1B025D4913434B60BB69002B0AD181
:1028E4007B685B6A184600F05BFE0346002B02D04F
:1028F400012300F039BC00F017FE0346544A13606C
:10290400544B1B681846FEF719FD0346FB73FB7B0B
:10291400002B60D0FB7B00F027BC7B68DB69002BBD
:1029240039D04A4B1B68494A43F001031360FEF750
:1029340055FD38610FE0FEF751FD02463B69D31A9D
:10294400022B08D9414B1B6803F00203002B02D170
:10295400032300F009BC3D4B1B6803F00203002B6A
:10296400E9D03A4B1B68394A43F008031360374BEC
:102974001B6823F0F0027B685B6A344913430B60E5
:10298400324B5B6823F47F427B681B6A1B022F492E
:1029940013434B6020E02D4B1B682C4A23F00103AA
:1029A4001360FEF71BFD38610EE0FEF717FD0246CB
:1029B4003B69D31A022B07D9244B1B6803F002038B
:1029C400002B01D00323CFE3204B1B6803F0020349
:1029D400002BEAD100E000BF7B681B6803F0010311
:1029E400002B7ED0BB69082B05D0BB690C2B0ED104
:1029F4007B69032B0BD1154B1B6803F40033002BAD
:102A04006ED07B685B68002B6AD10123ACE37B68E2
:102A14005B68B3F5803F06D10C4B1B680B4A43F44B
:102A24008033136024E07B685B68B3F5A02F13D177
:102A3400064B1B68054A43F480231360034B1B6851
:102A4400024A43F48033136012E000BF00100240D6
:102A540000000020040000208B4B1B688A4A23F4EA
:102A640080331360884B1B68874A23F480231360E8
:102A74007B685B68002B19D0FEF7B0FC38610EE070
:102A8400FEF7ACFC02463B69D31A642B07D97E4B94
:102A94001B6803F40033002B01D1032364E37A4B56
:102AA4001B6803F40033002BEAD01AE0FEF796FC0F
:102AB40038610EE0FEF792FC02463B69D31A642BA0
:102AC40007D9714B1B6803F40033002B01D0032397
:102AD4004AE36D4B1B6803F40033002BEAD100E09A
:102AE40000BF7B681B6803F00203002B6CD0BB693A
:102AF400042B05D0BB690C2B19D17B69022B16D191
:102B0400614B1B6803F48063002B05D07B68DB6892
:102B1400002B01D1012327E35B4B5B6823F0FE42CA
:102B24007B681B691B06584913434B604CE07B6868
:102B3400DB68002B29D0544B1B68534A43F4807341
:102B44001360FEF74BFC38610EE0FEF747FC0246CB
:102B54003B69D31A022B07D94B4B1B6803F48063E0
:102B6400002B01D10323FFE2474B1B6803F480636E
:102B7400002BEAD0444B5B6823F0FE427B681B6960
:102B84001B06414913434B601EE03F4B1B683E4A02
:102B940023F480731360FEF721FC38610EE0FEF726
:102BA4001DFC02463B69D31A022B07D9364B1B681E
:102BB40003F48063002B01D00323D5E2324B1B685E
:102BC40003F48063002BEAD17B681B6803F00803DD
:102BD400002B62D07B685B69002B38D07B689B69D3
:102BE400002B08D1284BD3F89430274A23F0100344
:102BF400C2F8943007E0244BD3F89430224A43F0CF
:102C04001003C2F89430204BD3F894301E4A43F09A
:102C14000103C2F89430FEF7E1FB38610FE0FEF7E0
:102C2400DDFB02463B69D31A072B08D9164BD3F8B0
:102C3400943003F00203002B01D1032394E2124BDE
:102C4400D3F8943003F00203002BE8D025E00E4BB8
:102C5400D3F894300C4A23F00103C2F89430FEF701
:102C6400BDFB386112E0FEF7B9FB02463B69D31A9B
:102C7400072B0BD9044BD3F8943003F00203002B39
:102C840004D0032370E200BF00100240A84BD3F825
:102C9400943003F00203002BE5D17B681B6803F03A
:102CA4000403002B00F02D810023FB77A04B9B6DC8
:102CB40003F08053002B0DD19D4B9B6D9C4A43F038
:102CC400805393659A4B9B6D03F08053BB60BB6844
:102CD4000123FB77974B1B6803F48073002B1ED1F1
:102CE400944B1B68934A43F480731360FEF776FB9E
:102CF40038610EE0FEF772FB02463B69D31A022BE1
:102D040007D98C4B1B6803F48073002B01D1032378
:102D14002AE2884B1B6803F48073002BEAD07B689B
:102D24009B6803F00103002B1FD07B689B6803F0B2
:102D34000403002B10D07E4BD3F890307C4A43F030
:102D44000403C2F890307A4BD3F89030784A43F0B9
:102D54000103C2F8903018E0754BD3F89030744AF0
:102D640043F00103C2F890300FE0714BD3F8903078
:102D74006F4A23F00103C2F890306D4BD3F89030C2
:102D84006B4A23F00403C2F890307B689B68002BE5
:102D940068D0FEF723FB386111E0FEF71FFB024603
:102DA4003B69D31A41F28832934208D9604BD3F875
:102DB400903003F00203002B01D10323D4E15C4BD8
:102DC400D3F8903003F00203002BE6D07B689B68B5
:102DD40003F08003002B22D0554BD3F89030544A93
:102DE40043F08003C2F8903011E0FEF7F7FA024690
:102DF4003B69D31A41F28832934208D94C4BD3F839
:102E0400903003F40063002B01D10323ACE1484B61
:102E1400D3F8903003F40063002BE6D068E0444B11
:102E2400D3F89030424A23F08003C2F8903011E086
:102E3400FEF7D4FA02463B69D31A41F28832934230
:102E440008D93B4BD3F8903003F40063002B01D036
:102E5400032389E1364BD3F8903003F40063002B4D
:102E6400E6D145E0FEF7BAFA386111E0FEF7B6FAAA
:102E740002463B69D31A41F28832934208D92C4B5B
:102E8400D3F8903003F00203002B01D003236BE14D
:102E9400274BD3F8903003F00203002BE6D1244BE8
:102EA400D3F8903003F08003002B21D0204BD3F8CB
:102EB40090301F4A23F08003C2F8903011E0FEF7EF
:102EC4008DFA02463B69D31A41F28832934208D9FB
:102ED400174BD3F8903003F40063002B01D0032385
:102EE40042E1134BD3F8903003F40063002BE6D196
:102EF400FB7F012B05D10E4B9B6D0D4A23F08053B4
:102F040093657B681B6803F02003002B4FD07B681C
:102F14009B6A002B28D0064BD3F89830044A43F020
:102F24000103C2F89830FEF759FA386114E000BF83
:102F34000010024000700040FEF750FA02463B6960
:102F4400D31A022B08D98A4BD3F8983003F0020322
:102F5400002B01D1032307E1854BD3F8983003F00C
:102F64000203002BE8D022E0814BD3F89830804A4A
:102F740023F00103C2F89830FEF730FA38610FE00D
:102F8400FEF72CFA02463B69D31A022B08D9784B78
:102F9400D3F8983003F00203002B01D00323E3E0BD
:102FA400734BD3F8983003F00203002BE8D17B680D
:102FB400DB6A002B00F0D7806D4B9B6803F00C0399
:102FC4000C2B00F091807B68DB6A022B66D1684B86
:102FD4001B68674A23F080731360FEF7FFF93861BA
:102FE4000EE0FEF7FBF902463B69D31A022B07D920
:102FF4005F4B1B6803F00073002B01D00323B3E085
:103004005B4B1B6803F00073002BEAD1584BDA6862
:10301400584B13407A68116B7A68526B013A12016B
:1030240011437A68926B120211437A68126C520847
:10303400013A520511437A68526C5208013A520619
:1030440011437A68D26BD2060A4349491343CB60D1
:10305400474B1B68464A43F080731360444BDB685C
:10306400434A43F08073D360FEF7B8F938610EE049
:10307400FEF7B4F902463B69D31A022B07D93C4B3D
:103084001B6803F00073002B01D103236CE0384B61
:103094001B6803F00073002BEAD064E0344B1B6818
:1030A400334A23F080731360FEF798F938610EE019
:1030B400FEF794F902463B69D31A022B07D92C4B2D
:1030C4001B6803F00073002B01D003234CE0284B52
:1030D4001B6803F00073002BEAD1254BDA682449FE
:1030E400254B1340CB603EE07B68DB6A012B01D1AA
:1030F400012339E01E4BDB687B617B6903F003022B
:103104007B681B6B9A422CD17B6903F0F0027B68CD
:103114005B6B013B1B019A4223D17B6903F4FE42A2
:103124007B689B6B1B029A421BD17B6903F078423C
:103134007B68DB6BDB069A4213D17B6903F4C00224
:103144007B681B6C5B08013B5B059A4209D17B6978
:1031540003F0C0627B685B6C5B08013B5B069A42D0
:1031640001D0012300E0002318462037BD4680BD6E
:10317400001002400C809F01FCFFEEFE80B586B07B
:1031840000AF7860396000237B617B68002B01D13C
:1031940001231CE1904B1B6803F00F033A689A4229
:1031A40010D98D4B1B6823F00F028B493B681343E6
:1031B4000B60894B1B6803F00F033A689A4201D0F5
:1031C400012304E17B681B6803F00203002B10D089
:1031D4007B689A68814B9B6803F0F0039A4208D994
:1031E4007E4B9B6823F0F0027B689B687B4913430A
:1031F4008B607B681B6803F00103002B00F0858063
:103204007B685B68032B1FD1744B1B6803F000734E
:10321400002B01D10123DAE000F026FA38613B6982
:103224006F4A934247D96D4B9B6803F0F003002B20
:1032340041D16A4B9B6823F0F003684A43F0800352
:10324400936080237B6136E07B685B68022B07D147
:10325400624B1B6803F40033002B15D10123B6E045
:103264007B685B68002B07D15C4B1B6803F002038F
:10327400002B09D10123AAE0584B1B6803F4806397
:10328400002B01D10123A2E000F0B0F838613B69C2
:10329400534A93420FD9514B9B6803F0F003002B20
:1032A40009D14E4B9B6823F0F0034C4A43F0800352
:1032B400936080237B61494B9B6823F003027B6806
:1032C4005B68464913438B60FEF788F8F86013E0A7
:1032D400FEF784F80246FB68D31A41F2883293421F
:1032E4000AD93E4B9B6803F00C027B685B689B0029
:1032F4009A4201D003236AE0384B9B6803F00C0226
:103304007B685B689B009A42E2D17B69802B05D184
:10331400324B9B68314A23F0F00393607B681B684F
:1033240003F00203002B10D07B689A682B4B9B6838
:1033340003F0F0039A4208D2284B9B6823F0F00272
:103344007B689B68254913438B60234B1B6803F000
:103354000F033A689A4210D21F4B1B6823F00F02E6
:103364001D493B6813430B601B4B1B6803F00F03A1
:103374003A689A4201D0012329E07B681B6803F074
:103384000403002B08D0154B9B6823F4E0627B6890
:10339400DB68124913438B607B681B6803F00803E6
:1033A400002B09D00D4B9B6823F460527B681B698A
:1033B400DB000A4913438B6000F0B6F80346094A60
:1033C4001360094B1B681846FDF7B8FF03461846FF
:1033D4001837BD4680BD00BF0020024000100240E7
:1033E40000B4C404000000200400002080B489B0AC
:1033F40000AF0023FB610023BB61474B9B6803F0D4
:103404000C033B61444BDB6803F00303FB603B6943
:10341400002B05D03B690C2B21D1FB68012B1ED15D
:103424003D4B1B6803F00803002B07D13A4BD3F83C
:1034340094301B0A03F00F03FB6105E0364B1B6855
:103444001B0903F00F03FB61344AFB6952F8233074
:10345400FB613B69002B0DD1FB69BB610AE03B6951
:10346400042B02D12E4BBB6104E03B69082B01D134
:103474002C4BBB613B690C2B46D1274BDB6803F01B
:103484000303BB60244BDB681B0903F00F03013308
:103494007B60BB68022B03D0BB68032B0DD019E003
:1034A4001F4A7B68B2FBF3F31B4AD268120A02F08C
:1034B4007F0202FB03F37B6119E01A4A7B68B2FBCB
:1034C400F3F3154AD268120A02F07F0202FB03F3F7
:1034D4007B610CE0FA697B68B2FBF3F30E4AD268B5
:1034E400120A02F07F0202FB03F37B6100BF0A4B66
:1034F400DB685B0E03F0030301335B003B607A6916
:103504003B68B2FBF3F3BB61BB6918462437BD4685
:103514005DF8047B704700BF0010024004E9000816
:103524000024F4008096980080B500AFFFF75EFF9A
:103534000246054B9B681B0903F00F030349CB5C50
:1035440022FA03F3184680BD00100240ECE800089C
:1035540080B500AFFFF7E8FF0246054B9B681B0AE6
:1035640003F007030349CB5C22FA03F3184680BD3A
:1035740000100240FCE8000880B500AFFFF7D4FF5C
:103584000246054B9B68DB0A03F007030349CB5C47
:1035940022FA03F3184680BD00100240FCE800083C
:1035A40080B586B000AF786000237B612C4B9B6DA7
:1035B40003F08053002B03D0FFF76CF8386114E05C
:1035C400274B9B6D264A43F080539365244B9B6D98
:1035D40003F08053FB60FB68FFF75CF83861204B15
:1035E4009B6D1F4A23F0805393653B69002B03D0E6
:1035F4003B69B3F5007F0BD17B68802B19D97B68BD
:10360400A02B02D902237B6113E001237B6110E02C
:103614007B68802B02D903237B610AE07B68802BC3
:1036240002D102237B6104E07B68702B01D101236A
:103634007B610C4B1B6823F00F020A497B6913431F
:103644000B60084B1B6803F00F037A699A4201D0A0
:10365400012300E0002318461837BD4680BD00BF93
:10366400001002400020024080B487B000AF314B0C
:10367400DB6803F00303FB602E4BDB681B0903F0DC
:103684000F030133BB60FB68032B15D0FB68032BCE
:1036940039D8FB68012B1CD0FB68022B33D1264A96
:1036A400BB68B2FBF3F3234AD268120A02F07F022A
:1036B40002FB03F33B6129E0204ABB68B2FBF3F34E
:1036C4001C4AD268120A02F07F0202FB03F33B6138
:1036D4001CE0184B1B6803F00803002B07D1154BA3
:1036E400D3F894301B0A03F00F037B6105E0114B00
:1036F4001B681B0903F00F037B61114A7B6952F8B5
:1037040023303B6102E000233B6100BF094BDB68CF
:103714005B0E03F0030301335B007B603A697B6853
:10372400B2FBF3F33B603B6818461C37BD465DF8BB
:10373400047B7047001002400024F4008096980037
:1037440004E9000880B588B000AF78600023FB77F7
:103754000023BB777B681B6803F40063002B40D015
:103764007B68DB6E802B2AD0802B25D8602B26D05B
:10377400602B21D8402B06D0402B1DD8002B09D01C
:10378400202B10D018E08F4BDB688E4A43F4803333
:10379400D36015E07B6804330021184601F0F8FA81
:1037A4000346FB770CE07B6820330021184601F0C8
:1037B400D5FB0346FB7703E00123FB7700E000BF62
:1037C400FB7F002B0BD17F4BD3F89C3023F0E0021E
:1037D4007B68DB6E7B491343C1F89C3001E0FB7FBF
:1037E400BB777B681B6803F48053002B47D07B684E
:1037F4001B6FB3F5806F30D0B3F5806F2AD8B3F563
:10380400407F2AD0B3F5407F24D8B3F5007F08D099
:10381400B3F5007F1ED8002B0AD0B3F5807F10D0FB
:1038240018E0684BDB68674A43F48033D36015E0E3
:103834007B6804330021184601F0AAFA0346FB779B
:103844000CE07B6820330021184601F087FB034617
:10385400FB7703E00123FB7700E000BFFB7F002B35
:103864000BD1584BD3F89C3023F4E0627B681B6F78
:1038740054491343C1F89C3001E0FB7FBB777B685C
:103884001B6803F40033002B00F0AB800023FB75AE
:103894004C4B9B6D03F08053002B0DD1494B9B6D1A
:1038A400484A43F080539365464B9B6D03F0805325
:1038B400FB60FB680123FB75434B1B68424A43F4DE
:1038C40080731360FDF78AFD38610FE0FDF786FD14
:1038D40002463B69D31A022B08D93B4B1B6803F4FD
:1038E4008073002B09D10323FB7706E0364B1B685A
:1038F40003F48073002BE9D000E000BFFB7F002BB2
:1039040064D1304BD3F8903003F44073BB61BB698E
:10391400002B1FD07B68D3F89030BA699A4219D033
:10392400284BD3F8903023F44073BB61254BD3F874
:103934009030244A43F48033C2F89030214BD3F8BA
:103944009030204A23F48033C2F890301D4ABB697A
:10395400C2F89030BB6903F00103002B1FD0FDF7C0
:103964003DFD386112E0FDF739FD02463B69D31A8B
:1039740041F28832934209D9124BD3F8903003F0C4
:103984000203002B0AD10323FB7707E00D4BD3F886
:10399400903003F00203002BE5D000E000BFFB7F72
:1039A400002B0CD1074BD3F8903023F440727B6882
:1039B400D3F8903003491343C1F8903008E0FB7FFB
:1039C400BB7705E00010024000700040FB7FBB772E
:1039D400FB7D012B05D19C4B9B6D9B4A23F08053AF
:1039E40093657B681B6803F00103002B0AD0964B98
:1039F400D3F8883023F003027B685B6B924913434E
:103A0400C1F888307B681B6803F00203002B0AD0DE
:103A14008D4BD3F8883023F00C027B689B6B8A496A
:103A24001343C1F888307B681B6803F00403002B40
:103A34000AD0854BD3F8883023F030027B68DB6BE7
:103A440081491343C1F888307B681B6803F008037D
:103A5400002B0AD07C4BD3F8883023F0C0027B685B
:103A64001B6C79491343C1F888307B681B6803F0E9
:103A74001003002B0AD0744BD3F8883023F440721F
:103A84007B685B6C70491343C1F888307B681B68A2
:103A940003F02003002B0AD06B4BD3F8883023F4B7
:103AA40040627B689B6C68491343C1F888307B682B
:103AB4001B6803F40073002B0AD0634BD3F88830DF
:103AC40023F440227B68DB6D5F491343C1F88830DF
:103AD4007B681B6803F48063002B0AD05A4BD3F82D
:103AE400883023F440127B681B6E57491343C1F896
:103AF40088307B681B6803F48003002B0AD0524B88
:103B0400D3F8883023F440027B685B6E4E4913433C
:103B1400C1F888307B681B6803F00073002B31D038
:103B24007B689B6EB3F1007F0ED0B3F1007F14D895
:103B3400002B15D0B3F1807F0FD1434BDB68424A91
:103B440043F48013D3600CE07B68043300211846EF
:103B540001F01EF90346FB7703E00123FB7700E045
:103B640000BFFB7F002B0BD1374BD3F8883023F0F9
:103B740040727B689B6E34491343C1F8883001E07E
:103B8400FB7FBB777B681B6803F04003002B0AD0E4
:103B94002D4BD3F8883023F440527B68DB6C2A49E0
:103BA4001343C1F888307B681B6803F08003002B43
:103BB4000AD0254BD3F8883023F440427B681B6D30
:103BC40021491343C1F888307B681B6803F4807370
:103BD400002B0AD01C4BD3F8883023F440327B6886
:103BE4005B6D19491343C1F888307B681B6803F483
:103BF4008013002B0AD0144BD3F89C3023F003021B
:103C04007B689B6D10491343C1F89C307B681B682B
:103C140003F40053002B2BD00B4BD3F8883023F044
:103C240040627B685B6F08491343C1F888307B6846
:103C34005B6FB3F1006F09D1034BDB68024A43F4B5
:103C44008013D36014E000BF001002407B685B6FF8
:103C5400B3F1806F0CD17B6804330121184601F065
:103C640097F80346FB77FB7F002B01D0FB7FBB77E4
:103C74007B681B6803F40023002B4AD07B689B6F8E
:103C8400B3F5804F08D1704BD3F89C306E4A43F49F
:103C94008043C2F89C3012E06B4BD3F8883023F099
:103CA40040627B689B6F68491343C1F88830664B58
:103CB400D3F89C30644A23F48043C2F89C307B6878
:103CC4009B6FB3F1806F0DD17B68043301211846DB
:103CD40001F05EF80346FB77FB7F002B19D0FB7FD6
:103CE400BB7716E07B689B6FB3F1006F06D1564B30
:103CF400DB68554A43F48013D3600AE07B689B6F0A
:103D0400B3F5804F05D1504BDB684F4A43F4803301
:103D1400D3607B681B6803F48023002B28D04A4BB4
:103D2400D3F8883023F040627B68DB6F4649134345
:103D3400C1F888307B68DB6FB3F1006F06D1424B6A
:103D4400DB68414A43F48013D36011E07B68DB6F86
:103D5400B3F1806F0CD17B6804330121184601F064
:103D640017F80346FB77FB7F002B01D0FB7FBB7763
:103D74007B681B6803F48043002B1ED0324BD3F8BE
:103D8400883023F040527B68D3F880302E491343A7
:103D9400C1F888307B68D3F88030B3F1805F0CD1F0
:103DA4007B6804330221184600F0F2FF0346FB77D8
:103DB400FB7F002B01D0FB7FBB777B681B6803F480
:103DC4008033002B0BD0204BD3F89C3023F004021B
:103DD4007B68D3F884301C491343C1F89C307B685A
:103DE4001B6803F40013002B0BD0174BD3F89C3043
:103DF40023F018027B68D3F8883013491343C1F8C1
:103E04009C307B681B6803F08073002B17D00E4B2B
:103E1400D3F89C3023F440127B68D3F88C300A49E1
:103E24001343C1F89C307B68D3F88C30B3F5001F82
:103E340005D1054BDB68044A43F48013D360BB7F90
:103E440018462037BD4680BD0010024080B588B0BA
:103E540000AF78600023FB617B68B3F5003F3ED17F
:103E6400454BD3F8903003F44073FB60FB68B3F523
:103E7400407F28D0FB68B3F5407F00F27387FB686E
:103E8400B3F5807F05D0FB68B3F5007F0ED000F05A
:103E940069BF394BD3F8903003F00203022B40F092
:103EA40063874FF40043FB6100F05EBF324BD3F8ED
:103EB400943003F00203022B40F058874FF4FA4386
:103EC400FB6100F053BF2C4B1B6803F40033B3F5C4
:103ED400003F40F04D87294BFB6100F049BF264B62
:103EE400DB6803F003033B613B69032B36D03B697A
:103EF400032B4BD83B69012B03D03B69022B20D009
:103F040044E01D4B1B6803F00203022B16D11A4B2D
:103F14001B6803F00803002B05D0174B1B681B0913
:103F240003F00F0305E0144BD3F894301B0A03F09D
:103F34000F03134A52F82330BB612AE00023BB610C
:103F440027E00D4B1B6803F48063B3F5806F02D147
:103F54000C4BBB611DE00023BB611AE0064B1B68E0
:103F640003F40033B3F5003F02D1074BBB6110E00B
:103F74000023BB610DE000BF00100240B4C4040084
:103F840004E900080024F400809698000023BB6133
:103F940000BF7B68B3F1007F00F059867B68B3F102
:103FA400007F00F2E7867B68B3F5800F00F005869A
:103FB4007B68B3F5800F00F2DD867B68B3F5001FE4
:103FC40000F068847B68B3F5001F00F2D3867B6839
:103FD400B3F5801F00F030857B68B3F5801F00F2D5
:103FE400C9867B68B3F5002F00F080817B68B3F548
:103FF400002F00F2BF867B68B3F5802F00F0C280EB
:104004007B68B3F5802F00F2B5867B68B3F5803FFB
:1040140000F02F847B68B3F5803F00F2AB867B68A9
:10402400B3F5804F00F0E7837B68B3F5804F00F26F
:10403400A1867B68B3F5005F00F0A4807B68B3F5CC
:10404400005F00F297867B68B3F5805F00F0928092
:104054007B68B3F5805F00F28D867B68B3F5006FF3
:1040640000F080807B68B3F5006F00F283867B6884
:10407400B3F5806F00F053857B68B3F5806F00F271
:1040840079867B68B3F5007F00F0FF847B68B3F525
:10409400007F00F26F867B68B3F5807F00F0A08418
:1040A4007B68B3F5807F00F265867B68802B00F027
:1040B4006B847B68802B00F25D867B68202B4BD859
:1040C4007B68002B00F056867B68013B1F2B00F2B7
:1040D400518601A252F823F0F5440008694500080E
:1040E400794D0008FB450008794D0008794D00081A
:1040F400794D000873460008794D0008794D000891
:10410400794D0008794D0008794D0008794D000873
:10411400794D0008F7460008794D0008794D0008EC
:10412400794D0008794D0008794D0008794D000853
:10413400794D0008794D0008794D0008794D000843
:10414400794D0008794D0008794D0008794D000833
:10415400794D0008794700087B68402B00F0E8831C
:1041640000F008BEB9694FF4006001F057F8F86137
:1041740000F003BEB9694FF4805001F04FF8F861C4
:1041840000F0FBBD9C4BD3F8883003F04063FB6028
:10419400FB68B3F1406F15D0FB68B3F1406F00F2D8
:1041A4009680FB68B3F1006F2AD0FB68B3F1006F0F
:1041B40000F28D80FB68002B7FD0FB68B3F1806F29
:1041C4004BD084E08C4B1B6803F00203022B40F0BD
:1041D4008180894B1B6803F00803002B05D0864BB4
:1041E4001B681B0903F00F0305E0834BD3F89430DD
:1041F4001B0A03F00F03814A52F82330FB6169E084
:104204007D4B1B6803F00073B3F1007F65D17A4BDB
:10421400DB6803F48013B3F5801F5ED1764BDB6853
:104224001B0903F00F030133BA69B2FBF3F3BB615B
:10423400714BDB681B0A03F07F03BB60BB69BA6880
:1042440003FB02F26C4BDB685B0D03F003030133E9
:104254005B00B2FBF3F3FB613FE0674B1B6803F0C9
:104264000063B3F1006F3BD1634B1B6903F480130C
:10427400B3F5801F34D100F01DFFB8615E4B1B699C
:104284001B0903F00F030133BA69B2FBF3F3BB61FB
:10429400594B1B691B0A03F07F03BB60BB69BA68F7
:1042A40003FB02F2544B1B695B0D03F00303013360
:1042B4005B00B2FBF3F3FB6112E04F4BD3F8983091
:1042C40003F00203022B0ED14D4BFB610BE000BF48
:1042D40000F053BD00BF00F050BD00BF00F04DBD65
:1042E40000BF00F04ABD00BF00F047BD424BD3F809
:1042F4009C3003F48043B3F5804F3DD13E4B1B68A3
:1043040003F00073B3F1007F40F036853A4BDB686D
:1043140003F48033B3F5803F40F02E85364BDB68E1
:104324001B0903F00F030133BA69B2FBF3F3BB615A
:10433400314BDB681B0A03F07F03BB602E4BDB6849
:10434400DB0E03F01F037B617B69002B0AD12A4B30
:10435400DB6803F40033002B02D011237B6101E0FE
:1043640007237B61BB69BA6803FB02F27B69B2FB7A
:10437400F3F3FB6100F000BD1F4BD3F8883003F06A
:104384004063FB60FB68B3F1406F16D0FB68B3F188
:10439400406F00F29E80FB68B3F1006F32D0FB687F
:1043A400B3F1006F00F29580FB68002B00F087806A
:1043B400FB68B3F1806F52D08BE00F4B1B6803F0A6
:1043C4000203022B40F088800B4B1B6803F00803A8
:1043D400002B05D0084B1B681B0903F00F0305E0F5
:1043E400054BD3F894301B0A03F00F03034A52F829
:1043F4002330FB6170E000BF0010024004E90008B4
:10440400006CDC02AA4B1B6803F00073B3F1007F5D
:1044140065D1A74BDB6803F48013B3F5801F5ED12D
:10442400A34BDB681B0903F00F030133BA69B2FB2A
:10443400F3F3BB619E4BDB681B0A03F07F03BB6095
:10444400BB69BA6803FB02F2994BDB685B0D03F0AE
:10445400030301335B00B2FBF3F3FB613FE0944BD6
:104464001B6803F00063B3F1006F3BD1904B1B69F1
:1044740003F48013B3F5801F34D100F01BFEB86140
:104484008B4B1B691B0903F00F030133BA69B2FBA1
:10449400F3F3BB61864B1B691B0A03F07F03BB600C
:1044A400BB69BA6803FB02F2814B1B695B0D03F025
:1044B400030301335B00B2FBF3F3FB6112E07C4BBB
:1044C400D3F8983003F00203022B0ED1794BFB6131
:1044D4000BE000BF00F050BC00BF00F04DBC00BFBB
:1044E40000F04ABC00BF00F047BC00BF00F044BC71
:1044F4006F4BD3F8883003F00303FB60FB68032B96
:1045040027D801A252F823F01D45000825450008CC
:104514002D45000841450008FFF72EF8F8611FE01B
:10452400FEF764FFF8611BE0614B1B6803F48063D2
:10453400B3F5806F10D1604BFB610DE05C4BD3F899
:10454400903003F00203022B09D14FF40043FB61C6
:1045540005E000BF00F011BC00BF00F00EBC00BFBE
:1045640000F00BBC524BD3F8883003F00C03FB6013
:10457400FB680C2B39D801A252F823F0B54500088A
:10458400EF450008EF450008EF450008BD45000869
:10459400EF450008EF450008EF450008C545000851
:1045A400EF450008EF450008EF450008D94500082D
:1045B400FEF7CEFFF8611DE0FEF718FFF86119E081
:1045C4003B4B1B6803F48063B3F5806F0FD13A4B08
:1045D400FB610CE0364BD3F8903003F00203022B5E
:1045E40007D14FF40043FB6103E000BFC5E300BF04
:1045F400C3E300BFC1E32E4BD3F8883003F030038C
:10460400FB60FB68302B21D0FB68302B29D8FB687A
:10461400202B11D0FB68202B23D8FB68002B03D060
:10462400FB68102B04D01CE0FEF792FFF8611DE03C
:10463400FEF7DCFEF86119E01D4B1B6803F4806390
:10464400B3F5806F0FD11C4BFB610CE0184BD3F812
:10465400903003F00203022B07D14FF40043FB61B7
:1046640003E000BF89E300BF87E300BF85E3104B8D
:10467400D3F8883003F0C003FB60FB68C02B27D05D
:10468400FB68C02B2FD8FB68802B17D0FB68802BCE
:1046940029D8FB68002B03D0FB68402B04D022E010
:1046A400FEF756FFF86123E0FEF7A0FEF8611FE075
:1046B40000100240006CDC020024F400994B1B68DB
:1046C40003F48063B3F5806F0FD1974BFB610CE06B
:1046D400944BD3F8903003F00203022B07D14FF42C
:1046E4000043FB6103E000BF47E300BF45E300BFB5
:1046F40043E38C4BD3F8883003F44073FB60FB68CE
:10470400B3F5407F25D0FB68B3F5407F2CD8FB6818
:10471400B3F5007F13D0FB68B3F5007F24D8FB68A2
:10472400002B04D0FB68B3F5807F04D01CE0FEF7B7
:104734000FFFF8611DE0FEF759FEF86119E0794BAF
:104744001B6803F48063B3F5806F0FD1764BFB6174
:104754000CE0744BD3F8903003F00203022B07D122
:104764004FF40043FB6103E000BF06E300BF04E332
:1047740000BF02E36B4BD3F8883003F44063FB6063
:10478400FB68B3F5406F25D0FB68B3F5406F2CD8B8
:10479400FB68B3F5006F13D0FB68B3F5006F24D842
:1047A400FB68002B04D0FB68B3F5806F04D01CE0D9
:1047B400FEF7CEFEF8611DE0FEF718FEF86119E081
:1047C400584B1B6803F48063B3F5806F0FD1564BCD
:1047D400FB610CE0534BD3F8903003F00203022B3F
:1047E40007D14FF40043FB6103E000BFC5E200BF03
:1047F400C3E200BFC1E24B4BD3F8883003F040530F
:10480400FB60FB68B3F1805F07D0FB68B3F1405FE6
:104814002BD1FEF7EBFDF8612AE0424B1B6903F054
:104824008073002B23D000F045FCB8613D4B1B691D
:104834001B0903F00F030133BA69B2FBF3F3BB6145
:10484400384B1B691B0A03F07F03BB60BB69BA6862
:1048540003FB02F2334B1B695B0E03F003030133CA
:104864005B00B2FBF3F3FB6101E000BF85E200BF34
:1048740083E22C4BD3F89C3003F00403FB60FB6809
:10488400002B03D1FEF778FEF86176E2FEF7AEFD69
:10489400F86172E2234BD3F89C3003F01803FB60F9
:1048A400FB68102B10D0FB68102B34D8FB68002B4E
:1048B40003D0FB68082B24D02DE0B9694FF40060C5
:1048C40000F0ACFCF8612BE0164B1B6803F002030C
:1048D400022B22D1134B1B6803F00803002B05D0D5
:1048E400104B1B681B0903F00F0305E00D4BD3F8B5
:1048F40094301B0A03F00F030C4A52F82330FB6177
:104904000BE0084B1B6803F48063B3F5806F06D19A
:10491400054BFB6103E000BF2FE200BF2DE200BFA7
:104924002BE200BF001002400024F40004E9000858
:10493400964BD3F8883003F44053FB60FB68B3F51F
:10494400005F13D0FB68B3F5005F19D8FB68002B38
:1049540004D0FB68B3F5805F04D011E0FEF7F8FDE6
:10496400F86110E0FEF742FDF8610CE0874B1B682C
:1049740003F48063B3F5806F04D1854BFB6101E0E0
:1049840000BFFAE100BFF8E1804BD3F8883003F4AC
:104994004043FB60FB68B3F5004F13D0FB68B3F5ED
:1049A400004F19D8FB68002B04D0FB68B3F5804F87
:1049B40004D011E0FEF7CCFDF86110E0FEF716FD1F
:1049C400F8610CE0714B1B6803F48063B3F5806FEE
:1049D40004D16F4BFB6101E000BFCEE100BFCCE12D
:1049E4006A4BD3F8883003F44033FB60FB68B3F5BB
:1049F400003F13D0FB68B3F5003F19D8FB68002BC8
:104A040004D0FB68B3F5803F04D011E0FEF7A0FDAD
:104A1400F86110E0FEF7EAFCF8610CE05B4B1B6800
:104A240003F48063B3F5806F04D1594BFB6101E05B
:104A340000BFA2E100BFA0E1544BD3F89C3003F0C7
:104A44000303FB60FB68022B11D0FB68022B18D810
:104A5400FB68002B03D0FB68012B04D011E0FEF7A8
:104A640077FDF86110E0FEF7C1FCF8610CE0474BFC
:104A74001B6803F48063B3F5806F04D1444BFB617E
:104A840001E000BF79E100BF77E1404BD3F8883003
:104A940003F44023FB60FB68B3F5402F2CD0FB6884
:104AA400B3F5402F33D8FB68B3F5002F1AD0FB6859
:104AB400B3F5002F2BD8FB68002B04D0FB68B3F5AB
:104AC400802F04D023E0FEF743FDF86126E02F4B4E
:104AD400D3F8943003F00203022B1AD14FF4FA43B3
:104AE400FB6116E0294B1B6803F48063B3F5806F08
:104AF40011D1274BFB610EE0244BD3F8903003F027
:104B04000203022B09D14FF40043FB6105E000BF0F
:104B140033E100BF31E100BF2FE100BF2DE11B4BAA
:104B2400D3F8883003F44013FB60FB68B3F5401FEF
:104B340030D0FB68B3F5401F37D8FB68B3F5001FCE
:104B44001AD0FB68B3F5001F2FD8FB68002B04D0E4
:104B5400FB68B3F5801F04D027E0FEF7F9FCF86189
:104B64002AE00A4BD3F8943003F00203022B1ED13F
:104B74004FF4FA43FB611AE0044B1B6803F48063AF
:104B8400B3F5806F15D1024BFB6112E000100240B7
:104B94000024F4007B4BD3F8903003F00203022B83
:104BA40009D14FF40043FB6105E000BFE5E000BF1D
:104BB400E3E000BFE1E000BFDFE0724BD3F88830F0
:104BC40003F44003FB60FB68B3F5400F2CD0FB6893
:104BD400B3F5400F33D8FB68B3F5000F1AD0FB6868
:104BE400B3F5000F2BD8FB68002B04D0FB68B3F59A
:104BF400800F04D023E0FEF7ABFCF86126E0614BA4
:104C0400D3F8943003F00203022B1AD14FF4FA4381
:104C1400FB6116E05B4B1B6803F48063B3F5806FA4
:104C240011D1594BFB610EE0564BD3F8903003F091
:104C34000203022B09D14FF40043FB6105E000BFDE
:104C44009BE000BF99E000BF97E000BF95E04D4BAB
:104C5400D3F8883003F04073FB60FB68B3F1007F46
:104C640042D0FB68B3F1007F74D8FB68002B04D0FA
:104C7400FB68B3F1807F0AD06CE0424B1B6803F4FD
:104C84000033B3F5003F67D1404BFB6164E03D4B1B
:104C94001B6803F00073B3F1007F5FD1394BDB680D
:104CA40003F48013B3F5801F58D1364BDB681B091E
:104CB40003F00F030133BA69B2FBF3F3BB61314B69
:104CC400DB681B0A03F07F03BB60BB69BA6803FBA4
:104CD40002F22C4BDB685B0D03F0030301335B0032
:104CE400B2FBF3F3FB6139E0264B1B6903F4803319
:104CF400002B35D000F0DEF9B861224B1B691B098B
:104D040003F00F030133BA69B2FBF3F3BB611D4B2C
:104D14001B691B0A03F07F03BB601A4B1B69DB0E84
:104D240003F01F037B617B69002B0AD1154B1B69C0
:104D340003F40033002B02D011237B6101E007232D
:104D44007B61BB69BA6803FB02F27B69B2FBF3F3D4
:104D5400FB6105E000BF10E000BF0EE000BF0CE007
:104D640000BF0AE000BF08E000BF06E000BF04E0A7
:104D740000BF02E000BF00E000BFFB691846203717
:104D8400BD4680BD001002400024F40080969800C7
:104D940080B584B000AF786039600023FB737B6812
:104DA4001B68032B18D0032B1FD8012B02D0022B16
:104DB40009D01AE0654B1B6803F00203002B17D1DE
:104DC4000123FB7314E0614B1B6803F48063002B25
:104DD40010D10123FB730DE05C4B1B6803F4C0236B
:104DE400002B09D10123FB7306E00123FB7304E0CC
:104DF40000BF02E000BF00E000BFFB7B002B40F0DF
:104E04009F80524B1B68514A23F080631360FCF768
:104E1400E5FAB8600FE0FCF7E1FA0246BB68D31A82
:104E2400022B08D9494B1B6803F00063002B09D0FF
:104E34000323FB7306E0454B1B6803F00063002B60
:104E4400E9D100E000BFFB7B002B79D13B68002B4C
:104E540016D13E4B1A693E4B13407A689268110290
:104E64007A68D268D20611437A685268013A12010C
:104E740011437A6812680A43344913430B6133E0DF
:104E84003B68012B18D1314B1A69324B13407A68B5
:104E9400926811027A6812695208013A5205114364
:104EA4007A685268013A120111437A6812680A4317
:104EB400264913430B6117E0244B1A69264B134010
:104EC4007A68926811027A6852695208013A520665
:104ED40011437A685268013A120111437A681268E0
:104EE4000A431A4913430B61184B1B68174A43F0D2
:104EF40080631360FCF772FAB8600FE0FCF76EFA97
:104F04000246BB68D31A022B08D9104B1B6803F066
:104F14000063002B09D10323FB7306E00B4B1B68D2
:104F240003F00063002BE9D000E000BFFB7B002B03
:104F340006D1064B1A697B689B69044913430B61CC
:104F4400FB7B18461037BD4680BD00BF00100240F1
:104F54000C80FF070C809FFF0C80FFF980B584B0A4
:104F640000AF786039600023FB737B681B68032BF8
:104F740018D0032B1FD8012B02D0022B09D01AE022
:104F84004A4B1B6803F00203002B17D10123FB7368
:104F940014E0464B1B6803F48063002B10D10123FB
:104FA400FB730DE0414B1B6803F4C023002B09D1B4
:104FB4000123FB7306E00123FB7304E000BF02E05E
:104FC40000BF00E000BFFB7B002B69D1374B1B689F
:104FD400364A23F080531360FCF700FAB8600FE000
:104FE400FCF7FCF90246BB68D31A022B08D92F4BF5
:104FF4001B6803F00053002B09D00323FB7306E066
:105004002A4B1B6803F00053002BE9D100E000BFDA
:10501400FB7B002B44D13B68002B15D1234B5A69F1
:10502400234B13407A68926811027A68D268D206D8
:1050340011437A685268013A120111437A6812687E
:105044000A431A4913434B61184B1B68174A43F030
:1050540080531360FCF7C2F9B8600FE0FCF7BEF9A7
:105064000246BB68D31A022B08D9104B1B6803F005
:105074000053002B09D10323FB7306E00B4B1B6881
:1050840003F00053002BE9D000E000BFFB7B002BB2
:1050940006D1064B5A697B681B69044913434B616B
:1050A400FB7B18461037BD4680BD00BF0010024090
:1050B4000C80FF0780B483B000AF00237B60264BD5
:1050C4001B6903F00303032B2DD0032B35D8012BCD
:1050D40002D0022B1DD030E01F4B1B6803F00203EB
:1050E400022B2CD11C4B1B6803F00803002B05D0AA
:1050F400194B1B681B0903F00F0305E0164BD3F88B
:1051040094301B0A03F00F03144A52F823307B60D7
:1051140015E0114B1B6803F48063B3F5806F10D165
:105124000F4B7B600DE00C4B1B6803F40033B3F5AD
:10513400003F08D10B4B7B6005E000BF04E000BFDB
:1051440002E000BF00E000BF7B6818460C37BD4694
:105154005DF8047B704700BF0010024004E90008BA
:105164000024F4008096980080B483B000AF00233C
:105174007B60264B5B6903F00303032B2DD0032BC9
:1051840035D8012B02D0022B1DD030E01F4B1B68F9
:1051940003F00203022B2CD11C4B1B6803F0080301
:1051A400002B05D0194B1B681B0903F00F0305E006
:1051B400164BD3F894301B0A03F00F03144A52F829
:1051C40023307B6015E0114B1B6803F48063B3F557
:1051D400806F10D10F4B7B600DE00C4B1B6803F408
:1051E4000033B3F5003F08D10B4B7B6005E000BFF3
:1051F40004E000BF02E000BF00E000BF7B68184687
:105204000C37BD465DF8047B704700BF00100240B8
:1052140004E900080024F4008096980080B588B062
:1052240000AF786039600023FB617B68B3F5006FE1
:105234000CD1784BD3F89C3003F0E003BB61BB691D
:10524400602B10D14BF68033FB610CE0714BD3F82B
:105254009C3003F4E063BB61BB69B3F5407F02D1CA
:105264004BF68033FB61FB69002B40F0CD803B683B
:105274003B61BB69402B03D0BB69B3F5007F3BD1D5
:10528400644B1B6803F00073B3F1007F40F0BB80F4
:10529400604BDB6803F48033002B00F0B4805D4B7B
:1052A400DB681B0903F00F0301333A69B2FBF3F324
:1052B4003B61584BDB681B0A03F07F03FB60554BD3
:1052C400DB68DB0E03F01F037B617B69002B0AD1D3
:1052D400504BDB6803F40033002B02D011237B61B5
:1052E40001E007237B613B69FA6803FB02F27B69F7
:1052F400B2FBF3F3FB6186E0BB69802B03D0BB698F
:10530400B3F5806F09D1434B1B6803F48063B3F595
:10531400806F79D1404BFB6176E0BB69002B35D1BE
:105324003C4B1B6903F48033002B6DD0FFF7C2FEA6
:105334003861384B1B691B0903F00F0301333A69C9
:10534400B2FBF3F33B61334B1B691B0A03F07F038E
:10535400FB60304B1B69DB0E03F01F037B617B6931
:10536400002B0AD12B4B1B6903F40033002B02D012
:1053740011237B6101E007237B613B69FA6803FB2E
:1053840002F27B69B2FBF3F3FB613DE0BB69202BC6
:1053940003D0BB69B3F5807F36D11E4B5B6903F440
:1053A4008033002B30D0FFF7DFFE3861194B5B6987
:1053B4001B0903F00F0301333A69B2FBF3F33B61BA
:1053C400144B5B691B0A03F07F03FB60114B5B69A1
:1053D400DB0E03F01F037B617B69002B0AD10D4BAD
:1053E4005B6903F40033002B02D011237B6101E0DD
:1053F40007237B613B69FA6803FB02F27B69B2FB1A
:10540400F3F3FB6100E000BFFB6918462037BD469B
:1054140080BD00BF001002400024F40080B584B0B9
:1054240000AF78600123FB737B68002B66D07B6838
:1054340093F82530DBB2002B06D17B68002283F879
:1054440024207868FBF788FC7B68022283F82520F7
:105454007B681B68DB6803F01003102B45D02A4BD4
:10546400CA225A62284B53225A62786800F038FAEA
:105474000346FB73FB7B002B21D1234B9B69224A00
:1054840023F08E6323F0400393611F4B9A697B687A
:1054940059687B681B6919437B689B690B431A49EC
:1054A40013438B617B68DA687B689B681B0416492D
:1054B40013430B61786800F047FA0346FB73FB7BE8
:1054C400002B0ED1104B9B6923F060427B68196A54
:1054D4007B68DB6919437B685B690B430A491343A7
:1054E4008B61094BFF225A6201E00023FB73FB7BB3
:1054F400002B03D17B68012283F82520FB7B18460F
:105504001037BD4680BD00BF0028004090B587B06D
:1055140000AFF860B9607A60FB6893F82430012B1F
:1055240001D1022381E0FB68012283F82420FB6877
:10553400022283F825203F4BCA225A623D4B532254
:105544005A62F86800F0CCF90346FB74FB7C002B2C
:105554005CD17B68002B25D1364B9B6903F040035B
:10556400002B02D1BB680022DA70BB681B78184696
:1055740000F028FA03461C04BB685B78184600F068
:1055840021FA03461B021C43BB689B78184600F0B3
:1055940019FA034644EA0302BB68DB789B0513430C
:1055A4007B6117E0234B9B6903F04003002B02D17E
:1055B400BB680022DA70BB681B781A04BB685B788E
:1055C4001B021343BA6892781A43BB68DB789B05C5
:1055D40013437B61174A7B6903F07F3323F0FE4357
:1055E4001360144B9B69134A23F480239361114B7A
:1055F4009A69BB68D968BB681B690B430D4913439F
:105604008B61F86800F0A0F90346FB74094BFF2294
:105614005A62FB7C002B03D1FB68012283F825200E
:10562400FB68002283F82420FB7C18461C37BD4607
:1056340090BD00BF0028004080B586B000AFF86080
:10564400B9607A60294B9A68BB685A60274B1B691A
:10565400C3F30E02BB689A60244B1B6803F07F33CC
:1056640023F0FE437B617B691B0CDBB203F03F0339
:10567400DAB2BB681A707B691B0ADBB203F07F03E2
:10568400DAB2BB685A707B69DBB203F07F03DAB22B
:10569400BB689A707B699B0DDBB203F00103DAB23D
:1056A400BB68DA707B68002B1AD1BB681B7818467C
:1056B40000F0A8F903461A46BB681A70BB685B7809
:1056C400184600F09FF903461A46BB685A70BB6837
:1056D4009B78184600F096F903461A46BB689A7000
:1056E400002318461837BD4680BD00BF002800407F
:1056F40090B587B000AFF860B9607A60FB6893F842
:105704002430012B01D1022371E0FB68012283F8CC
:105714002420FB68022283F825207B68002B0ED10D
:10572400BB685B7803F01003002B08D0BB685B7880
:1057340023F01003DBB20A33DAB2BB685A707B6819
:10574400002B1CD1BB68DB78184600F03BF90346FC
:105754001C04BB685B78184600F034F903461B024E
:105764001C43BB689B78184600F02CF9034644EAB6
:105774000302BB681B785B0313437B610EE0BB68C9
:10578400DB781A04BB685B781B021343BA6892780F
:105794001A43BB681B785B0313437B61164BCA2215
:1057A4005A62154B53225A62F86800F099F803467E
:1057B400FB74FB7C002B0BD10F4A7B6923F07F43E6
:1057C40023F0C0035360F86800F0BEF80346FB748E
:1057D400094BFF225A62FB7C002B03D1FB68012298
:1057E40083F82520FB68002283F82420FB7C1846DC
:1057F4001C37BD4690BD00BF0028004080B586B070
:1058040000AFF860B9607A60224B5B6823F07F4395
:1058140023F0C0037B617B691B0CDAB2BB68DA70CE
:105824007B691B0ADBB203F01F03DAB2BB685A7050
:105834007B69DBB203F03F03DAB2BB689A707B6921
:105844005B0BDBB203F00703DAB2BB681A707B6848
:10585400002B1AD1BB68DB78184600F0D3F8034656
:105864001A46BB68DA70BB685B78184600F0CAF861
:1058740003461A46BB685A70BB689B78184600F00A
:10588400C1F803461A46BB689A70002318461837B5
:10589400BD4680BD0028004080B584B000AF78606C
:1058A4000D4B0E4ADA60FBF799FDF86009E0FBF74F
:1058B40095FD0246FB68D31AB3F57A7F01D9032319
:1058C40006E0054BDB6803F02003002BEFD0002338
:1058D40018461037BD4680BD002800405C0001001A
:1058E40080B584B000AF78600023FB73154BDB6890
:1058F40003F04003002B20D1124BDB68114A43F024
:105904008003D360FBF76AFDB8600DE0FBF766FD2A
:105914000246BB68D31AB3F57A7F05D90323FB7318
:105924007B68032283F82520064BDB6803F04003E1
:10593400002B02D1FB7B032BE8D1FB7B18461037ED
:10594400BD4680BD0028004080B584B000AF7860BB
:105954000023FB731A4BDB68194A23F08003D360DE
:10596400174B9B6903F02003002B0CD17868FFF7D9
:1059740093FF0346002B1ED07B68032283F8252067
:105984000323FB7317E00E4B9B690D4A23F020039E
:1059940093617868FFF780FF0346002B05D07B688E
:1059A400032283F825200323FB73054B9B69044AD8
:1059B40043F020039361FB7B18461037BD4680BD3E
:1059C4000028004080B485B000AF0346FB7100237B
:1059D400FB60FB79FB7205E0FB680133FB60FB7A3B
:1059E4000A3BFB72FB7A092BF6D8FB68DBB21B017E
:1059F400DAB2FB7A1343DBB218461437BD465DF8BE
:105A0400047B704780B485B000AF0346FB71FB791B
:105A14001B09DBB21A4613469B0013445B00FB6070
:105A2400FB68DAB2FB7903F00F03DBB21344DBB299
:105A340018461437BD465DF8047B704780B483B0C4
:105A440000AF786039603B681A683B685B680F494F
:105A54001343CB613B689A683B68DB680C4913438A
:105A64004B620B4B1B6A03F0FF223B6819693B68CE
:105A74005B691B040B43064913430B62002318465E
:105A84000C37BD465DF8047B704700BF002800401A
:105A94000034004080B58AB000AF78607B68002B8A
:105AA40001D1012375E07B6893F83030DBB2002B21
:105AB40005D17B6800221A767868FBF78BF97B683E
:105AC400042283F83020786800F068F80346002B3D
